:100000000C94C8000C94E5000C94E5000C94E500F9
:100010000C94E5000C941D010C94E5000C94E50093
:100020000C94E5000C94E5000C94E5000C94E500BC
:100030000C94E5000C94E5000C94E5000C94E500AC
:100040000C94300B0C94E5000C94E5000C94E50046
:100050000C94BD090C947D090C94E5000C94E5000A
:100060000C94E5000C94E5000C94E5000C94E5007C
:100070000C94E5000C94E5000C94E5007265616356
:10008000686564320A0072656163686564310A00FC
:100090004469616D6F6E64733A2025640044696140
:1000A0006D6F6E64733A2025640043686561742047
:1000B0006F6666004368656174206F6E00507265FC
:1000C0007373206120627574746F6E20746F207377
:1000D0007461727420616761696E0047414D45200B
:1000E0004F564552004469616D6F6E64733A20301B
:1000F000004368656174206F6666005374756465BB
:100100006E74206E756D3A2034363832323339349D
:100110000043535345323031302F37323031207065
:10012000726F6A656374206279203C4A69617969FB
:100130002057414E473E004469616D6F6E64204D0B
:10014000696E657273001B5B421B5B44001B4400BD
:100150001B4D001B5B25643B256472001B5B72001A
:100160001B5B3F323568001B5B3F32356C001B5B0D
:1001700025646D001B5B4B001B5B324A001B5B3729
:100180006D001B5B306D001B5B25643B25644800E4
:1001900011241FBECFEFD8E0DEBFCDBF12E0A0E03C
:1001A000B1E0E8EEFDE102C005900D92A835B1077F
:1001B000D9F724E0A8E5B2E001C01D92AC38B2073F
:1001C000E1F70E94790B0C94F20E0C940000E8E623
:1001D000F0E0808182608083D99AECE6F0E0808153
:1001E0008F608083109258020895809158021816EB
:1001F00014F5809159026FB7F89491E0292F30E0FF
:1002000040915802042E000C550B2417350754F466
:10021000F901E75AFD4F4081F901E85AFD4F40834B
:100220009F5FECCF9091580291509093580267FFD6
:1002300003C0789408958FEF08951F920F920FB620
:100240000F9211242F933F934F935F936F937F935C
:100250008F939F93EF93FF9343B14F7080E090E0B3
:10026000642F70E020915802243004F59B01082E81
:1002700002C0359527950A94E2F720FF17C0209118
:100280005D0230E0082E02C0359527950A94E2F70A
:1002900020FD0CC0E091580221E02E0F209358025F
:1002A0000E2E000CFF0BE75AFD4F80830196843021
:1002B0009105C1F640935D02FF91EF919F918F915F
:1002C0007F916F915F914F913F912F910F900FBE52
:1002D0000F901F9018950E9411070895CF92DF92FA
:1002E000EF92FF921F93CF93DF93CDB7DEB728979E
:1002F0000FB6F894DEBF0FBECDBF0E94110788E194
:10030000C82E81E0D82E10E0CE0101967C01F601C6
:1003100081916F0180FD02C090EF01C09FE0FE015E
:10032000389687FF02C0908301C01082880F3197F2
:10033000EE16FF06B1F71982B701812F0E94D10690
:100340001F5F103121F728960FB6F894DEBF0FBE5D
:10035000CDBFDF91CF911F91FF90EF90DF90CF90B5
:100360000895803138F5683028F5413091F04230F9
:1003700091F09DEF940F923080F0453081F046303F
:1003800081F0473081F0483081F0493081F040E021
:100390000FC04FE00DC041E00BC04FED09C040EF72
:1003A00007C045E305C04CE303C041E101C043E1A0
:1003B0000E948D060895EF92FF921F93CF93DF93D3
:1003C00010926F0310926C0281E08093710310927F
:1003D000700380936E0310916002A8E5B1E068EDB0
:1003E00071E020E030E0C90182519D4F7C01F901AC
:1003F000E359FD4F40E050E0CA0180599F4F11235F
:1004000019F08A0F9B1F02C0860F971FEC0188818D
:100410008083E70119927E0140515109319640389D
:10042000DFEF5D0749F711966F5F7F4F285F3F4F02
:1004300020383105C1F6DF91CF911F91FF90EF90E9
:100440000895803118F481E0683008F080E0089564
:10045000803160F4683050F498E0899FF0011124F5
:10046000E359FD4FE60FF11D8081089584E0089562
:10047000CF93DF93C0917103C031D0F4D09170035A
:10048000D830B0F480916E03882331F06D2F8C2F1B
:100490000E942802482F01C042E06D2F8C2F0E943D
:1004A000B10181E090916E03911180E080936E0321
:1004B000DF91CF9108950E94600A9091660281E0D9
:1004C0006AE070E0892780936602882339F08AE029
:1004D00090E00E943D0A84EB90E006C08AE090E044
:1004E0000E943D0A8AEA90E09F938F930E944E0CEF
:1004F0000F900F906CE070E08AE090E00E943D0A5F
:10050000809165021F928F938DE990E09F938F9366
:100510000E944E0C0F900F900F900F900895CF9364
:10052000DF93C82FD62F0E942802853011F58091C5
:1005300065028F5F8093650288E0C89FF0011124F7
:10054000E359FD4FED0FF11D10826CE070E08AE081
:1005500090E00E943D0A809165021F928F9380E98E
:1005600090E09F938F930E944E0C0F900F900F90EE
:100570000F90DF91CF910895A0E0B0E0E2ECF2E0BF
:100580000C94BD0B88E18093ED02C0906F03A090A6
:100590006C02E12CF12CD12CB12C8E2C86010E1981
:1005A0001F0917FF03C0119501951109902EC0E096
:1005B000D0E06C2F882D0E9428028530A1F4C5015F
:1005C0008C1B9D0B97FF03C09195819591092091FC
:1005D000ED0230E0A801480F591F421753071CF4E1
:1005E000890D8093ED022196C830D10511F78FEF68
:1005F000E81AF80A80E1E816F10479F68091ED0234
:10060000CDB7DEB7ECE00C94D90B8091640288235F
:1006100011F0479A01C0479881E0909164029111CE
:1006200080E080936402089580910801909109010F
:10063000019671F480ED97E0909309018093080191
:1006400080916F038093010180916C02809300017F
:1006500008958091010190916F03981306C0209135
:100660006C0290910001291759F09091630299232F
:1006700011F040E001C048E0609100010E94B1012A
:100680009091630281E089278093630208956091CD
:1006900008017091090180E090E00895EF92FF92C7
:1006A0000F931F93CF93DF9341E0609100018091FE
:1006B00001010E94B101C0E5D1E088E5E82E81E0AA
:1006C000F82E8E01F801618180910001680F908100
:1006D0008091010149E0890F0E94B1010E5F1F4F17
:1006E000E016F10679F78091040190910501843FAD
:1006F000914021F586E890E09F938F930E944E0CE5
:100700000F900F90188180910101180F098180913D
:100710000001080F602F812F0E942802482F602FB0
:10072000812F0E94B1012296EC16FD0659F742E096
:1007300060910001809101010E94B101809104014A
:1007400090910501892B71F48CE790E09F938F9332
:100750000E944E0C8FEF9FEF909305018093040150
:100760000F900F90CDB7DEB7E6E00C94DF0B8091D1
:100770000401909105010895809104019091050173
:10078000019790930501809304010895909161026F
:1007900081E0892780936102089580916102089524
:1007A0008091620208951092620210926602109285
:1007B000650210925F028FEF809300018093010128
:1007C00008958091E902813099F42091600290911E
:1007D0006502222329F0963059F41092600204C079
:1007E000933031F4809360028093620280935F02C1
:1007F000089580915F02089590915E0281E08927BB
:1008000080935E020895EF92FF920F931F93CF9310
:10081000DF93F82E08E211E0EE24E394F801C081A2
:1008200080916F03C80FC03140F5D18180916C0277
:10083000D80FD83010F5FF20B9F088E0C89FF0013C
:100840001124E251FD4FED0FF11DE0828091010175
:10085000C81304C080910001D81779F06D2F8C2F38
:100860000E942802482F05C0C33010F4D33028F06E
:1008700046E06D2F8C2F0E94B1010E5F1F4FE1E00B
:1008800000351E0759F6CDB7DEB7E6E00C94DF0B56
:100890000F931F93CF93DF93C82FD62F00916C0235
:1008A00010916F03602F6D0F812F8C0F0E94280213
:1008B0009DEF980F212F30E0923008F457C0873019
:1008C00009F454C0F90183E0EE0FFF1F8A95E1F7A8
:1008D000E359FD4FE00FF11D108240E0602F812FA2
:1008E0000E94B10180E00E94030480916F038C0F8D
:1008F00080936F0360916C026D0F60936C020E9495
:100900008F0280916F0360916C0228E0829FF0015A
:100910001124E359FD4FE60FF11D91E0908341E072
:100920000E94B1010E94BC02853008F04798809176
:10093000080190910901019689F08091010190913F
:100940006F03981306C020916C0290910001291743
:1009500029F048E0609100010E94B10180915E029F
:10096000882359F081E00E94030407C02C0F311D39
:100970002031310511F40E94E103009170031091C0
:100980007103602F812F0E942802482F602F812F32
:100990000E94B10180916F03C80FC09371038091D1
:1009A0006C02D80FD09370030E943802DF91CF9170
:1009B0001F910F9108950F931F93CF93DF93182FDB
:1009C000062F88E0189FF0011124E251FD4FE60F39
:1009D000F11D81E08083812F0E942802C82F482FBB
:1009E000602F812F0E94B101C11103C0C0E5D1E089
:1009F0000CC0C530E9F4FACF6981600F683050F05F
:100A0000229681E0C835D80799F08881810F80311E
:100A1000B8F7F2CF98E0899FF0011124E251FD4F21
:100A2000E60FF11D90819111EBCF0E94DB04E8CF1E
:100A3000DF91CF911F910F910895CF93DF930E9483
:100A40006B01D0E0C0E046E06C2F8D2F0E94B10119
:100A5000CF5FC830C1F7DF5FD031A1F760916C0282
:100A600080916F030E94DB0441E060916C028091F1
:100A70006F030E94B10142E06091700380917103A5
:100A80000E94B101DF91CF9108950E94DB010E9485
:100A90001D050895CF93DF93809166028823F1F0BE
:100AA000D0917003C09171036D2F8C2F0E9428028A
:100AB0008730A1F488E0C89FF0011124E359FD4F6D
:100AC000ED0FF11D108240E06D2F8C2F0E94B101BF
:100AD00060917003809171030E94DB04DF91CF91DC
:100AE0000895CF93DF93D0917003C09171036D2F60
:100AF0008C2F0E942802833079F488E0C89FF0018F
:100B00001124E359FD4FED0FF11D87E0808347E08D
:100B10006D2F8C2F0E94B1010E944A05DF91CF9169
:100B20000895EF92FF920F931F93CF93DF938FEF70
:100B30009FEF909309018093080100E511E0EE24F6
:100B4000EA94FE2CF801C08180910101C80FD18187
:100B500080910001D80F40E06D2F8C2F0E94B101D1
:100B6000F0920501E09204016D2F8C2F0E94280263
:100B70008B7F833091F448E0C49FF0011124E35946
:100B8000FD4FED0FF11D108240E06D2F8C2F0E9464
:100B9000B1016D2F8C2F0E94DB046D2F8C2F0E94D2
:100BA0002802813021F48093620210925F020E5F6E
:100BB0001F4F81E00835180729F6809101019091B7
:100BC0006F0389130CC02091000190916C022913CE
:100BD00006C081E08093620210925F0205C040E08F
:100BE000609100010E94B101469820ED37E03093FA
:100BF0000501209304018091020190910301019766
:100C0000803D974030F030930301209302010E9411
:100C10004E038FEF8093000180930101CDB7DEB7C3
:100C2000E6E00C94DF0BCF93DF9320910801309125
:100C30000901215031093093090120930801C901AC
:100C40006AE070E00E94840B809106019091070198
:100C5000861B970B8217930750F00E9429038091FF
:100C6000080190910901909307018093060146982D
:100C7000C0E5D1E0698180910001680F9881809181
:100C80000101890F0E942802813009F4469A2296B8
:100C900081E0C835D80771F79091010180916F0309
:100CA000981307C09091000180916C02981301C0C5
:100CB000469A8091080190910901892B11F40E94B4
:100CC0009105DF91CF91089580E80E94100A089560
:100CD000A1E0B0E0EEE6F6E00C94C10B182F80E046
:100CE00099830E94370AC12E9981D92E08E0760196
:100CF00010E1F70180810E94370A1150F8E0EF0EF1
:100D0000F11C1111F6CF01508FEFC81AD80A01114A
:100D1000EECF2196E8E00C94DD0BA2E0B0E0E3E931
:100D2000F6E00C94C60B182F803198F4683088F4E4
:100D300081E04A8369830E94370A698120E1629FCA
:100D4000C0011124812B0E94370A4A81842F0E94FE
:100D5000370A2296E3E00C94E20BA2E0B0E0E3EB6A
:100D6000F6E00C94C30B182F8830B8F482E0698346
:100D70007A830E94370A812F0E94370A6981E62E02
:100D80007A81F72E8701005F1F4FF70181917F0164
:100D90000E94370AE016F106C1F72296E6E00C94AD
:100DA000DF0BA2E0B0E0E7EDF6E00C94C30B182FE8
:100DB0008031B8F483E069837A830E94370A812FF7
:100DC0000E94370A6981E62E7A81F72E8701085F33
:100DD0001F4FF70181917F010E94370AE016F1064B
:100DE000C1F72296E6E00C94DF0B84E00E94370AFC
:100DF00082E00E94370A089584E00E94370A81E069
:100E00000E94370A089584E00E94370A88E00E9411
:100E1000370A089584E00E94370A84E00E94370A66
:100E200008958FE00E94370A0895FB019C01285F16
:100E30003F4FDC014D91CD014193A217B307C9F794
:100E40000895FB019C01205F3F4FDC014D91CD01D6
:100E50004193A217B307C9F708959C01285F3F4F3C
:100E6000FC016193CF01E217F307D1F708959C01CC
:100E7000205F3F4FFC016193CF01E217F307D1F7E9
:100E800008950E9464060E94E70040E060E07BE471
:100E900080E090E00E9434090E940A0B3F9A789407
:100EA00008950E94600A6AE070E08AE090E00E9483
:100EB0003D0A87E391E09F938F930E944E0C6CE074
:100EC00070E08AE090E00E943D0A81E191E09F930A
:100ED0008F930E944E0C6EE070E08AE090E00E94DA
:100EE0003D0A8BEF90E09F938F930E944E0C0E94DF
:100EF0006E010F900F900F900F900F900F900E9427
:100F00007109811105C00E94F5008F3FC1F308955A
:100F100080918604909187040E94100C8F7D833508
:100F200091F708950E94600A0E9445050E94F5000D
:100F30000E94780908954F925F926F927F928F92EC
:100F40009F92AF92BF92CF92DF92EF92FF92CF9398
:100F5000DF930E94220B2B013C016AE070E08AE0E3
:100F600090E00E943D0A81EF90E09F938F930E9452
:100F70004E0C6CE070E08AE090E00E943D0A85EE45
:100F800090E09F938F930E944E0C0F900F900F90C4
:100F90000F90530142010E94D0038111CCC00E94E6
:100FA000CD03882329F00E9471098823A1F3B6C0DC
:100FB0000E94D0038111F7CF0E94F500D82F0E9424
:100FC0007109882371F080918604909187040E94B2
:100FD000100CC82FDD2341F0843631F0843421F029
:100FE00006C0D1110AC0CFEF60E081E01EC0D13051
:100FF00039F08F7D813421F006C0D13049F4CFEF34
:1010000060E08FEF12C0D23031F0873521F007C099
:10101000D23019F4CFEF61E007C08FEDCFEFD330BE
:1010200011F0833521F46FEF80E00E944804DC2F3B
:10103000DF7DD53419F40E9471051AC0D33419F438
:101040000E945B0215C0C03219F40E94140305C04F
:10105000D03519F40E94C6030BC0D63449F40E945F
:10106000FC03882311F081E001C080E00E940304AA
:101070000E94220B6B017C01D301C2018C509E4F58
:10108000AF4FBF4FC816D906EA06FB0620F00E94F4
:101090003802260137010E94BC02843081F4D50158
:1010A000C40184529A4FAF4FBF4FC816D906EA0603
:1010B000FB0628F00E9405034601570170CF0E94ED
:1010C000BC02833059F4D501C40188519C4FAF4F05
:1010D000BF4FC816D906EA06FB0660F70E94BC029D
:1010E000823059F4D501C4018C509E4FAF4FBF4F91
:1010F000C816D906EA06FB06E8F60E94BC02813053
:1011000009F04DCFD501C40186509F4FAF4FBF4F5F
:10111000C816D906EA06FB0668F641CF8091860418
:10112000909187040E94100C8F7D803509F033CF99
:101130000E94C60330CFDF91CF91FF90EF90DF90F8
:10114000CF90BF90AF909F908F907F906F905F9067
:101150004F9008950E94F903882319F00E94D30349
:1011600008956EE070E08AE090E00E943D0A8BED09
:1011700090E09F938F930E944E0C6FE070E08AE0A6
:1011800090E00E943D0A8DEB90E09F938F930E9428
:101190004E0C0F900F900F900F900E94F5008F3F14
:1011A000E1F3DCCFCF93C82F8A3019F48DE00E9491
:1011B000D2088FB78078909173039F3F29F48111F3
:1011C000FACF81E090E020C0F894E091720391E0C2
:1011D0009E0F90937203F0E0EC58FC4FC083909107
:1011E00073039F5F90937303909172039F3F11F479
:1011F000109272039091C10090629093C100882375
:1012000009F0789480E090E0CF9108958091850472
:101210008823E1F32FB72078F894809173043091FC
:10122000850490E0831B9109E091730497FF08C047
:1012300080918504F0E0E81BF109EC57FB4F07C0F3
:1012400080918504F0E0E81BF109EC58FB4F8081A8
:1012500090918504915090938504222309F078940D
:10126000082E000C990B08951092720310927303CC
:1012700010927304109285041092840440936702C4
:101280009B01AC0183E0220F331F441F551F8A9539
:10129000D1F760E072E18AE790E00E94980BCA0102
:1012A000B9016F5F7F4F8F4F9F4F22E030E040E0EA
:1012B00050E00E94980B215031093093C5002093D3
:1012C000C400E1ECF0E088E1808380818068808365
:1012D000E6E8F4E08AE091E093838283918380835F
:1012E00008959091850481E0911101C080E00895F6
:1012F000109273041092850408951F920F920FB6F6
:101300000F9211242F938F939F93EF93FF938091CC
:101310007303882319F1809172032091730390E085
:10132000821B9109E091720397FF08C080917303BB
:10133000F0E0E81BF109ED58FB4F07C08091730303
:10134000F0E0E81BF109EC58FC4F908180917303A9
:101350008150809373039093C60005C08091C100B3
:101360008F7D8093C100FF91EF919F918F912F917D
:101370000F900FBE0F901F9018951F920F920FB6EF
:101380000F9211242F933F934F935F936F937F930B
:101390008F939F93AF93BF93CF93EF93FF93C0919E
:1013A000C60080916702882349F0809173038F3FC4
:1013B00029F060E070E08C2F0E94D20880918504B3
:1013C000803120F081E08093840418C0CD3009F48E
:1013D000CAE0E091730481E08E0F80937304F0E023
:1013E000EC58FB4FC083809185048F5F8093850408
:1013F00080917304803111F410927304FF91EF9186
:10140000CF91BF91AF919F918F917F916F915F919C
:101410004F913F912F910F900FBE0F901F901895F5
:1014200094B1906B94B92C9A90E59CBD883021F0D2
:10143000803211F0823019F491E09DBD01C01DBCD5
:10144000803269F028F4883069F0803159F00DC09D
:10145000803429F0803849F48CB581608CBD8CB51E
:10146000826002C08CB581608CBD2C9808958EBDC1
:101470000DB407FEFDCF8EB508959F938F937F9394
:101480006F9387E891E09F938F930E944E0C0F908B
:101490000F900F900F900F900F90089582E891E0B9
:1014A0009F938F930E944E0C0F900F9008958DE79D
:1014B00091E09F938F930E944E0C0F900F90089590
:1014C00088E791E09F938F930E944E0C0F900F90AE
:1014D000089584E791E09F938F930E944E0C0F90A4
:1014E0000F9008959F938F938EE691E09F938F9333
:1014F0000E944E0C0F900F900F900F90089587E66A
:1015000091E09F938F930E944E0C0F900F9008953F
:1015100080E691E09F938F930E944E0C0F900F9066
:1015200008958CE591E09F938F930E944E0C0F904D
:101530000F900895262F062E000C330B3F936F93C8
:10154000282F082E000C330B3F938F9383E591E0F7
:101550009F938F930E944E0C0F900F900F900F90BF
:101560000F900F90089580E591E09F938F930E94D4
:101570004E0C0F900F9008958DE491E09F938F9300
:101580000E944E0C0F900F900895CF93DF93C62FBB
:10159000D42F682F880F770B8C2F0C2E000C990BF3
:1015A0000E943D0A0E94570ADC1734F080E290E066
:1015B0000E94740CCF5FF8CF0E944E0ADF91CF914A
:1015C00008950F931F93CF93DF93C62FD42F062E2A
:1015D000000C770B082E000C990B0E943D0A0E940C
:1015E000570A06E411E080E290E0CD1754F40E941F
:1015F000740C1F930F930E944E0CCF5F0F900F90AF
:10160000F2CF0E94740C0E944E0ADF91CF911F917D
:101610000F910895109268021092690210926A0266
:1016200010926B0216BC8CE787BD82E084BD83E01C
:1016300085BDEEE6F0E080818260808385B38270B4
:1016400085BB08952FB7F894609168027091690284
:1016500080916A0290916B0227FF01C078940895EF
:101660001F920F920FB60F9211242F933F934F9317
:101670005F936F937F938F939F93AF93BF93EF93FA
:10168000FF938091680290916902A0916A02B091E3
:101690006B020196A11DB11D8093680290936902AF
:1016A000A0936A02B0936B020E94CD03811110C017
:1016B0000E944703613D77408105910510F40E9427
:1016C00013060E94B7038932934210F40E94BC03B0
:1016D000FF91EF91BF91AF919F918F917F916F910A
:1016E0005F914F913F912F910F900FBE0F901F90E0
:1016F00018950E9441070E9451070E9492070E947C
:101700009B070E94AA08F9CFAA1BBB1B51E107C087
:10171000AA1FBB1FA617B70710F0A61BB70B881F81
:10172000991F5A95A9F780959095BC01CD01089510
:10173000052E97FB1EF400940E94AF0B57FD07D0B7
:101740000E94EE0B07FC03D04EF40C94AF0B5095A7
:101750004095309521953F4F4F4F5F4F089590959D
:101760008095709561957F4F8F4F9F4F08952F9271
:101770003F924F925F926F927F928F929F92AF9221
:10178000BF92CF92DF92EF92FF920F931F93CF936E
:10179000DF93CDB7DEB7CA1BDB0B0FB6F894DEBF05
:1017A0000FBECDBF09942A88398848885F846E842B
:1017B0007D848C849B84AA84B984C884DF80EE8075
:1017C000FD800C811B81AA81B981CE0FD11D0FB67E
:1017D000F894DEBF0FBECDBFED010895A1E21A2E31
:1017E000AA1BBB1BFD010DC0AA1FBB1FEE1FFF1FC5
:1017F000A217B307E407F50720F0A21BB30BE40B15
:10180000F50B661F771F881F991F1A9469F760955B
:101810007095809590959B01AC01BD01CF01089515
:10182000CF93DF93EC012B8120FF33C026FF0AC04A
:101830002F7B2B838E819F8101969F838E838A814C
:1018400090E029C022FF0FC0E881F9818081082E35
:10185000000C990B009719F420622B831AC0319663
:10186000F983E8830EC0EA85FB85099597FF09C0D7
:101870002B81019611F080E201C080E1822B8B83E5
:1018800008C02E813F812F5F3F4F3F832E839927D2
:1018900002C08FEF9FEFDF91CF910895A0E0B0E0FD
:1018A000E4E5FCE00C94C50BAE01495F5F4FDA0143
:1018B0006D917D91AD0106E814E0F801828193817C
:1018C000DC0113962C911397286013962C930E9499
:1018D0007B0CD8011296ED91FC9113972381277F01
:1018E0002383E4E00C94E10B6091880470918904F7
:1018F0000E94640E0895ACE0B0E0E1E8FCE00C94D6
:10190000B70B6C017B018A01FC011782168283816F
:1019100081FFBEC1CE0101964C01F6019381F70112
:1019200093FD859193FF81917F01882309F4ACC1D8
:10193000853239F493FD859193FF81917F01853242
:1019400029F4B60190E00E94640EE7CF512C312CAF
:1019500020E02032A0F48B3269F030F4803259F06C
:10196000833269F420612CC08D3239F0803339F430
:10197000216026C02260246023C0286021C027FD8A
:1019800027C030ED380F3A3078F426FF06C0FAE071
:101990005F9E300D1124532E13C08AE0389E300D07
:1019A0001124332E20620CC08E3221F426FD6CC12E
:1019B000206406C08C3611F4206802C0883641F4D9
:1019C000F70193FD859193FF81917F018111C1CF33
:1019D000982F9F7D9554933028F40C5F1F4F9FE301
:1019E00099830DC0833631F0833771F0833509F068
:1019F0005BC022C0F801808189830E5F1F4F4424A1
:101A00004394512C540115C03801F2E06F0E711C43
:101A1000F801A080B18026FF03C0652D70E002C0F0
:101A20006FEF7FEFC5012C870E94590E2C018301B7
:101A30002C852F77222E17C03801F2E06F0E711C13
:101A4000F801A080B18026FF03C0652D70E002C0C0
:101A50006FEF7FEFC5012C870E944E0E2C012C8565
:101A60002068222E830123FC1BC0832D90E04816A2
:101A70005906B0F4B60180E290E00E94640E3A94F8
:101A8000F4CFF50127FC859127FE81915F01B60116
:101A900090E00E94640E31103A94F1E04F1A510820
:101AA0004114510471F7E6C0843611F0893639F5D6
:101AB000F80127FF07C060817181828193810C5FEB
:101AC0001F4F08C060817181072E000C880B990B95
:101AD0000E5F1F4F2F76722E97FF09C0909580954D
:101AE000709561957F4F8F4F9F4F2068722E2AE02F
:101AF00030E0A4010E94940EA82EA81844C0853797
:101B000029F42F7EB22E2AE030E025C0F22FF97F93
:101B1000BF2E8F36C1F018F4883579F0B5C0803704
:101B200019F0883721F0B0C02F2F2061B22EB4FEFB
:101B30000DC08B2D8460B82E09C024FF0AC09F2FD2
:101B40009660B92E06C028E030E005C020E130E004
:101B500002C020E132E0F801B7FE07C06081718168
:101B6000828193810C5F1F4F06C06081718180E08C
:101B700090E00E5F1F4FA4010E94940EA82EA8189B
:101B8000FB2DFF777F2E76FE0BC0372D3E7FA514F1
:101B900050F474FE0AC072FC08C0372D3E7E05C0AA
:101BA000BA2C372D03C0BA2C01C0B52C34FF0DC0A0
:101BB000FE01EA0DF11D8081803311F4397E09C0E8
:101BC00032FF06C0B394B39404C0832F867809F023
:101BD000B39433FD13C030FF06C0B31498F43A0C2D
:101BE000532C5B1810C0B31470F4B60180E290E07F
:101BF0003C870E94640EB3943C85F5CFB31418F46F
:101C00003B1802C05A2C312C34FF12C0B60180E3BD
:101C100090E03C870E94640E3C8532FF17C031FD86
:101C200003C088E790E002C088E590E0B6010CC0F0
:101C3000832F867859F031FF02C08BE201C080E229
:101C400037FD8DE2B60190E00E94640EA51438F4D1
:101C5000B60180E390E00E94640E5A94F7CFAA94F4
:101C6000F401EA0DF11D8081B60190E00E94640E3E
:101C7000A110F5CF332009F450CEB60180E290E0F8
:101C80000E94640E3A94F6CFF6018681978102C0D5
:101C90008FEF9FEF2C96E2E10C94D30BFC010590A3
:101CA000615070400110D8F7809590958E0F9F1F5E
:101CB0000895FC016150704001900110D8F78095A3
:101CC00090958E0F9F1F08950F931F93CF93DF93CF
:101CD000182F092FEB018B8181FD03C08FEF9FEF40
:101CE0001EC082FF0FC02E813F818C819D812817ED
:101CF000390774F4E881F981CF01019699838883CB
:101D0000108306C0E885F985812F0995892B31F765
:101D10008E819F8101969F838E83812F902FDF91EB
:101D2000CF911F910F910895FA01AA27283051F100
:101D3000203181F1E8946F936E7F6E5F7F4F8F4FFC
:101D40009F4FAF4FB1E03ED0B4E03CD0670F781F5B
:101D5000891F9A1FA11D680F791F8A1F911DA11D40
:101D60006A0F711D811D911DA11D20D009F4689479
:101D70003F912AE0269F11243019305D3193DEF621
:101D8000CF010895462F4770405D4193B3E00FD0D7
:101D9000C9F7F6CF462F4F70405D4A3318F0495DC2
:101DA00031FD4052419302D0A9F7EACFB4E0A695A5
:101DB0009795879577956795BA95C9F700976105C7
:101DC000710508959B01AC010A2E0694579547951D
:101DD00037952795BA95C9F7620F731F841F951F12
:081DE000A01D0895F894FFCF47
:101DE800FFFFD007FFFFD007FFFF00000003000040
:101DF8000000D208060900007D4545390010387CEE
:101E08003810007D2111217DFEFFFE00FE01FFFE3E
:101E1800FFFFFF00FF01FF0200FE00FF00010002BC
:101E280001FE01FF01000101010202FF020002019F
:101E3800000100FF0100FF00040400050004000089
:101E48000400040400030404030400040404040458
:101E58000300000400000404000000000300000068
:101E68000000000004040404040400040004030443
:101E7800040404040500030503030304040405041F
:101E8800050400000003030400000004000403002C
:101E98000003000300040004000000030004040021
:101EA800040304000400000400000003000004040C
:101EB80000030504000404040003000300000004F8
:101EC80004000004000400040004000400000003EF
:101ED80004040304000300040004000404040400D0
:101EE80003000000000400040504000400000300CF
:101EF80000040000000400000404030405000400BA
:101F080000040304000004040000000404040400A6
:101F180004000000040300040000000300000300A4
:101F28000300030003000004000000040000030095
:081F380004000003030005048E
:00000001FF
