:100000000C949D000C94BA000C94BA000C94BA00A5
:100010000C94BA000C94F2000C94BA000C94BA0040
:100020000C94BA000C94BA000C94BA000C94BA0068
:100030000C94BA000C94BA000C94BA000C94BA0058
:100040000C94DD060C94BA000C94BA000C94BA001F
:100050000C946A050C942A050C94BA000C94BA000E
:100060000C94BA000C94BA000C94BA000C94BA0028
:100070000C94BA000C94BA000C94BA0050726573D8
:1000800073206120627574746F6E20746F207374B6
:1000900061727420616761696E0047414D45204F70
:1000A0005645520053747564656E74206E756D3AD2
:1000B00020343638323233393400435353453230EA
:1000C00031302F373230312070726F6A656374209F
:1000D0006279203C4A696179692057414E473E0068
:1000E0004469616D6F6E64204D696E657273001BAB
:1000F0005B421B5B44001B44001B4D001B5B2564E3
:100100003B256472001B5B72001B5B3F323568004D
:100110001B5B3F32356C001B5B25646D001B5B4B2A
:10012000001B5B324A001B5B376D001B5B306D00B0
:100130001B5B25643B256448000011241FBECFEFE4
:10014000D8E0DEBFCDBF11E0A0E0B1E0E2EDF4E128
:1001500002C005900D92AE3AB107D9F723E0AEEA9E
:10016000B1E001C01D92AC3DB207E1F70E94020769
:100170000C94670A0C940000E8E6F0E0808182604D
:100180008083D99AECE6F0E080818F6080831092C2
:10019000AE0108958091AE01181614F58091AF015B
:1001A0006FB7F89491E0292F30E04091AE01042E12
:1001B000000C550B2417350754F4F901E155FE4F97
:1001C0004081F901E255FE4F40839F5FECCF909153
:1001D000AE0191509093AE0167FF03C078940895EB
:1001E0008FEF08951F920F920FB60F9211242F9345
:1001F0003F934F935F936F937F938F939F93EF936F
:10020000FF9343B14F7080E090E0642F70E0209145
:10021000AE01243004F59B01082E02C035952795C8
:100220000A94E2F720FF17C02091B30130E0082EB6
:1002300002C0359527950A94E2F720FD0CC0E091A5
:10024000AE0121E02E0F2093AE010E2E000CFF0B0D
:10025000E155FE4F8083019684309105C1F64093AD
:10026000B301FF91EF919F918F917F916F915F917A
:100270004F913F912F910F900FBE0F901F901895A7
:100280000E946D030895CF92DF92EF92FF921F9329
:10029000CF93DF93CDB7DEB728970FB6F894DEBFC4
:1002A0000FBECDBF0E946D038EE0C82E81E0D82E18
:1002B00010E0CE0101967C01F60181916F0180FD75
:1002C00002C090EF01C09FE0FE01389687FF02C098
:1002D000908301C01082880F3197EE16FF06B1F7A8
:1002E0001982B701812F0E942D031F5F103121F762
:1002F00028960FB6F894DEBF0FBECDBFDF91CF9129
:100300001F91FF90EF90DF90CF9008958031D8F447
:100310006830C8F4413061F0423061F09DEF940FD5
:10032000923050F0453051F0463051F040E009C075
:100330004FE007C041E005C04FED03C040EF01C0F2
:1003400045E30E94E90208951F93CF93DF93109233
:10035000BE021092BA0181E08093C0021092BF02E7
:100360008093BC024BEB51E06CE372E020E130E0A3
:10037000A0E8B0E0FD01E21BF30BE25DFE4F80E080
:1003800090E0EA01C80FD91F10811883EB01C80F54
:10039000D91F1882019670978830910591F72150E6
:1003A0003109485F5F4F685F7F4F2115310511F7B5
:1003B000DF91CF911F910895803118F481E068306A
:1003C00008F080E00895803160F4683050F498E0DF
:1003D000899FF0011124E554FE4FE60FF11D808145
:1003E000089584E00895CF93DF93C091C002C03197
:1003F000C8F4D091BF02D830A8F48091BC02882301
:1004000031F06D2F8C2F0E94E301482F01C042E094
:100410006D2F8C2F0E9486019091BC0281E0891B78
:100420008093BC02DF91CF9108950F931F93CF93D8
:10043000DF93D82FC62F1091BE02812F8D0F8031F0
:1004400048F50091BA01602F6C0F683018F50E94D2
:10045000E3018350823090F040E0602F812F0E94B2
:1004600086018091BE028D0F8093BE026091BA0119
:100470006C0F6093BA0141E00E9486018091BE0238
:10048000D80FD093C0028091BA01C80FC093BF02A9
:100490000E94F301DF91CF911F910F91089580E0A9
:1004A00008950F931F93CF93DF93182F062F88E0A3
:1004B000189FF0011124E45CFD4FE60FF11D81E06F
:1004C0008083812F0E94E301C82F482F602F812F46
:1004D0000E948601C11103C0CEE1D1E00CC0C5303D
:1004E000E9F4FACF6981600F683050F0229681E01C
:1004F000CE32D80799F08881810F8031B8F7F2CFDA
:1005000098E0899FF0011124E45CFD4FE60FF11D96
:1005100090819111EBCF0E945102E8CFDF91CF91F2
:100520001F910F910895CF93DF930E944001D0E077
:10053000C0E046E06C2F8D2F0E948601CF5FC8304F
:10054000C1F7DF5FD031A1F76091BA018091BE029F
:100550000E94510241E06091BA018091BE020E9466
:10056000860142E06091BF028091C0020E94860134
:10057000DF91CF9108950E94A4010E9493020895F3
:1005800080E80E94BD050895A1E0B0E0EAECF2E049
:100590000C943607182F80E099830E94E405C12E41
:1005A0009981D92E08E0760110E1F70180810E943F
:1005B000E4051150F8E0EF0EF11C1111F6CF0150D7
:1005C0008FEFC81AD80A0111EECF2196E8E00C94FB
:1005D0005207A2E0B0E0EFEEF2E00C943B07182FD8
:1005E000803198F4683088F481E04A8369830E94FE
:1005F000E405698120E1629FC0011124812B0E94E2
:10060000E4054A81842F0E94E4052296E3E00C94DD
:100610005707A2E0B0E0EFE0F3E00C943807182FA2
:100620008830B8F482E069837A830E94E405812FE0
:100630000E94E4056981E62E7A81F72E8701005F2A
:100640001F4FF70181917F010E94E405E016F1063A
:10065000C1F72296E6E00C945407A2E0B0E0E3E391
:10066000F3E00C943807182F8031B8F483E06983E5
:100670007A830E94E405812F0E94E4056981E62EB9
:100680007A81F72E8701085F1F4FF70181917F0163
:100690000E94E405E016F106C1F72296E6E00C940C
:1006A000540784E00E94E40582E00E94E405089576
:1006B00084E00E94E40581E00E94E405089584E05E
:1006C0000E94E40588E00E94E405089584E00E9409
:1006D000E40584E00E94E40508958FE00E94E405AB
:1006E0000895FB019C01285F3F4FDC014D91CD0136
:1006F0004193A217B307C9F70895FB019C01205F3E
:100700003F4FDC014D91CD014193A217B307C9F7CB
:1007100008959C01285F3F4FFC016193CF01E217D0
:10072000F307D1F708959C01205F3F4FFC016193CF
:10073000CF01E217F307D1F708950E94C0020E948B
:10074000BC0040E060E07BE480E090E00E94E104D7
:100750000E94B706789408950E940D066AE070E042
:100760008AE090E00E94EA0580EE90E09F938F93EC
:100770000E94C3076CE070E08AE090E00E94EA0506
:100780008AEB90E09F938F930E94C3076DE070E027
:100790008AE090E00E94EA0584EA90E09F938F93BC
:1007A0000E94C3070E9443010F900F900F900F907B
:1007B0000F900F900E941E05811105C00E94CA0073
:1007C0008F3FC1F308958091D6039091D7030E9483
:1007D00085078F7D833591F708950E940D060E944D
:1007E000BB020E94CA000E9425050895CF92DF92A5
:1007F000EF92FF921F93CF93DF9300D000D0CDB73D
:10080000DEB70E94CF066B017C0124EFC20E21E00F
:10081000D21EE11CF11C0E944F02811143C00E94B4
:10082000CA00182F0E941E058823D9F08091D60394
:100830009091D7030E948507111103C060E081E009
:100840001DC08F7D8434D1F3113011F0813419F43F
:1008500060E08FEF13C0123011F0873549F461E08A
:100860000CC0112359F3113099F31230C1F38FEDFD
:10087000133011F0833521F46FEF80E00E941502F0
:100880000E94CF066C157D058E059F0520F26983B9
:100890007A838B839C830E94F30169817A818B81A7
:1008A0009C81B1CF0F900F900F900F90DF91CF915F
:1008B0001F91FF90EF90DF90CF9008956EE070E071
:1008C0008AE090E00E94EA058AE990E09F938F9386
:1008D0000E94C3076FE070E08AE090E00E94EA05A2
:1008E0008CE790E09F938F930E94C3070F900F9027
:1008F0000F900F900E94CA008F3FE1F30895CF93AD
:10090000C82F8A3019F48DE00E947F048FB7807859
:100910009091C3029F3F29F48111FACF81E090E0CA
:1009200020C0F894E091C20291E09E0F9093C20221
:10093000F0E0EC53FD4FC0839091C3029F5F909312
:10094000C3029091C2029F3F11F41092C202909193
:10095000C10090629093C100882309F0789480E0F0
:1009600090E0CF9108958091D5038823E1F32FB7CC
:100970002078F8948091C3033091D50390E0831BD5
:100980009109E091C30397FF08C08091D503F0E07F
:10099000E81BF109EC52FC4F07C08091D503F0E051
:1009A000E81BF109EC53FC4F80819091D5039150E5
:1009B0009093D503222309F07894082E000C990B0C
:1009C00008951092C2021092C3021092C3031092B3
:1009D000D5031092D4034093B4019B01AC0183E092
:1009E000220F331F441F551F8A95D1F760E072E133
:1009F0008AE790E00E940D07CA01B9016F5F7F4F3F
:100A00008F4F9F4F22E030E040E050E00E940D0702
:100A1000215031093093C5002093C400E1ECF0E08F
:100A200088E18083808180688083E6EDF3E080E068
:100A300091E0938382839183808308959091D5037D
:100A400081E0911101C080E008951092C3031092DB
:100A5000D50308951F920F920FB60F9211242F9372
:100A60008F939F93EF93FF938091C302882319F193
:100A70008091C2022091C30290E0821B9109E09113
:100A8000C20297FF08C08091C302F0E0E81BF109A1
:100A9000ED53FC4F07C08091C302F0E0E81BF10961
:100AA000EC53FD4F90818091C30281508093C3022B
:100AB0009093C60005C08091C1008F7D8093C100D6
:100AC000FF91EF919F918F912F910F900FBE0F90FB
:100AD0001F9018951F920F920FB60F9211242F930B
:100AE0003F934F935F936F937F938F939F93AF93B6
:100AF000BF93CF93EF93FF93C091C6008091B40151
:100B0000882349F08091C3028F3F29F060E070E0B4
:100B10008C2F0E947F048091D503803120F081E0EA
:100B20008093D40318C0CD3009F4CAE0E091C30328
:100B300081E08E0F8093C303F0E0EC53FC4FC08341
:100B40008091D5038F5F8093D5038091C30380315B
:100B500011F41092C303FF91EF91CF91BF91AF9128
:100B60009F918F917F916F915F914F913F912F91C5
:100B70000F900FBE0F901F90189594B1906B94B981
:100B80002C9A90E59CBD883021F0803211F08230A3
:100B900019F491E09DBD01C01DBC803269F028F4BC
:100BA000883069F0803159F00DC0803429F08038E8
:100BB00049F48CB581608CBD8CB5826002C08CB567
:100BC00081608CBD2C9808958EBD0DB407FEFDCFBD
:100BD0008EB508959F938F937F936F9380E391E0F9
:100BE0009F938F930E94C3070F900F900F900F90C9
:100BF0000F900F9008958BE291E09F938F930E9446
:100C0000C3070F900F90089586E291E09F938F9312
:100C10000E94C3070F900F90089581E291E09F9387
:100C20008F930E94C3070F900F9008958DE191E07C
:100C30009F938F930E94C3070F900F9008959F93E7
:100C40008F9387E191E09F938F930E94C3070F904A
:100C50000F900F900F90089580E191E09F938F93F4
:100C60000E94C3070F900F90089589E091E09F9331
:100C70008F930E94C3070F900F90089585E091E035
:100C80009F938F930E94C3070F900F900895262F74
:100C9000062E000C330B3F936F93282F082E000C69
:100CA000330B3F938F938CEF90E09F938F930E9431
:100CB000C3070F900F900F900F900F900F90089513
:100CC00089EF90E09F938F930E94C3070F900F903E
:100CD000089586EF90E09F938F930E94C3070F9033
:100CE0000F900895CF93DF93C62FD42F682F880FCE
:100CF000770B8C2F0C2E000C990B0E94EA050E949A
:100D00000406DC1734F080E290E00E94E907CF5F30
:100D1000F8CF0E94FB05DF91CF9108950F931F93A9
:100D2000CF93DF93C62FD42F062E000C770B082EFF
:100D3000000C990B0E94EA050E9404060FEE10E0D9
:100D400080E290E0CD1754F40E94E9071F930F93BF
:100D50000E94C307CF5F0F900F90F2CF0E94E90768
:100D60000E94FB05DF91CF911F910F910895109282
:100D7000B5011092B6011092B7011092B80116BCDD
:100D80008CE787BD82E084BD83E085BDEEE6F0E0C0
:100D900080818260808385B3827085BB08952FB780
:100DA000F8946091B5017091B6018091B70190916E
:100DB000B80127FF01C0789408951F920F920FB6D3
:100DC0000F9211248F939F93AF93BF938091B5019E
:100DD0009091B601A091B701B091B8010196A11D03
:100DE000B11D8093B5019093B601A093B701B09364
:100DF000B801BF91AF919F918F910F900FBE0F904F
:100E00001F9018950E949D030E94AC030E94ED0361
:100E10000E94F6030E945E04F9CF052E97FB1EF494
:100E200000940E94240757FD07D00E94630707FC27
:100E300003D04EF40C94240750954095309521959D
:100E40003F4F4F4F5F4F08959095809570956195F6
:100E50007F4F8F4F9F4F08952F923F924F925F92F7
:100E60006F927F928F929F92AF92BF92CF92DF92BA
:100E7000EF92FF920F931F93CF93DF93CDB7DEB71F
:100E8000CA1BDB0B0FB6F894DEBF0FBECDBF0994B3
:100E90002A88398848885F846E847D848C849B840A
:100EA000AA84B984C884DF80EE80FD800C811B8118
:100EB000AA81B981CE0FD11D0FB6F894DEBF0FBE47
:100EC000CDBFED010895A1E21A2EAA1BBB1BFD01A7
:100ED0000DC0AA1FBB1FEE1FFF1FA217B307E40719
:100EE000F50720F0A21BB30BE40BF50B661F771F71
:100EF000881F991F1A9469F7609570958095909551
:100F00009B01AC01BD01CF010895CF93DF93EC01AC
:100F10002B8120FF33C026FF0AC02F7B2B838E81BD
:100F20009F8101969F838E838A8190E029C022FF52
:100F30000FC0E881F9818081082E000C990B009781
:100F400019F420622B831AC03196F983E8830EC00E
:100F5000EA85FB85099597FF09C02B81019611F061
:100F600080E201C080E1822B8B8308C02E813F810B
:100F70002F5F3F4F3F832E83992702C08FEF9FEF54
:100F8000DF91CF910895A0E0B0E0E9ECF7E00C9498
:100F90003A07AE01495F5F4FDA016D917D91AD0176
:100FA00006ED13E0F80182819381DC0113962C9108
:100FB0001397286013962C930E94F007D80112967D
:100FC000ED91FC9113972381277F2383E4E00C9418
:100FD00056076091D8037091D9030E94D9090895EA
:100FE000ACE0B0E0E6EFF7E00C942C076C017B017D
:100FF0008A01FC0117821682838181FFBEC1CE0166
:1010000001964C01F6019381F70193FD859193FFC1
:1010100081917F01882309F4ACC1853239F493FDB5
:10102000859193FF81917F01853229F4B60190E08B
:101030000E94D909E7CF512C312C20E02032A0F4B6
:101040008B3269F030F4803259F0833269F42061D8
:101050002CC08D3239F0803339F4216026C02260F3
:10106000246023C0286021C027FD27C030ED380F41
:101070003A3078F426FF06C0FAE05F9E300D112466
:10108000532E13C08AE0389E300D1124332E206277
:101090000CC08E3221F426FD6CC1206406C08C3653
:1010A00011F4206802C0883641F4F70193FD859160
:1010B00093FF81917F018111C1CF982F9F7D95541E
:1010C000933028F40C5F1F4F9FE399830DC0833644
:1010D00031F0833771F0833509F05BC022C0F8012D
:1010E000808189830E5F1F4F44244394512C540107
:1010F00015C03801F2E06F0E711CF801A080B180BC
:1011000026FF03C0652D70E002C06FEF7FEFC501C1
:101110002C870E94CE092C0183012C852F77222E4B
:1011200017C03801F2E06F0E711CF801A080B18089
:1011300026FF03C0652D70E002C06FEF7FEFC50191
:101140002C870E94C3092C012C852068222E830144
:1011500023FC1BC0832D90E048165906B0F4B6015D
:1011600080E290E00E94D9093A94F4CFF50127FC7F
:10117000859127FE81915F01B60190E00E94D90917
:1011800031103A94F1E04F1A51084114510471F7AB
:10119000E6C0843611F0893639F5F80127FF07C01B
:1011A00060817181828193810C5F1F4F08C06081D3
:1011B0007181072E000C880B990B0E5F1F4F2F7645
:1011C000722E97FF09C090958095709561957F4F1D
:1011D0008F4F9F4F2068722E2AE030E0A4010E94BA
:1011E000090AA82EA81844C0853729F42F7EB22EEC
:1011F0002AE030E025C0F22FF97FBF2E8F36C1F0F4
:1012000018F4883579F0B5C0803719F0883721F0A7
:10121000B0C02F2F2061B22EB4FE0DC08B2D846084
:10122000B82E09C024FF0AC09F2F9660B92E06C0B1
:1012300028E030E005C020E130E002C020E132E0EB
:10124000F801B7FE07C060817181828193810C5FD4
:101250001F4F06C06081718180E090E00E5F1F4FDC
:10126000A4010E94090AA82EA818FB2DFF777F2E43
:1012700076FE0BC0372D3E7FA51450F474FE0AC0D5
:1012800072FC08C0372D3E7E05C0BA2C372D03C036
:10129000BA2C01C0B52C34FF0DC0FE01EA0DF11DC2
:1012A0008081803311F4397E09C032FF06C0B394C7
:1012B000B39404C0832F867809F0B39433FD13C030
:1012C00030FF06C0B31498F43A0C532C5B1810C0CE
:1012D000B31470F4B60180E290E03C870E94D90913
:1012E000B3943C85F5CFB31418F43B1802C05A2CC4
:1012F000312C34FF12C0B60180E390E03C870E949D
:10130000D9093C8532FF17C031FD03C088E790E062
:1013100002C088E590E0B6010CC0832F867859F0B2
:1013200031FF02C08BE201C080E237FD8DE2B601E1
:1013300090E00E94D909A51438F4B60180E390E04A
:101340000E94D9095A94F7CFAA94F401EA0DF11D2D
:101350008081B60190E00E94D909A110F5CF332019
:1013600009F450CEB60180E290E00E94D9093A9487
:10137000F6CFF6018681978102C08FEF9FEF2C9602
:10138000E2E10C944807FC010590615070400110A7
:10139000D8F7809590958E0F9F1F0895FC0161509E
:1013A000704001900110D8F7809590958E0F9F1F87
:1013B00008950F931F93CF93DF93182F092FEB01FD
:1013C0008B8181FD03C08FEF9FEF1EC082FF0FC096
:1013D0002E813F818C819D812817390774F4E88123
:1013E000F981CF01019699838883108306C0E8852F
:1013F000F985812F0995892B31F78E819F8101967F
:101400009F838E83812F902FDF91CF911F910F911A
:101410000895FA01AA27283051F1203181F1E8948A
:101420006F936E7F6E5F7F4F8F4F9F4FAF4FB1E0D7
:101430003ED0B4E03CD0670F781F891F9A1FA11DD2
:10144000680F791F8A1F911DA11D6A0F711D811DD3
:10145000911DA11D20D009F468943F912AE0269F98
:1014600011243019305D3193DEF6CF010895462FF7
:101470004770405D4193B3E00FD0C9F7F6CF462FD8
:101480004F70405D4A3318F0495D31FD4052419341
:1014900002D0A9F7EACFB4E0A695979587957795FE
:1014A0006795BA95C9F700976105710508959B0185
:1014B000AC010A2E06945795479537952795BA950E
:1014C000C9F7620F731F841F951FA01D0895F8941C
:0214D000FFCF4C
:1014D20000000003000000007F04B30400007D450B
:1014E20045390010387C3810007D2111217D000122
:1014F20000FF0100FF0000000000000000000003E8
:1015020000030000000404000004000400040004BE
:1015120000040000000304040304000300040004A8
:101522000004040404000300000000040004050495
:101532000004000003000004000000040000040492
:101542000304050004000004030400000404000076
:10155200000404040400040000000403000400006A
:101562000003000003000300030003000004000066
:0E157200000400000300040000030300050451
:00000001FF
