:100000000C94BE000C94DB000C94DB000C94DB0021
:100010000C94DB000C9413010C94DB000C94DB00BB
:100020000C94DB000C94DB000C94DB000C94DB00E4
:100030000C94DB000C94DB000C94DB000C94DB00D4
:100040000C94190A0C94DB000C94DB000C94DB007C
:100050000C94A6080C9466080C94DB000C94DB004E
:100060000C94DB000C94DB000C94DB000C94DB00A4
:100070000C94DB000C94DB000C94DB004469616D94
:100080006F6E64733A202564004469616D6F6E641D
:10009000733A202564004368656174206F666600CA
:1000A0004368656174206F6E0050726573732061E0
:1000B00020627574746F6E20746F20737461727433
:1000C00020616761696E0047414D45204F5645529A
:1000D000004469616D6F6E64733A20300043686557
:1000E0006174206F66660053747564656E74206E6B
:1000F000756D3A2034363832323339340043535335
:1001000045323031302F373230312070726F6A65AE
:100110006374206279203C4A696179692057414EB5
:10012000473E004469616D6F6E64204D696E657273
:1001300073001B5B421B5B44001B44001B4D001BF8
:100140005B25643B256472001B5B72001B5B3F32C6
:100150003568001B5B3F32356C001B5B25646D000E
:100160001B5B4B001B5B324A001B5B376D001B5B4C
:10017000306D001B5B25643B2564480011241FBEC5
:10018000CFEFD8E0DEBFCDBF12E0A0E0B1E0E4E801
:10019000FBE102C005900D92A035B107D9F724E02C
:1001A000A0E5B2E001C01D92A538B207E1F70E94B8
:1001B0005B0A0C94C00D0C940000E8E6F0E080812E
:1001C00082608083D99AECE6F0E080818F60808342
:1001D00010925002089580915002181614F58091E3
:1001E00051026FB7F89491E0292F30E0409150020E
:1001F000042E000C550B2417350754F4F901EF5A5F
:10020000FD4F4081F901E05BFD4F40839F5FECCFE4
:100210009091500291509093500267FF03C07894E0
:1002200008958FEF08951F920F920FB60F92112429
:100230002F933F934F935F936F937F938F939F93EE
:10024000EF93FF9343B14F7080E090E0642F70E034
:1002500020915002243004F59B01082E02C03595F0
:1002600027950A94E2F720FF17C02091550230E04D
:10027000082E02C0359527950A94E2F720FD0CC0A0
:10028000E091500221E02E0F209350020E2E000C20
:10029000FF0BEF5AFD4F8083019684309105C1F624
:1002A00040935502FF91EF919F918F917F916F91B4
:1002B0005F914F913F912F910F900FBE0F901F9024
:1002C00018950E94FA050895CF92DF92EF92FF925F
:1002D0001F93CF93DF93CDB7DEB728970FB6F8946F
:1002E000DEBF0FBECDBF0E94FA0580E1C82E81E0BF
:1002F000D82E10E0CE0101967C01F60181916F01AC
:1003000080FD02C090EF01C09FE0FE01389687FF9C
:1003100002C0908301C01082880F3197EE16FF064D
:10032000B1F71982B701812F0E94BA051F5F103102
:1003300021F728960FB6F894DEBF0FBECDBFDF9130
:10034000CF911F91FF90EF90DF90CF900895803173
:1003500018F5683008F5413081F0423081F09DEFAA
:10036000940F923070F0453071F0463071F04730A4
:1003700071F0483071F040E00DC04FE00BC041E03B
:1003800009C04FED07C040EF05C045E303C04CE393
:1003900001C041E10E9476050895EF92FF921F93FC
:1003A000CF93DF93109267031092630281E08093F2
:1003B0006A03109268038093660310915802A0E5C7
:1003C000B1E060ED71E020E030E0C9018A519D4F5D
:1003D0007C01F901EC59FD4F40E050E0CA01805921
:1003E0009F4F112319F08A0F9B1F02C0860F971F82
:1003F000EC0188818083E70119927E014051510907
:1004000031964038DFEF5D0749F711966F5F7F4FF8
:10041000285F3F4F20383105C1F6DF91CF911F9102
:10042000FF90EF900895803118F481E0683008F073
:1004300080E00895803160F4683050F498E0899F3E
:10044000F0011124EC59FD4FE60FF11D8081089554
:1004500084E00895CF93DF93C0916A03C031D0F454
:10046000D0916803D830B0F480916603882331F0CE
:100470006D2F8C2F0E941A02482F01C042E06D2F71
:100480008C2F0E94A70181E090916603911180E07A
:1004900080936603DF91CF9108950E94490990915E
:1004A0005D0281E06AE070E0892780935D02882325
:1004B00039F08AE090E00E94260980EA90E006C0C8
:1004C0008AE090E00E94260986E990E09F938F934E
:1004D0000E941C0B0F900F906CE070E08AE090E09F
:1004E0000E94260980915C021F928F9389E890E018
:1004F0009F938F930E941C0B0F900F900F900F9063
:100500000895CF93DF93C82FD62F0E941A0285300B
:1005100011F580915C028F5F80935C0288E0C89F38
:10052000F0011124EC59FD4FED0FF11D10826CE02C
:1005300070E08AE090E00E94260980915C021F92A0
:100540008F938CE790E09F938F930E941C0B0F90EA
:100550000F900F900F90DF91CF910895A0E0B0E041
:10056000E4EBF2E00C948B0A88E18093E502C09002
:100570006703A0906302E12CF12CD12CB12C8E2CBE
:1005800086010E191F0917FF03C011950195110966
:10059000902EC0E0D0E06C2F882D0E941A0285308A
:1005A000A1F4C5018C1B9D0B97FF03C0919581950C
:1005B00091092091E50230E0A801480F591F421728
:1005C00053071CF4890D8093E5022196C830D105AC
:1005D00011F78FEFE81AF80A80E1E816F10479F6CE
:1005E0008091E502CDB7DEB7ECE00C94A70A8091CC
:1005F0005B02882311F0479A01C018B881E09091FE
:100600005B02911180E080935B020895809100016C
:1006100090910101019671F480ED97E090930101B2
:100620008093000180916703809369038091630246
:100630008093E4020895609100017091010180E0CF
:1006400090E00895EF92FF920F931F93CF93DF9363
:100650008FEF9FEF909301018093000140E0609144
:10066000E402809169030E94A70108E411E080E59B
:10067000E82E81E0F82EF801C08180916903C80F4F
:10068000D1818091E402D80F6D2F8C2F0E941A0225
:100690008B7F833071F488E0C89FF0011124EC59FE
:1006A000FD4FED0FF11D108240E06D2F8C2F0E9449
:1006B000A7016D2F8C2F0E941A02813021F48093A4
:1006C0005A02109257020E5F1F4FE016F10699F67C
:1006D0006091E402809169030E941A02813021F442
:1006E00080935A0210925702CDB7DEB7E6E00C9421
:1006F000AD0A809100019091010101979093010151
:1007000080930001892B11F40E9422030895909197
:10071000590281E0892780935902089580915902F6
:10072000089580915A02089510925A0210925D0223
:1007300010925C021092570208958091E00281307D
:1007400099F42091580290915C02222329F096306E
:1007500059F41092580204C0933031F48093580237
:1007600080935A028093570208958091570208950A
:100770009091560281E08927809356020895EF9266
:10078000FF920F931F93CF93DF93F82E00E211E0B7
:10079000EE24E394F801C08180916703C80FC03153
:1007A00040F5D18180916302D80FD83010F5FF2039
:1007B000B9F088E0C89FF0011124EA51FD4FED0F18
:1007C000F11DE08280916903C81304C08091E402A6
:1007D000D81779F06D2F8C2F0E941A02482F05C070
:1007E000C33010F4D33028F046E06D2F8C2F0E94D8
:1007F000A7010E5F1F4FE1E008341E0759F6CDB781
:10080000DEB7E6E00C94AD0A0F931F93CF93DF930E
:10081000C82FD62F0091630210916703602F6D0FD0
:10082000812F8C0F0E941A029DEF980F212F30E02C
:10083000923008F457C0873009F454C0F90183E0BE
:10084000EE0FFF1F8A95E1F7EC59FD4FE00FF11D08
:10085000108240E0602F812F0E94A70180E00E945B
:10086000BF03809167038C0F8093670360916302DD
:100870006D0F609363020E94810280916703609113
:10088000630228E0829FF0011124EC59FD4FE60F2E
:10089000F11D91E0908341E00E94A7010E94AE0209
:1008A000853008F018B880910001909101010196FF
:1008B00089F08091690390916703981306C0209195
:1008C00063029091E402291729F048E06091E40264
:1008D0000E94A70180915602882359F081E00E946E
:1008E000BF0307C02C0F311D2031310511F40E94C8
:1008F0009D030091680310916A03602F812F0E946D
:100900001A02482F602F812F0E94A7018091670350
:10091000C80FC0936A0380916302D80FD093680315
:100920000E942A02DF91CF911F910F9108950F939A
:100930001F93CF93DF93182F062F88E0189FF001A5
:100940001124EA51FD4FE60FF11D81E08083812FD4
:100950000E941A02C82F482F602F812F0E94A701E2
:10096000C11103C0C8E4D1E00CC0C530E9F4FACF2E
:100970006981600F683050F0229681E0C035D80759
:1009800099F08881810F8031B8F7F2CF98E0899F84
:10099000F0011124EA51FD4FE60FF11D90819111F4
:1009A000EBCF0E949704E8CFDF91CF911F910F9179
:1009B0000895CF93DF930E946101D0E0C0E046E04C
:1009C0006C2F8D2F0E94A701CF5FC830C1F7DF5F6A
:1009D000D031A1F760916302809167030E94970470
:1009E00041E060916302809167030E94A70142E0A9
:1009F0006091680380916A030E94A701DF91CF9103
:100A000008950E94CD010E94D9040895CF93DF93E9
:100A100080915D028823F1F0D0916803C0916A0350
:100A20006D2F8C2F0E941A028730A1F488E0C89F96
:100A3000F0011124EC59FD4FED0FF11D108240E043
:100A40006D2F8C2F0E94A7016091680380916A032B
:100A50000E949704DF91CF910895CF93DF93D091B7
:100A60006803C0916A036D2F8C2F0E941A02833095
:100A700079F488E0C89FF0011124EC59FD4FED0F87
:100A8000F11D87E0808347E06D2F8C2F0E94A70126
:100A90000E940605DF91CF91089580E80E94F90831
:100AA0000895A1E0B0E0E7E5F5E00C948F0A182F77
:100AB00080E099830E942009C12E9981D92E08E0F7
:100AC000760110E1F70180810E9420091150F8E0C1
:100AD000EF0EF11C1111F6CF01508FEFC81AD80A92
:100AE0000111EECF2196E8E00C94AB0AA2E0B0E051
:100AF000ECE7F5E00C94940A182F803198F46830F4
:100B000088F481E04A8369830E942009698120E199
:100B1000629FC0011124812B0E9420094A81842FE9
:100B20000E9420092296E3E00C94B00AA2E0B0E013
:100B3000ECE9F5E00C94910A182F8830B8F482E0C3
:100B400069837A830E942009812F0E94200969818C
:100B5000E62E7A81F72E8701005F1F4FF701819102
:100B60007F010E942009E016F106C1F72296E6E017
:100B70000C94AD0AA2E0B0E0E0ECF5E00C94910A30
:100B8000182F8031B8F483E069837A830E942009AA
:100B9000812F0E9420096981E62E7A81F72E870134
:100BA000085F1F4FF70181917F010E942009E01625
:100BB000F106C1F72296E6E00C94AD0A84E00E94AB
:100BC000200982E00E942009089584E00E94200903
:100BD00081E00E942009089584E00E94200988E0B5
:100BE0000E942009089584E00E94200984E00E9468
:100BF000200908958FE00E9420090895FB019C01BF
:100C0000285F3F4FDC014D91CD014193A217B307FF
:100C1000C9F70895FB019C01205F3F4FDC014D9116
:100C2000CD014193A217B307C9F708959C01285F2E
:100C30003F4FFC016193CF01E217F307D1F708950D
:100C40009C01205F3F4FFC016193CF01E217F30746
:100C5000D1F708950E944D050E94DD0040E060E05C
:100C60007BE480E090E00E941D080E94F3093F9A17
:100C7000789408950E9449096AE070E08AE090E063
:100C80000E94260983E291E09F938F930E941C0BA0
:100C90006CE070E08AE090E00E9426098DEF90E021
:100CA0009F938F930E941C0B6EE070E08AE090E0AF
:100CB0000E94260987EE90E09F938F930E941C0B61
:100CC0000E9464010F900F900F900F900F900F9063
:100CD0000E945A08811105C00E94EB008F3FC1F3AA
:100CE000089580917F04909180040E94DE0A8F7D98
:100CF000833591F708950E9449090E9401050E94D9
:100D0000EB000E94610808954F925F926F927F926C
:100D10008F929F92AF92BF92CF92DF92EF92FF920B
:100D2000CF93DF930E940B0A2B013C016AE070E035
:100D30008AE090E00E9426098DED90E09F938F93CA
:100D40000E941C0B6CE070E08AE090E00E94260993
:100D500081ED90E09F938F930E941C0B0F900F905A
:100D60000F900F90530142010E9491038111CCC05A
:100D70000E948E03882329F00E945A088823A1F339
:100D8000B6C00E9491038111F7CF0E94EB00D82FCB
:100D90000E945A08882371F080917F04909180040A
:100DA0000E94DE0AC82FDD2341F0843631F08434FE
:100DB00021F006C0D1110AC0CFEF60E081E01EC073
:100DC000D13039F08F7D813421F006C0D13049F423
:100DD000CFEF60E08FEF12C0D23031F0873521F0D5
:100DE00007C0D23019F4CFEF61E007C08FEDCFEF2D
:100DF000D33011F0833521F46FEF80E00E940404BA
:100E0000DC2FDF7DD53419F40E942D051AC0D334B0
:100E100019F40E944D0215C0C03219F40E94060355
:100E200005C0D03519F40E9487030BC0D63449F4AD
:100E30000E94B803882311F081E001C080E00E9485
:100E4000BF030E940B0A6B017C01D301C2018C50CD
:100E50009E4FAF4FBF4FC816D906EA06FB0620F0DB
:100E60000E942A02260137010E94AE02843081F4DA
:100E7000D501C40184529A4FAF4FBF4FC816D9064F
:100E8000EA06FB0628F00E94F7024601570170CFE0
:100E90000E94AE02833059F4D501C40188519C4FA1
:100EA000AF4FBF4FC816D906EA06FB0660F70E948F
:100EB000AE02823059F4D501C4018C509E4FAF4F21
:100EC000BF4FC816D906EA06FB06E8F60E94AE0236
:100ED000813009F04DCFD501C40186509F4FAF4FEF
:100EE000BF4FC816D906EA06FB0668F641CF8091C7
:100EF0007F04909180040E94DE0A8F7D803509F086
:100F000033CF0E94870330CFDF91CF91FF90EF90D6
:100F1000DF90CF90BF90AF909F908F907F906F9019
:100F20005F904F9008950E94B503882319F00E94A6
:100F3000940308956EE070E08AE090E00E94260934
:100F400087EC90E09F938F930E941C0B6FE070E002
:100F50008AE090E00E94260989EA90E09F938F93AF
:100F60000E941C0B0F900F900F900F900E94EB00AF
:100F70008F3FE1F3DCCFCF93C82F8A3019F48DE097
:100F80000E94BB078FB7807890916C039F3F29F434
:100F90008111FACF81E090E020C0F894E0916B03DA
:100FA00091E09E0F90936B03F0E0E359FC4FC083F8
:100FB00090916C039F5F90936C0390916B039F3FA4
:100FC00011F410926B039091C10090629093C10054
:100FD000882309F0789480E090E0CF910895809183
:100FE0007E048823E1F32FB72078F89480916C0475
:100FF00030917E0490E0831B9109E0916C0497FF8F
:1010000008C080917E04F0E0E81BF109E358FB4F33
:1010100007C080917E04F0E0E81BF109E359FB4F23
:10102000808190917E04915090937E04222309F058
:101030007894082E000C990B089510926B0310926F
:101040006C0310926C0410927E0410927D04409305
:101050005E029B01AC0183E0220F331F441F551F2A
:101060008A95D1F760E072E18AE790E00E94660A13
:10107000CA01B9016F5F7F4F8F4F9F4F22E030E071
:1010800040E050E00E94660A215031093093C500CB
:101090002093C400E1ECF0E088E1808380818068E7
:1010A0008083EFE7F4E082E091E093838283918391
:1010B0008083089590917E0481E0911101C080E0C9
:1010C000089510926C0410927E0408951F920F925E
:1010D0000FB60F9211242F938F939F93EF93FF934B
:1010E00080916C03882319F180916B0320916C032C
:1010F00090E0821B9109E0916B0397FF08C08091FB
:101100006C03F0E0E81BF109E459FB4F07C0809144
:101110006C03F0E0E81BF109E359FC4F90818091EA
:101120006C03815080936C039093C60005C080913E
:10113000C1008F7D8093C100FF91EF919F918F91AE
:101140002F910F900FBE0F901F9018951F920F9226
:101150000FB60F9211242F933F934F935F936F938A
:101160007F938F939F93AF93BF93CF93EF93FF930F
:10117000C091C60080915E02882349F080916C0383
:101180008F3F29F060E070E08C2F0E94BB078091B8
:101190007E04803120F081E080937D0418C0CD3042
:1011A00009F4CAE0E0916C0481E08E0F80936C0436
:1011B000F0E0E359FB4FC08380917E048F5F809302
:1011C0007E0480916C04803111F410926C04FF91C4
:1011D000EF91CF91BF91AF919F918F917F916F913F
:1011E0005F914F913F912F910F900FBE0F901F90E5
:1011F000189594B1906B94B92C9A90E59CBD883069
:1012000021F0803211F0823019F491E09DBD01C0CF
:101210001DBC803269F028F4883069F0803159F0C3
:101220000DC0803429F0803849F48CB581608CBDC4
:101230008CB5826002C08CB581608CBD2C980895FD
:101240008EBD0DB407FEFDCF8EB508959F938F938D
:101250007F936F9383E791E09F938F930E941C0B82
:101260000F900F900F900F900F900F9008958EE6B3
:1012700091E09F938F930E941C0B0F900F90089505
:1012800089E691E09F938F930E941C0B0F900F9023
:10129000089584E691E09F938F930E941C0B0F901A
:1012A0000F90089580E691E09F938F930E941C0B0E
:1012B0000F900F9008959F938F938AE591E09F93ED
:1012C0008F930E941C0B0F900F900F900F9008951A
:1012D00083E591E09F938F930E941C0B0F900F90DA
:1012E00008958CE491E09F938F930E941C0B0F90C4
:1012F0000F90089588E491E09F938F930E941C0BB8
:101300000F900F900895262F062E000C330B3F935D
:101310006F93282F082E000C330B3F938F938FE38E
:1013200091E09F938F930E941C0B0F900F900F9052
:101330000F900F900F9008958CE391E09F938F93FF
:101340000E941C0B0F900F90089589E391E09F93EA
:101350008F930E941C0B0F900F900895CF93DF93F3
:10136000C62FD42F682F880F770B8C2F0C2E000CD4
:10137000990B0E9426090E944009DC1734F080E294
:1013800090E00E94420BCF5FF8CF0E943709DF91B7
:10139000CF9108950F931F93CF93DF93C62FD42F30
:1013A000062E000C770B082E000C990B0E942609C4
:1013B0000E94400902E311E080E290E0CD1754F46E
:1013C0000E94420B1F930F930E941C0BCF5F0F9044
:1013D0000F90F2CF0E94420B0E943709DF91CF910C
:1013E0001F910F91089510925F0210926002109267
:1013F00061021092620216BC8CE787BD82E084BD58
:1014000083E085BDEEE6F0E080818260808385B375
:10141000827085BB08952FB7F89460915F02709138
:101420006002809161029091620227FF01C078946E
:1014300008951F920F920FB60F9211242F933F938E
:101440004F935F936F937F938F939F93AF93BF93CC
:10145000EF93FF9380915F0290916002A0916102EF
:10146000B09162020196A11DB11D80935F0290931D
:101470006002A0936102B09362020E941B03613D6F
:1014800077408105910530F40E948E03811102C0DE
:101490000E947903FF91EF91BF91AF919F918F913E
:1014A0007F916F915F914F913F912F910F900FBE60
:1014B0000F901F9018950E942A060E943A060E94DB
:1014C0007B060E9484060E949307F9CF052E97FBA6
:1014D0001EF400940E947D0A57FD07D00E94BC0AAA
:1014E00007FC03D04EF40C947D0A5095409530953E
:1014F00021953F4F4F4F5F4F089590958095709580
:1015000061957F4F8F4F9F4F08952F923F924F923B
:101510005F926F927F928F929F92AF92BF92CF9283
:10152000DF92EF92FF920F931F93CF93DF93CDB78C
:10153000DEB7CA1BDB0B0FB6F894DEBF0FBECDBF04
:1015400009942A88398848885F846E847D848C84D5
:101550009B84AA84B984C884DF80EE80FD800C81DE
:101560001B81AA81B981CE0FD11D0FB6F894DEBFC1
:101570000FBECDBFED010895A1E21A2EAA1BBB1B21
:10158000FD010DC0AA1FBB1FEE1FFF1FA217B3074F
:10159000E407F50720F0A21BB30BE40BF50B661F65
:1015A000771F881F991F1A9469F760957095809529
:1015B00090959B01AC01BD01CF010895CF93DF93BE
:1015C000EC012B8120FF33C026FF0AC02F7B2B8329
:1015D0008E819F8101969F838E838A8190E029C0AE
:1015E00022FF0FC0E881F9818081082E000C990B41
:1015F000009719F420622B831AC03196F983E8838F
:101600000EC0EA85FB85099597FF09C02B810196DD
:1016100011F080E201C080E1822B8B8308C02E8113
:101620003F812F5F3F4F3F832E83992702C08FEF6B
:101630009FEFDF91CF910895A0E0B0E0E2E2FBE000
:101640000C94930AAE01495F5F4FDA016D917D9171
:10165000AD010FE714E0F80182819381DC0113965C
:101660002C911397286013962C930E94490BD80154
:101670001296ED91FC9113972381277F2383E4E059
:101680000C94AF0A60918104709182040E94320D23
:101690000895ACE0B0E0EFE4FBE00C94850A6C0147
:1016A0007B018A01FC0117821682838181FFBEC102
:1016B000CE0101964C01F6019381F70193FD8591CE
:1016C00093FF81917F01882309F4ACC1853239F4FD
:1016D00093FD859193FF81917F01853229F4B601B5
:1016E00090E00E94320DE7CF512C312C20E02032C7
:1016F000A0F48B3269F030F4803259F0833269F40F
:1017000020612CC08D3239F0803339F4216026C03D
:101710002260246023C0286021C027FD27C030ED4F
:10172000380F3A3078F426FF06C0FAE05F9E300D9D
:101730001124532E13C08AE0389E300D1124332E0D
:1017400020620CC08E3221F426FD6CC1206406C0DC
:101750008C3611F4206802C0883641F4F70193FDFD
:10176000859193FF81917F018111C1CF982F9F7D3A
:101770009554933028F40C5F1F4F9FE399830DC05D
:10178000833631F0833771F0833509F05BC022C0B6
:10179000F801808189830E5F1F4F44244394512CAC
:1017A000540115C03801F2E06F0E711CF801A080E1
:1017B000B18026FF03C0652D70E002C06FEF7FEFA0
:1017C000C5012C870E94270D2C0183012C852F77C2
:1017D000222E17C03801F2E06F0E711CF801A080B4
:1017E000B18026FF03C0652D70E002C06FEF7FEF70
:1017F000C5012C870E941C0D2C012C852068222EEF
:10180000830123FC1BC0832D90E048165906B0F4D9
:10181000B60180E290E00E94320D3A94F4CFF501D7
:1018200027FC859127FE81915F01B60190E00E941F
:10183000320D31103A94F1E04F1A5108411451041D
:1018400071F7E6C0843611F0893639F5F80127FFC3
:1018500007C060817181828193810C5F1F4F08C036
:1018600060817181072E000C880B990B0E5F1F4F52
:101870002F76722E97FF09C090958095709561958F
:101880007F4F8F4F9F4F2068722E2AE030E0A401D7
:101890000E94620DA82EA81844C0853729F42F7E17
:1018A000B22E2AE030E025C0F22FF97FBF2E8F360E
:1018B000C1F018F4883579F0B5C0803719F0883751
:1018C00021F0B0C02F2F2061B22EB4FE0DC08B2DA1
:1018D0008460B82E09C024FF0AC09F2F9660B92EDD
:1018E00006C028E030E005C020E130E002C020E181
:1018F00032E0F801B7FE07C0608171818281938177
:101900000C5F1F4F06C06081718180E090E00E5F28
:101910001F4FA4010E94620DA82EA818FB2DFF776F
:101920007F2E76FE0BC0372D3E7FA51450F474FE3B
:101930000AC072FC08C0372D3E7E05C0BA2C372D78
:1019400003C0BA2C01C0B52C34FF0DC0FE01EA0D56
:10195000F11D8081803311F4397E09C032FF06C049
:10196000B394B39404C0832F867809F0B39433FD05
:1019700013C030FF06C0B31498F43A0C532C5B1814
:1019800010C0B31470F4B60180E290E03C870E946E
:10199000320DB3943C85F5CFB31418F43B1802C054
:1019A0005A2C312C34FF12C0B60180E390E03C8702
:1019B0000E94320D3C8532FF17C031FD03C088E71D
:1019C00090E002C088E590E0B6010CC0832F8678D5
:1019D00059F031FF02C08BE201C080E237FD8DE299
:1019E000B60190E00E94320DA51438F4B60180E3F0
:1019F00090E00E94320D5A94F7CFAA94F401EA0DB8
:101A0000F11D8081B60190E00E94320DA110F5CF4A
:101A1000332009F450CEB60180E290E00E94320DEE
:101A20003A94F6CFF6018681978102C08FEF9FEF3F
:101A30002C96E2E10C94A10AFC01059061507040E3
:101A40000110D8F7809590958E0F9F1F0895FC0187
:101A50006150704001900110D8F7809590958E0FDD
:101A60009F1F08950F931F93CF93DF93182F092F74
:101A7000EB018B8181FD03C08FEF9FEF1EC082FFC2
:101A80000FC02E813F818C819D812817390774F406
:101A9000E881F981CF01019699838883108306C07C
:101AA000E885F985812F0995892B31F78E819F81F2
:101AB00001969F838E83812F902FDF91CF911F916D
:101AC0000F910895FA01AA27283051F1203181F1B0
:101AD000E8946F936E7F6E5F7F4F8F4F9F4FAF4F36
:101AE000B1E03ED0B4E03CD0670F781F891F9A1F49
:101AF000A11D680F791F8A1F911DA11D6A0F711DFD
:101B0000811D911DA11D20D009F468943F912AE008
:101B1000269F11243019305D3193DEF6CF010895F0
:101B2000462F4770405D4193B3E00FD0C9F7F6CF21
:101B3000462F4F70405D4A3318F0495D31FD4052E9
:101B4000419302D0A9F7EACFB4E0A695979587957F
:101B500077956795BA95C9F700976105710508955E
:101B60009B01AC010A2E069457954795379527950A
:101B7000BA95C9F7620F731F841F951FA01D0895A2
:041B8000F894FFCF07
:101B8400FFFF0000000300000000BB07EF07000098
:101B94007D4545390010387C3810007D2111217DA8
:101BA400FEFFFE00FE01FFFEFFFFFF00FF01FF023C
:101BB40000FE00FF0001000201FE01FF010001011F
:101BC400010202FF02000201000100FF0100FF0008
:101BD40004040005000400000400040400030404D9
:101BE40003040004040404040300000400000404C7
:101BF40000000000030000000000000004040404CE
:101C0400040400040004030404040404050003059C
:101C1400030303040404050405040000000303048F
:101C24000000000400040300000300030004000497
:101C34000000000300040400040304000400000482
:101C4400000000030000040400030504000404046D
:101C54000003000300000004040000040004000466
:101C6400000400040000000304040304000300044F
:101C74000004000404040400030000000004000441
:101C84000504000400000300000400000004000038
:101C94000404030405000400000403040000040415
:101CA4000000000404040400040000000403000411
:101CB400000000030000030003000300030000040D
:101CC40000000004000003000400000303000504F6
:00000001FF
