:100000000C94BE000C94DB000C94DB000C94DB0021
:100010000C94DB000C9413010C94DB000C94DB00BB
:100020000C94DB000C94DB000C94DB000C94DB00E4
:100030000C94DB000C94DB000C94DB000C94DB00D4
:100040000C94F8070C94DB000C94DB000C94DB00A0
:100050000C9485060C9445060C94DB000C94DB0094
:100060000C94DB000C94DB000C94DB000C94DB00A4
:100070000C94DB000C94DB000C94DB004469616D94
:100080006F6E64733A202564004469616D6F6E641D
:10009000733A202564004368656174206F666600CA
:1000A0004368656174206F6E0050726573732061E0
:1000B00020627574746F6E20746F20737461727433
:1000C00020616761696E0047414D45204F5645529A
:1000D000004469616D6F6E64733A20300043686557
:1000E0006174206F66660053747564656E74206E6B
:1000F000756D3A2034363832323339340043535335
:1001000045323031302F373230312070726F6A65AE
:100110006374206279203C4A696179692057414EB5
:10012000473E004469616D6F6E64204D696E657273
:1001300073001B5B421B5B44001B44001B4D001BF8
:100140005B25643B256472001B5B72001B5B3F32C6
:100150003568001B5B3F32356C001B5B25646D000E
:100160001B5B4B001B5B324A001B5B376D001B5B4C
:10017000306D001B5B25643B2564480011241FBEC5
:10018000CFEFD8E0DEBFCDBF11E0A0E0B1E0E8E006
:10019000F7E102C005900D92AE3AB107D9F723E01E
:1001A000AEEAB1E001C01D92AA3DB207E1F70E949C
:1001B0001D080C94820B0C940000E8E6F0E08081AE
:1001C00082608083D99AECE6F0E080818F60808342
:1001D0001092AE0108958091AE01181614F5809129
:1001E000AF016FB7F89491E0292F30E04091AE0154
:1001F000042E000C550B2417350754F4F901E15572
:10020000FE4F4081F901E255FE4F40839F5FECCFE6
:100210009091AE0191509093AE0167FF03C0789426
:1002200008958FEF08951F920F920FB60F92112429
:100230002F933F934F935F936F937F938F939F93EE
:10024000EF93FF9343B14F7080E090E0642F70E034
:100250002091AE01243004F59B01082E02C0359593
:1002600027950A94E2F720FF17C02091B30130E0F0
:10027000082E02C0359527950A94E2F720FD0CC0A0
:10028000E091AE0121E02E0F2093AE010E2E000C66
:10029000FF0BE155FE4F8083019684309105C1F636
:1002A0004093B301FF91EF919F918F917F916F9157
:1002B0005F914F913F912F910F900FBE0F901F9024
:1002C00018950E9461040895CF92DF92EF92FF92F9
:1002D0001F93CF93DF93CDB7DEB728970FB6F8946F
:1002E000DEBF0FBECDBF0E9461048EE0C82E81E04C
:1002F000D82E10E0CE0101967C01F60181916F01AC
:1003000080FD02C090EF01C09FE0FE01389687FF9C
:1003100002C0908301C01082880F3197EE16FF064D
:10032000B1F71982B701812F0E9421041F5F10319C
:1003300021F728960FB6F894DEBF0FBECDBFDF9130
:10034000CF911F91FF90EF90DF90CF900895803173
:10035000F8F46830E8F4413071F0423071F09DEF0C
:10036000940F923060F0453061F0463061F04730D4
:1003700061F040E00BC04FE009C041E007C04FED25
:1003800005C040EF03C045E301C04CE30E94DD031C
:1003900008951F93CF93DF931092BD021092BB017B
:1003A00081E08093BF021092BE028093BC024CEBAE
:1003B00051E06CE372E020E130E0A0E8B0E0FD0144
:1003C000E21BF30BE25DFE4F80E090E0EA01C80F14
:1003D000D91F10811883EB01C80FD91F188201960D
:1003E00070978830910591F721503109485F5F4F30
:1003F000685F7F4F2115310511F7DF91CF911F9174
:100400000895803118F481E0683008F080E00895A4
:10041000803160F4683050F498E0899FF001112435
:10042000E454FE4FE60FF11D8081089584E00895A5
:10043000CF93DF93C091BF02C031C8F4D091BE0208
:10044000D830A8F48091BC02882331F06D2F8C2F16
:100450000E940802482F01C042E06D2F8C2F0E949D
:10046000A7019091BC0281E0891B8093BC02DF91BF
:10047000CF9108950E9428078091B50191E08111E4
:1004800090E09093B5016AE070E0811107C08AE0C6
:1004900090E00E94050780EA90E006C08AE090E0C4
:1004A0000E94050786E990E09F938F930E94DE08E3
:1004B0000F900F906CE070E08AE090E00E940507DA
:1004C0008091B4011F928F9389E890E09F938F935E
:1004D0000E94DE080F900F900F900F900895CF9319
:1004E000DF93C82FD62F0E940802853011F5809126
:1004F000B4018F5F8093B40188E0C89FF00111249C
:10050000E454FE4FED0FF11D10826CE070E08AE0C4
:1005100090E00E9405078091B4011F928F938CE7B1
:1005200090E09F938F930E94DE080F900F900F90A2
:100530000F90DF91CF9108950F931F93CF93DF9387
:10054000D82FC62F1091BD02812F8D0F8031B0F5AD
:100550000091BB01602F6C0F683080F50E9408028B
:100560008350823058F188E0189FF0011124E45440
:10057000FE4FE00FF11D108240E0602F812F0E949E
:10058000A7018091BD028D0F8093BD026091BB01D8
:100590006C0F6093BB010E946F028091BD0260915D
:1005A000BB0198E0899FF0011124E454FE4FE60F4F
:1005B000F11D91E0908341E00E94A7010091BE02ED
:1005C0001091BF02602F812F0E940802482F602FD8
:1005D000812F0E94A7018091BD02D80FD093BF0246
:1005E0008091BB01C80FC093BE020E941802DF9128
:1005F000CF911F910F91089580E008950F931F935D
:10060000CF93DF93182F062F88E0189FF001112455
:10061000E45CFD4FE60FF11D81E08083812F0E9495
:100620000802C82F482F602F812F0E94A701C111F7
:1006300003C0CEE1D1E00CC0C530E9F4FACF698146
:10064000600F683050F0229681E0CE32D80799F0E2
:100650008881810F8031B8F7F2CF98E0899FF0014F
:100660001124E45CFD4FE60FF11D90819111EBCF59
:100670000E94FE02E8CFDF91CF911F910F91089564
:10068000CF93DF930E946101D0E0C0E046E06C2F81
:100690008D2F0E94A701CF5FC830C1F7DF5FD03137
:1006A000A1F76091BB018091BD020E94FE0241E072
:1006B0006091BB018091BD020E94A70142E0609160
:1006C000BE028091BF020E94A701DF91CF910895E1
:1006D0000E94C9010E9440030895CF93DF93809147
:1006E000B5018823F1F0D091BE02C091BF026D2FF9
:1006F0008C2F0E9408028730A1F488E0C89FF00187
:100700001124E454FE4FED0FF11D108240E06D2FD7
:100710008C2F0E94A7016091BE028091BF020E94AF
:10072000FE02DF91CF910895CF93DF93D091BE0267
:10073000C091BF026D2F8C2F0E940802833079F484
:1007400088E0C89FF0011124E454FE4FED0FF11D25
:1007500087E0808347E06D2F8C2F0E94A7010E94C5
:100760006D03DF91CF91089580E80E94D806089527
:10077000A1E0B0E0EEEBF3E00C945108182F80E01C
:1007800099830E94FF06C12E9981D92E08E0760137
:1007900010E1F70180810E94FF061150F8E0EF0E92
:1007A000F11C1111F6CF01508FEFC81AD80A0111B0
:1007B000EECF2196E8E00C946D08A2E0B0E0E3EE05
:1007C000F3E00C945608182F803198F4683088F4C0
:1007D00081E04A8369830E94FF06698120E1629F6C
:1007E000C0011124812B0E94FF064A81842F0E94A0
:1007F000FF062296E3E00C947208A2E0B0E0E3E08A
:10080000F4E00C945308182F8830B8F482E0698320
:100810007A830E94FF06812F0E94FF066981E62EDF
:100820007A81F72E8701005F1F4FF70181917F01C9
:100830000E94FF06E016F106C1F72296E6E00C944E
:100840006F08A2E0B0E0E7E2F4E00C945308182F40
:100850008031B8F483E069837A830E94FF06812F98
:100860000E94FF066981E62E7A81F72E8701085FD4
:100870001F4FF70181917F010E94FF06E016F106EC
:10088000C1F72296E6E00C946F0884E00E94FF0610
:1008900082E00E94FF06089584E00E94FF0681E046
:1008A0000E94FF06089584E00E94FF0688E00E94EF
:1008B000FF06089584E00E94FF0684E00E94FF0680
:1008C00008958FE00E94FF060895FB019C01285FB8
:1008D0003F4FDC014D91CD014193A217B307C9F7FA
:1008E0000895FB019C01205F3F4FDC014D91CD013C
:1008F0004193A217B307C9F708959C01285F3F4FA2
:10090000FC016193CF01E217F307D1F708959C0131
:10091000205F3F4FFC016193CF01E217F307D1F74E
:1009200008950E94B4030E94DD0040E060E07BE493
:1009300080E090E00E94FC050E94D2077894089520
:100940000E9428076AE070E08AE090E00E940507B4
:1009500083E291E09F938F930E94DE086CE070E049
:100960008AE090E00E9405078DEF90E09F938F93BF
:100970000E94DE086DE070E08AE090E00E940507CA
:1009800087EE90E09F938F930E94DE080E9464019F
:100990000F900F900F900F900F900F900E943906BC
:1009A000811105C00E94EB008F3FC1F30895809133
:1009B000D4039091D5030E94A0088F7D833591F7D1
:1009C00008950E9428070E9468030E94EB000E947D
:1009D00040060895A4E0B0E0E0EFF4E00C94510884
:1009E0000E94EA076B017C016AE070E08AE090E017
:1009F0000E9405078DED90E09F938F930E94DE0883
:100A00006CE070E08AE090E00E94050781ED90E0E4
:100A10009F938F930E94DE080F900F900F900F907E
:100A200084EFC80E81E0D81EE11CF11C0E94FC027C
:100A300081115BC00E94EB00182F0E9439068823A9
:100A400071F08091D4039091D5030E94A008082FE3
:100A5000112341F0843631F0843421F006C01111A5
:100A60000AC00FEF60E081E01EC0113039F08F7DC9
:100A7000813421F006C0113049F40FEF60E08FEFB0
:100A800012C0123031F0873521F007C0123019F44E
:100A90000FEF61E007C08FED0FEF133011F08335DA
:100AA00021F46FEF80E00E949C02802F8F7D8534BF
:100AB00019F40E94940304C0833411F40E943A0292
:100AC0000E94EA076C157D058E059F0508F4AECFE0
:100AD00069837A838B839C830E94180269817A815F
:100AE0008B819C816B017C019BCF2496E8E00C9468
:100AF0006D086EE070E08AE090E00E94050787ECE8
:100B000090E09F938F930E94DE086FE070E08AE090
:100B100090E00E94050789EA90E09F938F930E94DE
:100B2000DE080F900F900F900F900E94EB008F3F08
:100B3000E1F30895CF93C82F8A3019F48DE00E9415
:100B40009A058FB780789091C1029F3F29F4811157
:100B5000FACF81E090E020C0F894E091C00291E0EB
:100B60009E0F9093C002F0E0EE53FD4FC083909132
:100B7000C1029F5F9093C1029091C0029F3F11F408
:100B80001092C0029091C10090629093C10088239E
:100B900009F0789480E090E0CF9108958091D3039C
:100BA0008823E1F32FB72078F8948091C103309126
:100BB000D30390E0831B9109E091C10397FF08C024
:100BC0008091D303F0E0E81BF109EE52FC4F07C01F
:100BD0008091D303F0E0E81BF109EE53FC4F8081D4
:100BE0009091D30391509093D303222309F07894EA
:100BF000082E000C990B08951092C0021092C102A9
:100C00001092C1031092D3031092D2034093B60105
:100C10009B01AC0183E0220F331F441F551F8A95AF
:100C2000D1F760E072E18AE790E00E942808CA01EB
:100C3000B9016F5F7F4F8F4F9F4F22E030E040E060
:100C400050E00E942808215031093093C5002093BC
:100C5000C400E1ECF0E088E18083808180688083DB
:100C6000E4EDF3E080E091E09383828391838083DD
:100C700008959091D30381E0911101C080E008951F
:100C80001092C1031092D30308951F920F920FB6D2
:100C90000F9211242F938F939F93EF93FF93809143
:100CA000C102882319F18091C0022091C10290E015
:100CB000821B9109E091C00297FF08C08091C10298
:100CC000F0E0E81BF109EF53FC4F07C08091C1022F
:100CD000F0E0E81BF109EE53FD4F90818091C102D5
:100CE00081508093C1029093C60005C08091C100DD
:100CF0008F7D8093C100FF91EF919F918F912F91F4
:100D00000F900FBE0F901F9018951F920F920FB665
:100D10000F9211242F933F934F935F936F937F9381
:100D20008F939F93AF93BF93CF93EF93FF93C09114
:100D3000C6008091B601882349F08091C1028F3F9F
:100D400029F060E070E08C2F0E949A058091D30317
:100D5000803120F081E08093D20318C0CD3009F4B7
:100D6000CAE0E091C10381E08E0F8093C103F0E0FF
:100D7000EE53FC4FC0838091D3038F5F8093D303E6
:100D80008091C103803111F41092C103FF91EF9162
:100D9000CF91BF91AF919F918F917F916F915F9113
:100DA0004F913F912F910F900FBE0F901F9018956C
:100DB00094B1906B94B92C9A90E59CBD883021F049
:100DC000803211F0823019F491E09DBD01C01DBC4C
:100DD000803269F028F4883069F0803159F00DC014
:100DE000803429F0803849F48CB581608CBD8CB595
:100DF000826002C08CB581608CBD2C9808958EBD38
:100E00000DB407FEFDCF8EB508959F938F937F930A
:100E10006F9383E791E09F938F930E94DE080F907A
:100E20000F900F900F900F900F9008958EE691E025
:100E30009F938F930E94DE080F900F90089589E68C
:100E400091E09F938F930E94DE080F900F9008957A
:100E500084E691E09F938F930E94DE080F900F909D
:100E6000089580E691E09F938F930E94DE080F9093
:100E70000F9008959F938F938AE591E09F938F93AE
:100E80000E94DE080F900F900F900F90089583E559
:100E900091E09F938F930E94DE080F900F9008952A
:100EA0008CE491E09F938F930E94DE080F900F9047
:100EB000089588E491E09F938F930E94DE080F903D
:100EC0000F900895262F062E000C330B3F936F933F
:100ED000282F082E000C330B3F938F938FE391E064
:100EE0009F938F930E94DE080F900F900F900F90AA
:100EF0000F900F9008958CE391E09F938F930E9441
:100F0000DE080F900F90089589E391E09F938F93EF
:100F10000E94DE080F900F900895CF93DF93C62FA5
:100F2000D42F682F880F770B8C2F0C2E000C990B69
:100F30000E9405070E941F07DC1734F080E290E052
:100F40000E940409CF5FF8CF0E941607DF91CF916E
:100F500008950F931F93CF93DF93C62FD42F062EA0
:100F6000000C770B082E000C990B0E9405070E94BD
:100F70001F0702E311E080E290E0CD1754F40E94D5
:100F800004091F930F930E94DE08CF5F0F900F900C
:100F9000F2CF0E9404090E941607DF91CF911F91A2
:100FA0000F9108951092B7011092B8011092B901F3
:100FB0001092BA0116BC8CE787BD82E084BD83E045
:100FC00085BDEEE6F0E080818260808385B382702B
:100FD00085BB08952FB7F8946091B7017091B8015F
:100FE0008091B9019091BA0127FF01C078940895CA
:100FF0001F920F920FB60F9211248F939F93AF936E
:10100000BF938091B7019091B801A091B901B091BF
:10101000BA010196A11DB11D8093B7019093B8014B
:10102000A093B901B093BA01BF91AF919F918F91F5
:101030000F900FBE0F901F9018950E9491040E9470
:10104000A0040E94E1040E94EA040E947905F9CFFD
:10105000052E97FB1EF400940E943F0857FD07D011
:101060000E947E0807FC03D04EF40C943F08509574
:101070004095309521953F4F4F4F5F4F0895909584
:101080008095709561957F4F8F4F9F4F08952F9258
:101090003F924F925F926F927F928F929F92AF9208
:1010A000BF92CF92DF92EF92FF920F931F93CF9355
:1010B000DF93CDB7DEB7CA1BDB0B0FB6F894DEBFEC
:1010C0000FBECDBF09942A88398848885F846E8412
:1010D0007D848C849B84AA84B984C884DF80EE805C
:1010E000FD800C811B81AA81B981CE0FD11D0FB665
:1010F000F894DEBF0FBECDBFED010895A1E21A2E18
:10110000AA1BBB1BFD010DC0AA1FBB1FEE1FFF1FAB
:10111000A217B307E407F50720F0A21BB30BE40BFB
:10112000F50B661F771F881F991F1A9469F7609542
:101130007095809590959B01AC01BD01CF010895FC
:10114000CF93DF93EC012B8120FF33C026FF0AC031
:101150002F7B2B838E819F8101969F838E838A8133
:1011600090E029C022FF0FC0E881F9818081082E1C
:10117000000C990B009719F420622B831AC031964A
:10118000F983E8830EC0EA85FB85099597FF09C0BE
:101190002B81019611F080E201C080E1822B8B83CC
:1011A00008C02E813F812F5F3F4F3F832E839927B9
:1011B00002C08FEF9FEFDF91CF910895A0E0B0E0E4
:1011C000E4EEF8E00C945508AE01495F5F4FDA0198
:1011D0006D917D91AD0104ED13E0F8018281938161
:1011E000DC0113962C911397286013962C930E9480
:1011F0000B09D8011296ED91FC9113972381277F5B
:101200002383E4E00C9471086091D6037091D703B6
:101210000E94F40A0895ACE0B0E0E1E1F9E00C943A
:1012200047086C017B018A01FC01178216828381C9
:1012300081FFBEC1CE0101964C01F6019381F701F9
:1012400093FD859193FF81917F01882309F4ACC1BF
:10125000853239F493FD859193FF81917F01853229
:1012600029F4B60190E00E94F40AE7CF512C312C0A
:1012700020E02032A0F48B3269F030F4803259F053
:10128000833269F420612CC08D3239F0803339F417
:10129000216026C02260246023C0286021C027FD71
:1012A00027C030ED380F3A3078F426FF06C0FAE058
:1012B0005F9E300D1124532E13C08AE0389E300DEE
:1012C0001124332E20620CC08E3221F426FD6CC115
:1012D000206406C08C3611F4206802C0883641F4C0
:1012E000F70193FD859193FF81917F018111C1CF1A
:1012F000982F9F7D9554933028F40C5F1F4F9FE3E8
:1013000099830DC0833631F0833771F0833509F04E
:101310005BC022C0F801808189830E5F1F4F442487
:101320004394512C540115C03801F2E06F0E711C2A
:10133000F801A080B18026FF03C0652D70E002C0D7
:101340006FEF7FEFC5012C870E94E90A2C01830112
:101350002C852F77222E17C03801F2E06F0E711CFA
:10136000F801A080B18026FF03C0652D70E002C0A7
:101370006FEF7FEFC5012C870E94DE0A2C012C85C0
:101380002068222E830123FC1BC0832D90E0481689
:101390005906B0F4B60180E290E00E94F40A3A9453
:1013A000F4CFF50127FC859127FE81915F01B601FD
:1013B00090E00E94F40A31103A94F1E04F1A51087B
:1013C0004114510471F7E6C0843611F0893639F5BD
:1013D000F80127FF07C060817181828193810C5FD2
:1013E0001F4F08C060817181072E000C880B990B7C
:1013F0000E5F1F4F2F76722E97FF09C09095809534
:10140000709561957F4F8F4F9F4F2068722E2AE015
:1014100030E0A4010E94240BA82EA81844C08537F0
:1014200029F42F7EB22E2AE030E025C0F22FF97F7A
:10143000BF2E8F36C1F018F4883579F0B5C08037EB
:1014400019F0883721F0B0C02F2F2061B22EB4FEE2
:101450000DC08B2D8460B82E09C024FF0AC09F2FB9
:101460009660B92E06C028E030E005C020E130E0EB
:1014700002C020E132E0F801B7FE07C0608171814F
:10148000828193810C5F1F4F06C06081718180E073
:1014900090E00E5F1F4FA4010E94240BA82EA818F5
:1014A000FB2DFF777F2E76FE0BC0372D3E7FA514D8
:1014B00050F474FE0AC072FC08C0372D3E7E05C091
:1014C000BA2C372D03C0BA2C01C0B52C34FF0DC087
:1014D000FE01EA0DF11D8081803311F4397E09C0CF
:1014E00032FF06C0B394B39404C0832F867809F00A
:1014F000B39433FD13C030FF06C0B31498F43A0C14
:10150000532C5B1810C0B31470F4B60180E290E065
:101510003C870E94F40AB3943C85F5CFB31418F4C9
:101520003B1802C05A2C312C34FF12C0B60180E3A4
:1015300090E03C870E94F40A3C8532FF17C031FDE1
:1015400003C088E790E002C088E590E0B6010CC0D7
:10155000832F867859F031FF02C08BE201C080E210
:1015600037FD8DE2B60190E00E94F40AA51438F42C
:10157000B60180E390E00E94F40A5A94F7CFAA944F
:10158000F401EA0DF11D8081B60190E00E94F40A99
:10159000A110F5CF332009F450CEB60180E290E0DF
:1015A0000E94F40A3A94F6CFF6018681978102C030
:1015B0008FEF9FEF2C96E2E10C946308FC010590FD
:1015C000615070400110D8F7809590958E0F9F1F45
:1015D0000895FC016150704001900110D8F780958A
:1015E00090958E0F9F1F08950F931F93CF93DF93B6
:1015F000182F092FEB018B8181FD03C08FEF9FEF27
:101600001EC082FF0FC02E813F818C819D812817D3
:10161000390774F4E881F981CF01019699838883B1
:10162000108306C0E885F985812F0995892B31F74C
:101630008E819F8101969F838E83812F902FDF91D2
:10164000CF911F910F910895FA01AA27283051F1E7
:10165000203181F1E8946F936E7F6E5F7F4F8F4FE3
:101660009F4FAF4FB1E03ED0B4E03CD0670F781F42
:10167000891F9A1FA11D680F791F8A1F911DA11D27
:101680006A0F711D811D911DA11D20D009F4689460
:101690003F912AE0269F11243019305D3193DEF608
:1016A000CF010895462F4770405D4193B3E00FD0BE
:1016B000C9F7F6CF462F4F70405D4A3318F0495DA9
:1016C00031FD4052419302D0A9F7EACFB4E0A6958C
:1016D0009795879577956795BA95C9F700976105AE
:1016E000710508959B01AC010A2E06945795479504
:1016F00037952795BA95C9F7620F731F841F951FF9
:08170000A01D0895F894FFCF2D
:1017080000000003000000009A05CE0500007D459A
:1017180045390010387C3810007D2111217D0001E9
:1017280000FF0100FF0000000000000000000003AF
:101738000003000000040400000400040004000486
:101748000004000000030404030400030004000470
:10175800000404040400030000000004000405045D
:10176800000400000300000400000004000004045A
:10177800030405000400000403040000040400003E
:101788000004040404000400000004030004000032
:10179800000300000300030003000300000400002E
:0E17A800000400000300040000030300050419
:00000001FF
