:100000000C94BE000C94DB000C94DB000C94DB0021
:100010000C94DB000C9413010C94DB000C94DB00BB
:100020000C94DB000C94DB000C94DB000C94DB00E4
:100030000C94DB000C94DB000C94DB000C94DB00D4
:100040000C94A8080C94DB000C94DB000C94DB00EF
:100050000C9435070C94F5060C94DB000C94DB0033
:100060000C94DB000C94DB000C94DB000C94DB00A4
:100070000C94DB000C94DB000C94DB004469616D94
:100080006F6E64733A202564004469616D6F6E641D
:10009000733A202564004368656174206F666600CA
:1000A0004368656174206F6E0050726573732061E0
:1000B00020627574746F6E20746F20737461727433
:1000C00020616761696E0047414D45204F5645529A
:1000D000004469616D6F6E64733A20300043686557
:1000E0006174206F66660053747564656E74206E6B
:1000F000756D3A2034363832323339340043535335
:1001000045323031302F373230312070726F6A65AE
:100110006374206279203C4A696179692057414EB5
:10012000473E004469616D6F6E64204D696E657273
:1001300073001B5B421B5B44001B44001B4D001BF8
:100140005B25643B256472001B5B72001B5B3F32C6
:100150003568001B5B3F32356C001B5B25646D000E
:100160001B5B4B001B5B324A001B5B376D001B5B4C
:10017000306D001B5B25643B2564480011241FBEC5
:10018000CFEFD8E0DEBFCDBF11E0A0E0B1E0E8E600
:10019000F8E102C005900D92AE3AB107D9F723E01D
:1001A000AEEAB1E001C01D92AC3DB207E1F70E949A
:1001B000CD080C94320C0C940000E8E6F0E080814D
:1001C00082608083D99AECE6F0E080818F60808342
:1001D0001092AE0108958091AE01181614F5809129
:1001E000AF016FB7F89491E0292F30E04091AE0154
:1001F000042E000C550B2417350754F4F901E15572
:10020000FE4F4081F901E255FE4F40839F5FECCFE6
:100210009091AE0191509093AE0167FF03C0789426
:1002200008958FEF08951F920F920FB60F92112429
:100230002F933F934F935F936F937F938F939F93EE
:10024000EF93FF9343B14F7080E090E0642F70E034
:100250002091AE01243004F59B01082E02C0359593
:1002600027950A94E2F720FF17C02091B30130E0F0
:10027000082E02C0359527950A94E2F720FD0CC0A0
:10028000E091AE0121E02E0F2093AE010E2E000C66
:10029000FF0BE155FE4F8083019684309105C1F636
:1002A0004093B301FF91EF919F918F917F916F9157
:1002B0005F914F913F912F910F900FBE0F901F9024
:1002C00018950E94C1040895CF92DF92EF92FF9299
:1002D0001F93CF93DF93CDB7DEB728970FB6F8946F
:1002E000DEBF0FBECDBF0E94C1048EE0C82E81E0EC
:1002F000D82E10E0CE0101967C01F60181916F01AC
:1003000080FD02C090EF01C09FE0FE01389687FF9C
:1003100002C0908301C01082880F3197EE16FF064D
:10032000B1F71982B701812F0E9481041F5F10313C
:1003300021F728960FB6F894DEBF0FBECDBFDF9130
:10034000CF911F91FF90EF90DF90CF900895803173
:10035000F8F46830E8F4413071F0423071F09DEF0C
:10036000940F923060F0453061F0463061F04730D4
:1003700061F040E00BC04FE009C041E007C04FED25
:1003800005C040EF03C045E301C04CE30E943D04BB
:1003900008951F93CF93DF931092BF021092BC0178
:1003A00081E08093C1021092C0028093BE024DEBA7
:1003B00051E06EE372E020E130E0A0E8B0E0FD0142
:1003C000E21BF30BE25DFE4F80E090E0EA01C80F14
:1003D000D91F10811883EB01C80FD91F188201960D
:1003E00070978830910591F721503109485F5F4F30
:1003F000685F7F4F2115310511F7DF91CF911F9174
:100400000895803118F481E0683008F080E00895A4
:10041000803160F4683050F498E0899FF001112435
:10042000E354FE4FE60FF11D8081089584E00895A6
:10043000CF93DF93C091C102C031C8F4D091C00204
:10044000D830A8F48091BE02882331F06D2F8C2F14
:100450000E940802482F01C042E06D2F8C2F0E949D
:10046000A7019091BE0281E0891B8093BE02DF91BB
:10047000CF9108950E94D8078091B60191E0811133
:1004800090E09093B6016AE070E0811107C08AE0C5
:1004900090E00E94B50780EA90E006C08AE090E014
:1004A0000E94B50786E990E09F938F930E948E0982
:1004B0000F900F906CE070E08AE090E00E94B5072A
:1004C0008091B5011F928F9389E890E09F938F935D
:1004D0000E948E090F900F900F900F900895CF9368
:1004E000DF93C82FD62F0E940802853011F5809126
:1004F000B5018F5F8093B50188E0C89FF00111249A
:10050000E354FE4FED0FF11D10826CE070E08AE0C5
:1005100090E00E94B5078091B5011F928F938CE700
:1005200090E09F938F930E948E090F900F900F90F1
:100530000F90DF91CF910895A0E0B0E0E2EAF2E001
:100540000C94FD0888E180933D02C090BF02A0900A
:10055000BC01E12CF12CD12CB12C8E2C86010E1972
:100560001F0917FF03C0119501951109902EC0E0D6
:10057000D0E06C2F882D0E9408028530A1F4C501BF
:100580008C1B9D0B97FF03C091958195910920913C
:100590003D0230E0A801480F591F421753071CF4D1
:1005A000890D80933D022196C830D10511F78FEF58
:1005B000E81AF80A80E1E816F10479F680913D0224
:1005C000CDB7DEB7ECE00C9419090F931F93CF93CE
:1005D000DF93D82FC62F1091BF02812F8D0F80314E
:1005E000F0F50091BC01602F6C0F6830C0F50E94DF
:1005F00008029DEF980F923090F1873081F188E0EA
:10060000189FF0011124E354FE4FE00FF11D1082FA
:1006100040E0602F812F0E94A7018091BF028D0FC3
:100620008093BF026091BC016C0F6093BC010E947B
:100630006F028091BF026091BC0198E0899FF00138
:100640001124E354FE4FE60FF11D91E0908341E049
:100650000E94A7010E949C02853008F018B8009102
:10066000C0021091C102602F812F0E940802482F02
:10067000602F812F0E94A7018091BF02D80FD093D5
:10068000C1028091BC01C80FC093C0020E94180231
:10069000DF91CF911F910F9108958091B40188232C
:1006A00011F0479A01C018B881E09091B4019111FE
:1006B00080E08093B401089580E008950F931F9324
:1006C000CF93DF93182F062F88E0189FF001112495
:1006D000E25CFD4FE60FF11D81E08083812F0E94D7
:1006E0000802C82F482F602F812F0E94A701C11137
:1006F00003C0CEE1D1E00CC0C530E9F4FACF698186
:10070000600F683050F0229681E0CE32D80799F021
:100710008881810F8031B8F7F2CF98E0899FF0018E
:100720001124E25CFD4FE60FF11D90819111EBCF9A
:100730000E945E03E8CFDF91CF911F910F91089542
:10074000CF93DF930E946101D0E0C0E046E06C2FC0
:100750008D2F0E94A701CF5FC830C1F7DF5FD03176
:10076000A1F76091BC018091BF020E945E0341E04D
:100770006091BC018091BF020E94A70142E060919C
:10078000C0028091C1020E94A701DF91CF9108951C
:100790000E94C9010E94A0030895CF93DF93809126
:1007A000B6018823F1F0D091C002C091C1026D2F33
:1007B0008C2F0E9408028730A1F488E0C89FF001C6
:1007C0001124E354FE4FED0FF11D108240E06D2F18
:1007D0008C2F0E94A7016091C0028091C1020E94EB
:1007E0005E03DF91CF910895CF93DF93D091C00244
:1007F000C091C1026D2F8C2F0E940802833079F4C2
:1008000088E0C89FF0011124E354FE4FED0FF11D65
:1008100087E0808347E06D2F8C2F0E94A7010E9404
:10082000CD03DF91CF91089580E80E948807089555
:10083000A1E0B0E0EEE1F4E00C940109182F80E0B3
:1008400099830E94AF07C12E9981D92E08E07601C5
:1008500010E1F70180810E94AF071150F8E0EF0E20
:10086000F11C1111F6CF01508FEFC81AD80A0111EF
:10087000EECF2196E8E00C941D09A2E0B0E0E3E49D
:10088000F4E00C940609182F803198F4683088F44D
:1008900081E04A8369830E94AF07698120E1629FFA
:1008A000C0011124812B0E94AF074A81842F0E942E
:1008B000AF072296E3E00C942209A2E0B0E0E3E661
:1008C000F4E00C940309182F8830B8F482E06983AF
:1008D0007A830E94AF07812F0E94AF076981E62EBD
:1008E0007A81F72E8701005F1F4FF70181917F0109
:1008F0000E94AF07E016F106C1F72296E6E00C94DD
:100900001F09A2E0B0E0E7E8F4E00C940309182F17
:100910008031B8F483E069837A830E94AF07812F26
:100920000E94AF076981E62E7A81F72E8701085F62
:100930001F4FF70181917F010E94AF07E016F1067A
:10094000C1F72296E6E00C941F0984E00E94AF07ED
:1009500082E00E94AF07089584E00E94AF0781E023
:100960000E94AF07089584E00E94AF0788E00E94CC
:10097000AF07089584E00E94AF0784E00E94AF07AC
:1009800008958FE00E94AF070895FB019C01285F46
:100990003F4FDC014D91CD014193A217B307C9F739
:1009A0000895FB019C01205F3F4FDC014D91CD017B
:1009B0004193A217B307C9F708959C01285F3F4FE1
:1009C000FC016193CF01E217F307D1F708959C0171
:1009D000205F3F4FFC016193CF01E217F307D1F78E
:1009E00008950E9414040E94DD0040E060E07BE472
:1009F00080E090E00E94AC060E9482083F9A7894C2
:100A000008950E94D8076AE070E08AE090E00E94B2
:100A1000B50783E291E09F938F930E948E096CE06B
:100A200070E08AE090E00E94B5078DEF90E09F9320
:100A30008F930E948E096DE070E08AE090E00E9442
:100A4000B50787EE90E09F938F930E948E090E94D6
:100A500064010F900F900F900F900F900F900E94D5
:100A6000E906811105C00E94EB008F3FC1F3089594
:100A70008091D6039091D7030E9450098F7D8335D2
:100A800091F708950E94D8070E94C8030E94EB00C6
:100A90000E94F00608954F925F926F927F928F921C
:100AA0009F92AF92BF92CF92DF92EF92FF92CF933D
:100AB000DF930E949A082B013C016AE070E08AE013
:100AC00090E00E94B5078DED90E09F938F930E9478
:100AD0008E096CE070E08AE090E00E94B50781ED3D
:100AE00090E09F938F930E948E090F900F900F902C
:100AF0000F90530142010E945C0381119BC00E9430
:100B0000EB00D82F0E94E906882371F08091D6036C
:100B10009091D7030E945009C82FDD2341F08436FD
:100B200031F0843421F006C0D1110AC0CFEF60E06B
:100B300081E01EC0D13039F08F7D813421F006C0B4
:100B4000D13049F4CFEF60E08FEF12C0D23031F0F6
:100B5000873521F007C0D23019F4CFEF61E007C02C
:100B60008FEDCFEFD33011F0833521F46FEF80E0BC
:100B70000E94E502CF7DC53419F40E94F40304C03D
:100B8000C33411F40E943A020E949A086B017C015E
:100B9000D301C2018C509E4FAF4FBF4FC816D9062C
:100BA000EA06FB0620F00E941802260137010E9487
:100BB0009C02843059F4D501C40184529A4FAF4F3E
:100BC000BF4FC816D906EA06FB0678F50E949C02BC
:100BD000833059F4D501C40188519C4FAF4FBF4FAA
:100BE000C816D906EA06FB0600F50E949C02823070
:100BF00059F4D501C4018C509E4FAF4FBF4FC8165A
:100C0000D906EA06FB0688F40E949C02813009F0AE
:100C100072CFD501C40186509F4FAF4FBF4FC8164A
:100C2000D906EA06FB0608F466CF0E944D0346018A
:100C3000570161CFDF91CF91FF90EF90DF90CF9080
:100C4000BF90AF909F908F907F906F905F904F90EC
:100C500008956EE070E08AE090E00E94B50787ECAE
:100C600090E09F938F930E948E096FE070E08AE07E
:100C700090E00E94B50789EA90E09F938F930E94CD
:100C80008E090F900F900F900F900E94EB008F3FF6
:100C9000E1F30895CF93C82F8A3019F48DE00E94B4
:100CA0004A068FB780789091C3029F3F29F4811143
:100CB000FACF81E090E020C0F894E091C20291E088
:100CC0009E0F9093C202F0E0EC53FD4FC0839091D1
:100CD000C3029F5F9093C3029091C2029F3F11F4A1
:100CE0001092C2029091C10090629093C10088233B
:100CF00009F0789480E090E0CF9108958091D50339
:100D00008823E1F32FB72078F8948091C3033091C2
:100D1000D50390E0831B9109E091C30397FF08C0BE
:100D20008091D503F0E0E81BF109EC52FC4F07C0BD
:100D30008091D503F0E0E81BF109EC53FC4F808172
:100D40009091D50391509093D503222309F0789484
:100D5000082E000C990B08951092C2021092C30243
:100D60001092C3031092D5031092D4034093B7019D
:100D70009B01AC0183E0220F331F441F551F8A954E
:100D8000D1F760E072E18AE790E00E94D808CA01DA
:100D9000B9016F5F7F4F8F4F9F4F22E030E040E0FF
:100DA00050E00E94D808215031093093C5002093AB
:100DB000C400E1ECF0E088E180838081806880837A
:100DC000E6EDF3E080E091E093838283918380837A
:100DD00008959091D50381E0911101C080E00895BC
:100DE0001092C3031092D50308951F920F920FB66D
:100DF0000F9211242F938F939F93EF93FF938091E2
:100E0000C302882319F18091C2022091C30290E0AD
:100E1000821B9109E091C20297FF08C08091C30232
:100E2000F0E0E81BF109ED53FC4F07C08091C302CD
:100E3000F0E0E81BF109EC53FD4F90818091C30273
:100E400081508093C3029093C60005C08091C10079
:100E50008F7D8093C100FF91EF919F918F912F9192
:100E60000F900FBE0F901F9018951F920F920FB604
:100E70000F9211242F933F934F935F936F937F9320
:100E80008F939F93AF93BF93CF93EF93FF93C091B3
:100E9000C6008091B701882349F08091C3028F3F3B
:100EA00029F060E070E08C2F0E944A068091D50303
:100EB000803120F081E08093D40318C0CD3009F454
:100EC000CAE0E091C30381E08E0F8093C303F0E09A
:100ED000EC53FC4FC0838091D5038F5F8093D50383
:100EE0008091C303803111F41092C303FF91EF91FD
:100EF000CF91BF91AF919F918F917F916F915F91B2
:100F00004F913F912F910F900FBE0F901F9018950A
:100F100094B1906B94B92C9A90E59CBD883021F0E7
:100F2000803211F0823019F491E09DBD01C01DBCEA
:100F3000803269F028F4883069F0803159F00DC0B2
:100F4000803429F0803849F48CB581608CBD8CB533
:100F5000826002C08CB581608CBD2C9808958EBDD6
:100F60000DB407FEFDCF8EB508959F938F937F93A9
:100F70006F9383E791E09F938F930E948E090F9068
:100F80000F900F900F900F900F9008958EE691E0C4
:100F90009F938F930E948E090F900F90089589E67A
:100FA00091E09F938F930E948E090F900F90089568
:100FB00084E691E09F938F930E948E090F900F908B
:100FC000089580E691E09F938F930E948E090F9081
:100FD0000F9008959F938F938AE591E09F938F934D
:100FE0000E948E090F900F900F900F90089583E547
:100FF00091E09F938F930E948E090F900F90089518
:101000008CE491E09F938F930E948E090F900F9034
:10101000089588E491E09F938F930E948E090F902A
:101020000F900895262F062E000C330B3F936F93DD
:10103000282F082E000C330B3F938F938FE391E002
:101040009F938F930E948E090F900F900F900F9097
:101050000F900F9008958CE391E09F938F930E94DF
:101060008E090F900F90089589E391E09F938F93DD
:101070000E948E090F900F900895CF93DF93C62F93
:10108000D42F682F880F770B8C2F0C2E000C990B08
:101090000E94B5070E94CF07DC1734F080E290E091
:1010A0000E94B409CF5FF8CF0E94C607DF91CF91AD
:1010B00008950F931F93CF93DF93C62FD42F062E3F
:1010C000000C770B082E000C990B0E94B5070E94AC
:1010D000CF0702E311E080E290E0CD1754F40E94C4
:1010E000B4091F930F930E948E09CF5F0F900F904A
:1010F000F2CF0E94B4090E94C607DF91CF911F91E1
:101100000F9108951092B8011092B9011092BA018E
:101110001092BB0116BC8CE787BD82E084BD83E0E2
:1011200085BDEEE6F0E080818260808385B38270C9
:1011300085BB08952FB7F8946091B8017091B901FB
:101140008091BA019091BB0127FF01C07894089566
:101150001F920F920FB60F9211248F939F93AF930C
:10116000BF938091B8019091B901A091BA01B0915B
:10117000BB010196A11DB11D8093B8019093B901E7
:10118000A093BA01B093BB01BF91AF919F918F9192
:101190000F900FBE0F901F9018950E94F1040E94AF
:1011A00001050E9442050E944B050E942906F9CFC5
:1011B000052E97FB1EF400940E94EF0857FD07D000
:1011C0000E942E0907FC03D04EF40C94EF085095B2
:1011D0004095309521953F4F4F4F5F4F0895909523
:1011E0008095709561957F4F8F4F9F4F08952F92F7
:1011F0003F924F925F926F927F928F929F92AF92A7
:10120000BF92CF92DF92EF92FF920F931F93CF93F3
:10121000DF93CDB7DEB7CA1BDB0B0FB6F894DEBF8A
:101220000FBECDBF09942A88398848885F846E84B0
:101230007D848C849B84AA84B984C884DF80EE80FA
:10124000FD800C811B81AA81B981CE0FD11D0FB603
:10125000F894DEBF0FBECDBFED010895A1E21A2EB6
:10126000AA1BBB1BFD010DC0AA1FBB1FEE1FFF1F4A
:10127000A217B307E407F50720F0A21BB30BE40B9A
:10128000F50B661F771F881F991F1A9469F76095E1
:101290007095809590959B01AC01BD01CF0108959B
:1012A000CF93DF93EC012B8120FF33C026FF0AC0D0
:1012B0002F7B2B838E819F8101969F838E838A81D2
:1012C00090E029C022FF0FC0E881F9818081082EBB
:1012D000000C990B009719F420622B831AC03196E9
:1012E000F983E8830EC0EA85FB85099597FF09C05D
:1012F0002B81019611F080E201C080E1822B8B836B
:1013000008C02E813F812F5F3F4F3F832E83992757
:1013100002C08FEF9FEFDF91CF910895A0E0B0E082
:10132000E4E9F9E00C940509AE01495F5F4FDA0189
:101330006D917D91AD0106ED13E0F80182819381FD
:10134000DC0113962C911397286013962C930E941E
:10135000BB09D8011296ED91FC9113972381277F49
:101360002383E4E00C9421096091D8037091D903A0
:101370000E94A40B0895ACE0B0E0E1ECF9E00C941D
:10138000F7086C017B018A01FC01178216828381B8
:1013900081FFBEC1CE0101964C01F6019381F70198
:1013A00093FD859193FF81917F01882309F4ACC15E
:1013B000853239F493FD859193FF81917F018532C8
:1013C00029F4B60190E00E94A40BE7CF512C312CF8
:1013D00020E02032A0F48B3269F030F4803259F0F2
:1013E000833269F420612CC08D3239F0803339F4B6
:1013F000216026C02260246023C0286021C027FD10
:1014000027C030ED380F3A3078F426FF06C0FAE0F6
:101410005F9E300D1124532E13C08AE0389E300D8C
:101420001124332E20620CC08E3221F426FD6CC1B3
:10143000206406C08C3611F4206802C0883641F45E
:10144000F70193FD859193FF81917F018111C1CFB8
:10145000982F9F7D9554933028F40C5F1F4F9FE386
:1014600099830DC0833631F0833771F0833509F0ED
:101470005BC022C0F801808189830E5F1F4F442426
:101480004394512C540115C03801F2E06F0E711CC9
:10149000F801A080B18026FF03C0652D70E002C076
:1014A0006FEF7FEFC5012C870E94990B2C01830100
:1014B0002C852F77222E17C03801F2E06F0E711C99
:1014C000F801A080B18026FF03C0652D70E002C046
:1014D0006FEF7FEFC5012C870E948E0B2C012C85AE
:1014E0002068222E830123FC1BC0832D90E0481628
:1014F0005906B0F4B60180E290E00E94A40B3A9441
:10150000F4CFF50127FC859127FE81915F01B6019B
:1015100090E00E94A40B31103A94F1E04F1A510868
:101520004114510471F7E6C0843611F0893639F55B
:10153000F80127FF07C060817181828193810C5F70
:101540001F4F08C060817181072E000C880B990B1A
:101550000E5F1F4F2F76722E97FF09C090958095D2
:10156000709561957F4F8F4F9F4F2068722E2AE0B4
:1015700030E0A4010E94D40BA82EA81844C08537DF
:1015800029F42F7EB22E2AE030E025C0F22FF97F19
:10159000BF2E8F36C1F018F4883579F0B5C080378A
:1015A00019F0883721F0B0C02F2F2061B22EB4FE81
:1015B0000DC08B2D8460B82E09C024FF0AC09F2F58
:1015C0009660B92E06C028E030E005C020E130E08A
:1015D00002C020E132E0F801B7FE07C060817181EE
:1015E000828193810C5F1F4F06C06081718180E012
:1015F00090E00E5F1F4FA4010E94D40BA82EA818E4
:10160000FB2DFF777F2E76FE0BC0372D3E7FA51476
:1016100050F474FE0AC072FC08C0372D3E7E05C02F
:10162000BA2C372D03C0BA2C01C0B52C34FF0DC025
:10163000FE01EA0DF11D8081803311F4397E09C06D
:1016400032FF06C0B394B39404C0832F867809F0A8
:10165000B39433FD13C030FF06C0B31498F43A0CB2
:10166000532C5B1810C0B31470F4B60180E290E004
:101670003C870E94A40BB3943C85F5CFB31418F4B7
:101680003B1802C05A2C312C34FF12C0B60180E343
:1016900090E03C870E94A40B3C8532FF17C031FDCF
:1016A00003C088E790E002C088E590E0B6010CC076
:1016B000832F867859F031FF02C08BE201C080E2AF
:1016C00037FD8DE2B60190E00E94A40BA51438F41A
:1016D000B60180E390E00E94A40B5A94F7CFAA943D
:1016E000F401EA0DF11D8081B60190E00E94A40B87
:1016F000A110F5CF332009F450CEB60180E290E07E
:101700000E94A40B3A94F6CFF6018681978102C01D
:101710008FEF9FEF2C96E2E10C941309FC010590EA
:10172000615070400110D8F7809590958E0F9F1FE3
:101730000895FC016150704001900110D8F7809528
:1017400090958E0F9F1F08950F931F93CF93DF9354
:10175000182F092FEB018B8181FD03C08FEF9FEFC5
:101760001EC082FF0FC02E813F818C819D81281772
:10177000390774F4E881F981CF0101969983888350
:10178000108306C0E885F985812F0995892B31F7EB
:101790008E819F8101969F838E83812F902FDF9171
:1017A000CF911F910F910895FA01AA27283051F186
:1017B000203181F1E8946F936E7F6E5F7F4F8F4F82
:1017C0009F4FAF4FB1E03ED0B4E03CD0670F781FE1
:1017D000891F9A1FA11D680F791F8A1F911DA11DC6
:1017E0006A0F711D811D911DA11D20D009F46894FF
:1017F0003F912AE0269F11243019305D3193DEF6A7
:10180000CF010895462F4770405D4193B3E00FD05C
:10181000C9F7F6CF462F4F70405D4A3318F0495D47
:1018200031FD4052419302D0A9F7EACFB4E0A6952A
:101830009795879577956795BA95C9F7009761054C
:10184000710508959B01AC010A2E069457954795A2
:1018500037952795BA95C9F7620F731F841F951F97
:08186000A01D0895F894FFCFCC
:1018680000000003000000004A067E0600007D45D7
:1018780045390010387C3810007D2111217D000188
:1018880000FF0100FF00000000000000000000034E
:101898000003000000040400000400040004000425
:1018A800000400000003040403040003000400040F
:1018B80000040404040003000000000400040504FC
:1018C80000040000030000040000000400000404F9
:1018D80003040500040000040304000004040000DD
:1018E80000040404040004000000040300040000D1
:1018F80000030000030003000300030000040000CD
:0E1908000004000003000400000303000504B7
:00000001FF
