:100000000C94BE000C94DB000C94DB000C94DB0021
:100010000C94DB000C9413010C94DB000C94DB00BB
:100020000C94DB000C94DB000C94DB000C94DB00E4
:100030000C94DB000C94DB000C94DB000C94DB00D4
:100040000C94340B0C94DB000C94DB000C94DB0060
:100050000C94C1090C9481090C94DB000C94DB0016
:100060000C94DB000C94DB000C94DB000C94DB00A4
:100070000C94DB000C94DB000C94DB004469616D94
:100080006F6E64733A202564004469616D6F6E641D
:10009000733A202564004368656174206F666600CA
:1000A0004368656174206F6E0050726573732061E0
:1000B00020627574746F6E20746F20737461727433
:1000C00020616761696E0047414D45204F5645529A
:1000D000004469616D6F6E64733A20300043686557
:1000E0006174206F66660053747564656E74206E6B
:1000F000756D3A2034363832323339340043535335
:1001000045323031302F373230312070726F6A65AE
:100110006374206279203C4A696179692057414EB5
:10012000473E004469616D6F6E64204D696E657273
:1001300073001B5B421B5B44001B44001B4D001BF8
:100140005B25643B256472001B5B72001B5B3F32C6
:100150003568001B5B3F32356C001B5B25646D000E
:100160001B5B4B001B5B324A001B5B376D001B5B4C
:10017000306D001B5B25643B2564480011241FBEC5
:10018000CFEFD8E0DEBFCDBF12E0A0E0B1E0EEEDF2
:10019000FDE102C005900D92A635B107D9F725E023
:1001A000A6E5B2E001C01D92AA30B207E1F70E94B5
:1001B000740B0C94ED0E0C940000E8E6F0E08081E6
:1001C00082608083D99AECE6F0E080818F60808342
:1001D00010925602089580915602181614F58091D7
:1001E00057026FB7F89491E0292F30E04091560202
:1001F000042E000C550B2417350754F4F901E95A65
:10020000FD4F4081F901EA5AFD4F40839F5FECCFDB
:100210009091560291509093560267FF03C07894D4
:1002200008958FEF08951F920F920FB60F92112429
:100230002F933F934F935F936F937F938F939F93EE
:10024000EF93FF9343B14F7080E090E0642F70E034
:1002500020915602243004F59B01082E02C03595EA
:1002600027950A94E2F720FF17C020915B0230E047
:10027000082E02C0359527950A94E2F720FD0CC0A0
:10028000E091560221E02E0F209356020E2E000C14
:10029000FF0BE95AFD4F8083019684309105C1F62A
:1002A00040935B02FF91EF919F918F917F916F91AE
:1002B0005F914F913F912F910F900FBE0F901F9024
:1002C00018950E940F070895CF92DF92EF92FF9248
:1002D0001F93CF93DF93CDB7DEB728970FB6F8946F
:1002E000DEBF0FBECDBF0E940F0786E1C82E81E0A2
:1002F000D82E10E0CE0101967C01F60181916F01AC
:1003000080FD02C090EF01C09FE0FE01389687FF9C
:1003100002C0908301C01082880F3197EE16FF064D
:10032000B1F71982B701812F0E94CF061F5F1031EC
:1003300021F728960FB6F894DEBF0FBECDBFDF9130
:10034000CF911F91FF90EF90DF90CF900895803173
:1003500038F5683028F5413091F0423091F09DEF4A
:10036000940F923080F0453081F0463081F0473074
:1003700081F0483081F0493081F040E00FC04FE01B
:100380000DC041E00BC04FED09C040EF07C045E391
:1003900005C04CE303C041E101C043E10E948B066C
:1003A0000895EF92FF921F93CF93DF931092ED0386
:1003B00010926A0281E08093EF031092EE03809323
:1003C0006C0310915E02A6E5B1E066ED71E020E0FD
:1003D00030E0C90184519D4F7C01F901E559FD4F81
:1003E00040E050E0CA0180599F4F112319F08A0F55
:1003F0009B1F02C0860F971FEC0188818083E70155
:1004000019927E014051510931964038DFEF5D0766
:1004100049F711966F5F7F4F285F3F4F20383105B6
:10042000C1F6DF91CF911F91FF90EF900895803139
:1004300018F481E0683008F080E00895803160F4BD
:10044000683050F498E0899FF0011124E559FD4F80
:10045000E60FF11D8081089584E00895CF93DF9326
:10046000C091EF03C031D0F4D091EE03D830B0F496
:1004700080916C03882331F06D2F8C2F0E941E0217
:10048000482F01C042E06D2F8C2F0E94A70181E010
:1004900090916C03911180E080936C03DF91CF9178
:1004A00008950E94640A9091640281E06AE070E01D
:1004B000892780936402882339F08AE090E00E94C3
:1004C000410A80EA90E006C08AE090E00E94410A7A
:1004D00086E990E09F938F930E94490C0F900F90B4
:1004E0006CE070E08AE090E00E94410A8091630233
:1004F0001F928F9389E890E09F938F930E94490CFD
:100500000F900F900F900F900895CF93DF93C82F07
:10051000D62F0E941E02853011F5809163028F5FF5
:100520008093630288E0C89FF0011124E559FD4FD4
:10053000ED0FF11D10826CE070E08AE090E00E9407
:10054000410A809163021F928F938CE790E09F9302
:100550008F930E94490C0F900F900F900F90DF9196
:10056000CF910895A0E0B0E0E8EBF2E00C94B80B76
:1005700088E18093EB02C090ED03A0906A02E12C29
:10058000F12CD12CB12C8E2C86010E191F0917FFCE
:1005900003C0119501951109902EC0E0D0E06C2F99
:1005A000882D0E941E028530A1F4C5018C1B9D0B75
:1005B00097FF03C09195819591092091EB0230E05E
:1005C000A801480F591F421753071CF4890D809347
:1005D000EB022196C830D10511F78FEFE81AF80A1F
:1005E00080E1E816F10479F68091EB02CDB7DEB731
:1005F000ECE00C94D40B80916202882311F0479AAE
:1006000001C0479881E090916202911180E080934F
:10061000620208958091060190910701019671F49C
:1006200080ED97E090930701809306018091ED03A0
:100630008093010180916A02809300010895809166
:1006400001019091ED03981306C020916A029091E8
:100650000001291759F090916102992311F040E0AF
:1006600001C048E0609100010E94A70190916102E1
:1006700081E089278093610208958091060190911D
:1006800007010895CF93DF93CEE4D1E06981809193
:100690000001680F98818091010149E0890F0E9453
:1006A000A701229681E0C635D80781F7DF91CF9167
:1006B000089590915F0281E0892780935F020895F9
:1006C00080915F0208958091600208951092600207
:1006D000109264021092630210925D028FEF809379
:1006E00000018093010108958091E702813099F41F
:1006F00020915E0290916302222329F0963059F4F2
:1007000010925E0204C0933031F480935E028093B5
:10071000600280935D02089580915D02089590913A
:100720005C0281E0892780935C020895EF92FF923A
:100730001F93CF93DF938DE6E82E83E0F82E10E031
:10074000C0E0D0E0F701EC0FFD1F108246E06C2FF7
:10075000812F0E94A7012196C830D10599F788E022
:10076000E80EF11C1F5F103159F7DF91CF911F91F7
:10077000FF90EF900895EF92FF921F93CF93DF9336
:100780008CEEE82E82E0F82E10E0C0E0D0E0F70119
:10079000EC0FFD1F8081882349F06C2F812F0E9470
:1007A0001E02482F6C2F812F0E94A7012196C8306E
:1007B000D10569F788E0E80EF11C1F5F103129F7B9
:1007C000DF91CF911F91FF90EF900895EF92FF92EC
:1007D0000F931F93CF93DF93F82E06E211E0EE24E0
:1007E000E394F801C0818091ED03C80FC03188F512
:1007F000D18180916A02D80FD83058F5FF20B9F026
:1008000088E0C89FF0011124E359FC4FED0FF11D62
:10081000E08280910101C81304C080910001D817C3
:10082000C1F06D2F8C2F0E941E02482F0EC0C330C6
:1008300010F4D33070F088E0C89FF0011124E35920
:10084000FC4FED0FF11D108246E06D2F8C2F0E94A2
:10085000A7010E5F1F4FE1E00E341E0711F6CDB762
:10086000DEB7E6E00C94DA0B0F931F93CF93DF9380
:10087000C82FD62F00916A021091ED03602F6D0FE3
:10088000812F8C0F0E941E029DEF980F212F30E0C8
:10089000923008F45BC0873009F458C0F90183E056
:1008A000EE0FFF1F8A95E1F7E559FD4FE00FF11DAF
:1008B000108240E0602F812F0E94A70180915C028E
:1008C000882319F080E00E94E6038091ED038C0FED
:1008D0008093ED0360916A026D0F60936A020E943B
:1008E00085028091ED0360916A0228E0829FF00109
:1008F0001124E559FD4FE60FF11D91E0908341E091
:100900000E94A7010E94B202853008F047988091AA
:10091000060190910701019689F080910101909163
:10092000ED03981306C020916A02909100012917E7
:1009300029F048E0609100010E94A70180915C02CB
:10094000882359F081E00E94E60307C02C0F311D77
:100950002031310511F40E9474030091EE031091CF
:10096000EF03602F812F0E941E02482F602F812FDE
:100970000E94A7018091ED03C80FC093EF038091FF
:100980006A02D80FD093EE030E942E02DF91CF911E
:100990001F910F9108950F931F93CF93DF93182FFB
:1009A000062F88E0189FF0011124E451FD4FE60F57
:1009B000F11D81E08083812F0E941E02C82F482FE5
:1009C000602F812F0E94A701C11103C0CEE4D1E0A6
:1009D0000CC0C530E9F4FACF6981600F683050F07F
:1009E000229681E0C635D80799F08881810F803141
:1009F000B8F7F2CF98E0899FF0011124E451FD4F40
:100A0000E60FF11D90819111EBCF0E94CB04E8CF4E
:100A1000DF91CF911F910F910895CF93DF930E94A3
:100A20006101D0E0C0E046E06C2F8D2F0E94A7014D
:100A3000CF5FC830C1F7DF5FD031A1F760916A02A4
:100A40008091ED030E94CB0441E060916A028091A5
:100A5000ED030E94A70142E06091EE038091EF0355
:100A60000E94A701DF91CF9108950E94D1010E94B9
:100A70000D050895CF93DF93809164028823F1F0F0
:100A8000D091EE03C091EF036D2F8C2F0E941E02B8
:100A90008730A1F488E0C89FF0011124E559FD4F8B
:100AA000ED0FF11D108240E06D2F8C2F0E94A701E9
:100AB0006091EE038091EF030E94CB04DF91CF9110
:100AC0000895CF93DF93D091EE03C091EF036D2F84
:100AD0008C2F0E941E02833079F488E0C89FF001B9
:100AE0001124E559FD4FED0FF11D87E0808347E0AC
:100AF0006D2F8C2F0E94A7010E943A05DF91CF91A4
:100B00000895A0E0B0E0E7E8F5E00C94BA0B8FEFB1
:100B10009FEF90930701809306012EE4E22E21E0DF
:100B2000F22E36E5A32E31E0B32EF701C08180917D
:100B30000101C80FD18180910001D80F6D2F8C2F3A
:100B40000E941E028B7F0C2F10E0CD2ED12C833003
:100B5000A1F4F80193E0EE0FFF1F9A95E1F7E55934
:100B6000FD4FEC0DFD1D108240E06D2F8C2F0E947B
:100B7000A7016D2F8C2F0E94CB046D2F8C2F0E940C
:100B80001E02813021F48093600210925D0283E0A6
:100B9000000F111F8A95E1F704511D4FF801EC0D6C
:100BA000FD1D8081882331F06D2F8C2F0E941E0245
:100BB000482F01C046E06D2F8C2F0E94A701F2E064
:100BC000EF0EF11CAE14BF0409F0AFCF809101010C
:100BD0009091ED0389130CC02091000190916A025D
:100BE000291306C081E08093600210925D0205C067
:100BF00040E0609100010E94A7018FEF8093000107
:100C0000809301014698CDB7DEB7EAE00C94D60B8D
:100C1000CF93DF93209106013091070121503109D4
:100C20003093070120930601C9016AE070E00E9439
:100C30007F0B8091040190910501861B970B821711
:100C4000930750F00E941F038091060190910701C5
:100C500090930501809304014698CEE4D1E0698128
:100C600080910001680F988180910101890F0E9495
:100C70001E02813009F4469A229621E0C635D20739
:100C800071F7909101018091ED03981307C0909145
:100C9000000180916A02981301C0469A8091060172
:100CA000909107018D32914010F40E94420380918F
:100CB000060190910701892B11F40E948105DF91B3
:100CC000CF91089580E80E94140A0895A1E0B0E051
:100CD000ECE6F6E00C94BC0B182F80E099830E94A0
:100CE0003B0AC12E9981D92E08E0760110E1F70167
:100CF00080810E943B0A1150F8E0EF0EF11C1111A7
:100D0000F6CF01508FEFC81AD80A0111EECF219605
:100D1000E8E00C94D80BA2E0B0E0E1E9F6E00C9436
:100D2000C10B182F803198F4683088F481E04A8331
:100D300069830E943B0A698120E1629FC0011124FE
:100D4000812B0E943B0A4A81842F0E943B0A2296F3
:100D5000E3E00C94DD0BA2E0B0E0E1EBF6E00C94F4
:100D6000BE0B182F8830B8F482E069837A830E9422
:100D70003B0A812F0E943B0A6981E62E7A81F72E79
:100D80008701005F1F4FF70181917F010E943B0A9D
:100D9000E016F106C1F72296E6E00C94DA0BA2E029
:100DA000B0E0E5EDF6E00C94BE0B182F8031B8F4FE
:100DB00083E069837A830E943B0A812F0E943B0A69
:100DC0006981E62E7A81F72E8701085F1F4FF701B0
:100DD00081917F010E943B0AE016F106C1F722963D
:100DE000E6E00C94DA0B84E00E943B0A82E00E9469
:100DF0003B0A089584E00E943B0A81E00E943B0A7E
:100E0000089584E00E943B0A88E00E943B0A08950E
:100E100084E00E943B0A84E00E943B0A08958FE030
:100E20000E943B0A0895FB019C01285F3F4FDC01B3
:100E30004D91CD014193A217B307C9F70895FB0166
:100E40009C01205F3F4FDC014D91CD014193A217E2
:100E5000B307C9F708959C01285F3F4FFC016193D8
:100E6000CF01E217F307D1F708959C01205F3F4FB0
:100E7000FC016193CF01E217F307D1F708950E94B7
:100E800062060E94DD0040E060E07BE480E090E0EC
:100E90000E9438090E940E0B3F9A789408950E9490
:100EA000640A6AE070E08AE090E00E94410A83E20E
:100EB00091E09F938F930E94490C6CE070E08AE070
:100EC00090E00E94410A8DEF90E09F938F930E94E3
:100ED000490C6EE070E08AE090E00E94410A87EEE3
:100EE00090E09F938F930E94490C0E9464010F90A1
:100EF0000F900F900F900F900F900E947509811125
:100F000005C00E94EB008F3FC1F308958091040556
:100F1000909105050E940B0C8F7D833591F7089504
:100F20000E94640A0E9435050E94EB000E947C0921
:100F300008954F925F926F927F928F929F92AF929D
:100F4000BF92CF92DF92EF92FF92CF93DF930E94F6
:100F5000260B2B013C016AE070E08AE090E00E94E1
:100F6000410A8DED90E09F938F930E94490C6CE0B5
:100F700070E08AE090E00E94410A81ED90E09F934A
:100F80008F930E94490C0F900F900F900F90530178
:100F900042010E9463038111D2C00E946003882332
:100FA00029F00E9475098823A1F3BCC00E94630345
:100FB0008111F7CF0E94EB00D82F0E94750988237A
:100FC00071F080910405909105050E940B0CC82FCB
:100FD000DD2341F0843631F0843421F006C0D11194
:100FE0000AC0CFEF60E081E01EC0D13039F08F7DC4
:100FF000813421F006C0D13049F4CFEF60E08FEFAB
:1010000012C0D23031F0873521F007C0D23019F448
:10101000CFEF61E007C08FEDCFEFD33011F0833514
:1010200021F46FEF80E00E943404DC2FDF7DD534A3
:1010300019F40E94610520C0D33419F40E945102B2
:101040001BC0C03219F40E940A0305C0D03519F440
:101050000E94590311C0D63479F40E948F0388236B
:1010600031F00E94960381E00E94E60305C080E013
:101070000E94E6030E94BB030E94260B6B017C01C9
:10108000D301C2018C509E4FAF4FBF4FC816D90637
:10109000EA06FB0620F00E942E02260137010E947C
:1010A000B202843081F4D501C40184529A4FAF4F0B
:1010B000BF4FC816D906EA06FB0628F00E94FB02BD
:1010C000460157016ACF0E94B202833059F4D5011C
:1010D000C40188519C4FAF4FBF4FC816D906EA06CE
:1010E000FB0660F70E94B202823059F4D501C401B8
:1010F0008C509E4FAF4FBF4FC816D906EA06FB066D
:10110000E8F60E94B202813009F047CFD501C40150
:1011100086509F4FAF4FBF4FC816D906EA06FB0651
:1011200068F63BCF80910405909105050E940B0C59
:101130008F7D803509F02DCF0E9459032ACFDF9192
:10114000CF91FF90EF90DF90CF90BF90AF909F90A6
:101150008F907F906F905F904F9008950E948C03C6
:10116000882319F00E94660308956EE070E08AE01B
:1011700090E00E94410A87EC90E09F938F930E9439
:10118000490C6FE070E08AE090E00E94410A89EA31
:1011900090E09F938F930E94490C0F900F900F90B7
:1011A0000F900E94EB008F3FE1F3DCCFCF93C82F6D
:1011B0008A3019F48DE00E94D6088FB7807890911C
:1011C000F1039F3F29F48111FACF81E090E020C024
:1011D000F894E091F00391E09E0F9093F003F0E01B
:1011E000EE50FC4FC0839091F1039F5F9093F10309
:1011F0009091F0039F3F11F41092F0039091C10081
:1012000090629093C100882309F0789480E090E088
:10121000CF910895809103058823E1F32FB72078BB
:10122000F8948091F1043091030590E0831B9109BB
:10123000E091F10497FF08C080910305F0E0E81BFE
:10124000F109EE5FFA4F07C080910305F0E0E81B5B
:10125000F109EE50FB4F80819091030591509093DE
:101260000305222309F07894082E000C990B0895A9
:101270001092F0031092F1031092F1041092030502
:1012800010920205409365029B01AC0183E0220F9E
:10129000331F441F551F8A95D1F760E072E18AE73A
:1012A00090E00E94930BCA01B9016F5F7F4F8F4F8F
:1012B0009F4F22E030E040E050E00E94930B21502D
:1012C00031093093C5002093C400E1ECF0E088E1DF
:1012D0008083808180688083E4E0F5E088E091E0AD
:1012E000938382839183808308959091030581E0A5
:1012F000911101C080E008951092F104109203054D
:1013000008951F920F920FB60F9211242F938F936F
:101310009F93EF93FF938091F103882319F18091BC
:10132000F0032091F10390E0821B9109E091F0031A
:1013300097FF08C08091F103F0E0E81BF109EF503E
:10134000FB4F07C08091F103F0E0E81BF109EE507C
:10135000FC4F90818091F10381508093F103909331
:10136000C60005C08091C1008F7D8093C100FF91B0
:10137000EF919F918F912F910F900FBE0F901F9023
:1013800018951F920F920FB60F9211242F933F932F
:101390004F935F936F937F938F939F93AF93BF937D
:1013A000CF93EF93FF93C091C6008091650288238D
:1013B00049F08091F1038F3F29F060E070E08C2FBD
:1013C0000E94D60880910305803120F081E080934F
:1013D000020518C0CD3009F4CAE0E091F10481E0C3
:1013E0008E0F8093F104F0E0EE50FB4FC0838091AC
:1013F00003058F5F809303058091F104803111F420
:101400001092F104FF91EF91CF91BF91AF919F9115
:101410008F917F916F915F914F913F912F910F909D
:101420000FBE0F901F90189594B1906B94B92C9AA1
:1014300090E59CBD883021F0803211F0823019F4A3
:1014400091E09DBD01C01DBC803269F028F4883058
:1014500069F0803159F00DC0803429F0803849F4AA
:101460008CB581608CBD8CB5826002C08CB581600A
:101470008CBD2C9808958EBD0DB407FEFDCF8EB5A2
:1014800008959F938F937F936F9383E791E09F934A
:101490008F930E94490C0F900F900F900F900F9018
:1014A0000F9008958EE691E09F938F930E94490CD0
:1014B0000F900F90089589E691E09F938F930E947B
:1014C000490C0F900F90089584E691E09F938F93BD
:1014D0000E94490C0F900F90089580E691E09F9331
:1014E0008F930E94490C0F900F9008959F938F93B4
:1014F0008AE591E09F938F930E94490C0F900F9083
:101500000F900F90089583E591E09F938F930E9431
:10151000490C0F900F9008958CE491E09F938F9366
:101520000E94490C0F900F90089588E491E09F93DA
:101530008F930E94490C0F900F900895262F062E2E
:10154000000C330B3F936F93282F082E000C330BA6
:101550003F938F938FE391E09F938F930E94490C69
:101560000F900F900F900F900F900F9008958CE3B5
:1015700091E09F938F930E94490C0F900F900895D4
:1015800089E391E09F938F930E94490C0F900F90F5
:101590000895CF93DF93C62FD42F682F880F770B32
:1015A0008C2F0C2E000C990B0E94410A0E945B0AA2
:1015B000DC1734F080E290E00E946F0CCF5FF8CF30
:1015C0000E94520ADF91CF9108950F931F93CF93FA
:1015D000DF93C62FD42F062E000C770B082E000C9D
:1015E000990B0E94410A0E945B0A02E311E080E22B
:1015F00090E0CD1754F40E946F0C1F930F930E943C
:10160000490CCF5F0F900F90F2CF0E946F0C0E9499
:10161000520ADF91CF911F910F91089510926602A7
:1016200010926702109268021092690216BC8CE751
:1016300087BD82E084BD83E085BDEEE6F0E0808179
:101640008260808385B3827085BB08952FB7F8943C
:1016500060916602709167028091680290916902C0
:1016600027FF01C0789408951F920F920FB60F9232
:1016700011242F933F934F935F936F937F938F9397
:101680009F93AF93BF93EF93FF93809166029091E6
:101690006702A0916802B09169020196A11DB11D77
:1016A0008093660290936702A0936802B0936902E8
:1016B0000E946003811107C00E943D03813D974055
:1016C00010F40E940806FF91EF91BF91AF919F9196
:1016D0008F917F916F915F914F913F912F910F90DB
:1016E0000FBE0F901F9018950E943F070E944F0752
:1016F0000E9490070E9499070E94AE08F9CFAA1B8A
:10170000BB1B51E107C0AA1FBB1FA617B70710F0EC
:10171000A61BB70B881F991F5A95A9F7809590951E
:10172000BC01CD010895052E97FB1EF400940E9484
:10173000AA0B57FD07D00E94E90B07FC03D04EF41B
:101740000C94AA0B50954095309521953F4F4F4FE3
:101750005F4F089590958095709561957F4F8F4F5D
:101760009F4F08952F923F924F925F926F927F9278
:101770008F929F92AF92BF92CF92DF92EF92FF92A1
:101780000F931F93CF93DF93CDB7DEB7CA1BDB0B4D
:101790000FB6F894DEBF0FBECDBF09942A883988F2
:1017A00048885F846E847D848C849B84AA84B984F9
:1017B000C884DF80EE80FD800C811B81AA81B98105
:1017C000CE0FD11D0FB6F894DEBF0FBECDBFED0119
:1017D0000895A1E21A2EAA1BBB1BFD010DC0AA1F72
:1017E000BB1FEE1FFF1FA217B307E407F50720F08A
:1017F000A21BB30BE40BF50B661F771F881F991F05
:101800001A9469F760957095809590959B01AC014D
:10181000BD01CF010895CF93DF93EC012B8120FF11
:1018200033C026FF0AC02F7B2B838E819F810196B8
:101830009F838E838A8190E029C022FF0FC0E881B8
:10184000F9818081082E000C990B009719F4206211
:101850002B831AC03196F983E8830EC0EA85FB8595
:10186000099597FF09C02B81019611F080E201C014
:1018700080E1822B8B8308C02E813F812F5F3F4FF9
:101880003F832E83992702C08FEF9FEFDF91CF9187
:101890000895A0E0B0E0EFE4FCE00C94C00BAE01D2
:1018A000495F5F4FDA016D917D91AD0104E015E074
:1018B000F80182819381DC0113962C9113972860A3
:1018C00013962C930E94760CD8011296ED91FC9100
:1018D00013972381277F2383E4E00C94DC0B609132
:1018E0000605709107050E945F0E0895ACE0B0E018
:1018F000ECE7FCE00C94B20B6C017B018A01FC016B
:1019000017821682838181FFBEC1CE0101964C01F0
:10191000F6019381F70193FD859193FF81917F01FA
:10192000882309F4ACC1853239F493FD859193FF86
:1019300081917F01853229F4B60190E00E945F0E0B
:10194000E7CF512C312C20E02032A0F48B3269F00B
:1019500030F4803259F0833269F420612CC08D322A
:1019600039F0803339F4216026C02260246023C01E
:10197000286021C027FD27C030ED380F3A3078F4B9
:1019800026FF06C0FAE05F9E300D1124532E13C0CF
:101990008AE0389E300D1124332E20620CC08E3226
:1019A00021F426FD6CC1206406C08C3611F4206839
:1019B00002C0883641F4F70193FD859193FF819130
:1019C0007F018111C1CF982F9F7D9554933028F4CA
:1019D0000C5F1F4F9FE399830DC0833631F083372F
:1019E00071F0833509F05BC022C0F80180818983E2
:1019F0000E5F1F4F44244394512C540115C03801ED
:101A0000F2E06F0E711CF801A080B18026FF03C0C8
:101A1000652D70E002C06FEF7FEFC5012C870E943B
:101A2000540E2C0183012C852F77222E17C03801EC
:101A3000F2E06F0E711CF801A080B18026FF03C098
:101A4000652D70E002C06FEF7FEFC5012C870E940B
:101A5000490E2C012C852068222E830123FC1BC0FB
:101A6000832D90E048165906B0F4B60180E290E06C
:101A70000E945F0E3A94F4CFF50127FC859127FE72
:101A800081915F01B60190E00E945F0E31103A949F
:101A9000F1E04F1A51084114510471F7E6C0843641
:101AA00011F0893639F5F80127FF07C0608171818F
:101AB000828193810C5F1F4F08C060817181072E66
:101AC000000C880B990B0E5F1F4F2F76722E97FF1D
:101AD00009C090958095709561957F4F8F4F9F4F6E
:101AE0002068722E2AE030E0A4010E948F0EA82EFA
:101AF000A81844C0853729F42F7EB22E2AE030E0A2
:101B000025C0F22FF97FBF2E8F36C1F018F488352B
:101B100079F0B5C0803719F0883721F0B0C02F2F89
:101B20002061B22EB4FE0DC08B2D8460B82E09C08A
:101B300024FF0AC09F2F9660B92E06C028E030E02F
:101B400005C020E130E002C020E132E0F801B7FE3C
:101B500007C060817181828193810C5F1F4F06C035
:101B60006081718180E090E00E5F1F4FA4010E94B0
:101B70008F0EA82EA818FB2DFF777F2E76FE0BC0A8
:101B8000372D3E7FA51450F474FE0AC072FC08C0C5
:101B9000372D3E7E05C0BA2C372D03C0BA2C01C0AC
:101BA000B52C34FF0DC0FE01EA0DF11D808180339C
:101BB00011F4397E09C032FF06C0B394B39404C057
:101BC000832F867809F0B39433FD13C030FF06C02D
:101BD000B31498F43A0C532C5B1810C0B31470F47F
:101BE000B60180E290E03C870E945F0EB3943C8592
:101BF000F5CFB31418F43B1802C05A2C312C34FF23
:101C000012C0B60180E390E03C870E945F0E3C85E5
:101C100032FF17C031FD03C088E790E002C088E5BD
:101C200090E0B6010CC0832F867859F031FF02C0D6
:101C30008BE201C080E237FD8DE2B60190E00E94A8
:101C40005F0EA51438F4B60180E390E00E945F0EA9
:101C50005A94F7CFAA94F401EA0DF11D8081B601E0
:101C600090E00E945F0EA110F5CF332009F450CE12
:101C7000B60180E290E00E945F0E3A94F6CFF60142
:101C80008681978102C08FEF9FEF2C96E2E10C9442
:101C9000CE0BFC010590615070400110D8F7809583
:101CA00090958E0F9F1F0895FC0161507040019028
:101CB0000110D8F7809590958E0F9F1F08950F9370
:101CC0001F93CF93DF93182F092FEB018B8181FD99
:101CD00003C08FEF9FEF1EC082FF0FC02E813F8198
:101CE0008C819D812817390774F4E881F981CF012F
:101CF000019699838883108306C0E885F985812F32
:101D00000995892B31F78E819F8101969F838E8360
:101D1000812F902FDF91CF911F910F910895FA019C
:101D2000AA27283051F1203181F1E8946F936E7F1A
:101D30006E5F7F4F8F4F9F4FAF4FB1E03ED0B4E00B
:101D40003CD0670F781F891F9A1FA11D680F791F4C
:101D50008A1F911DA11D6A0F711D811D911DA11D5D
:101D600020D009F468943F912AE0269F112430196D
:101D7000305D3193DEF6CF010895462F4770405D08
:101D80004193B3E00FD0C9F7F6CF462F4F70405DB7
:101D90004A3318F0495D31FD4052419302D0A9F712
:101DA000EACFB4E0A6959795879577956795BA950C
:101DB000C9F700976105710508959B01AC010A2ED2
:101DC00006945795479537952795BA95C9F7620FA9
:0E1DD000731F841F951FA01D0895F894FFCF68
:101DDE00FFFFFFFFD007FFFF000000030000000021
:101DEE00D6080A0900007D4545390010387C3810A8
:101DFE00007D2111217DFEFFFE00FE01FFFEFFFF93
:101E0E00FF00FF01FF0200FE00FF0001000201FEC5
:101E1E0001FF01000101010202FF020002010001A7
:101E2E0000FF0100FF000404000500040000040090
:101E3E000404000304040304000404040404030063
:101E4E000004000004040000000003000000000075
:101E5E000000040404040404000400040304040445
:101E6E000404050003050303030404040504050428
:101E7E00000000030304000000040004030000033C
:101E8E000003000400040000000300040400040327
:101E9E00040004000004000000030000040400031A
:101EAE000504000404040003000300000004040001
:101EBE0000040004000400040004000000030404F5
:101ECE0003040003000400040004040404000300DF
:101EDE0000000004000405040004000003000004D8
:101EEE0000000004000004040304050004000004C4
:101EFE0003040000040400000004040404000400B1
:101F0E0000000403000400000003000003000300AF
:101F1E00030003000004000000040000030004009E
:061F2E000003030005049E
:00000001FF
