:100000000C94BE000C94DB000C94DB000C94DB0021
:100010000C94DB000C9413010C94DB000C94DB00BB
:100020000C94DB000C94DB000C94DB000C94DB00E4
:100030000C94DB000C94DB000C94DB000C94DB00D4
:100040000C94180C0C94DB000C94DB000C94DB007B
:100050000C94A50A0C94650A0C94DB000C94DB004C
:100060000C94DB000C94DB000C94DB000C94DB00A4
:100070000C94DB000C94DB000C94DB004469616D94
:100080006F6E64733A202564004469616D6F6E641D
:10009000733A202564004368656174206F666600CA
:1000A0004368656174206F6E0050726573732061E0
:1000B00020627574746F6E20746F20737461727433
:1000C00020616761696E0047414D45204F5645529A
:1000D000004469616D6F6E64733A20300043686557
:1000E0006174206F66660053747564656E74206E6B
:1000F000756D3A2034363832323339340043535335
:1001000045323031302F373230312070726F6A65AE
:100110006374206279203C4A696179692057414EB5
:10012000473E004469616D6F6E64204D696E657273
:1001300073001B5B421B5B44001B44001B4D001BF8
:100140005B25643B256472001B5B72001B5B3F32C6
:100150003568001B5B3F32356C001B5B25646D000E
:100160001B5B4B001B5B324A001B5B376D001B5B4C
:10017000306D001B5B25643B2564480011241FBEC5
:10018000CFEFD8E0DEBFCDBF12E0A0E0B1E0EEEDF2
:10019000F2E202C005900D92A635B107D9F724E02E
:1001A000A6E5B2E001C01D92AB38B207E1F70E94AC
:1001B000580C0C946D110C940000E8E6F0E080817E
:1001C00082608083D99AECE6F0E080818F60808342
:1001D00010925602089580915602181614F58091D7
:1001E00057026FB7F89491E0292F30E04091560202
:1001F000042E000C550B2417350754F4F901E95A65
:10020000FD4F4081F901EA5AFD4F40839F5FECCFDB
:100210009091560291509093560267FF03C07894D4
:1002200008958FEF08951F920F920FB60F92112429
:100230002F933F934F935F936F937F938F939F93EE
:10024000EF93FF9343B14F7080E090E0642F70E034
:1002500020915602243004F59B01082E02C03595EA
:1002600027950A94E2F720FF17C020915B0230E047
:10027000082E02C0359527950A94E2F720FD0CC0A0
:10028000E091560221E02E0F209356020E2E000C14
:10029000FF0BE95AFD4F8083019684309105C1F62A
:1002A00040935B02FF91EF919F918F917F916F91AE
:1002B0005F914F913F912F910F900FBE0F901F9024
:1002C00018950E9415070895CF92DF92EF92FF9242
:1002D0001F93CF93DF93CDB7DEB728970FB6F8946F
:1002E000DEBF0FBECDBF0E94150786E1C82E81E09C
:1002F000D82E10E0CE0101967C01F60181916F01AC
:1003000080FD02C090EF01C09FE0FE01389687FF9C
:1003100002C0908301C01082880F3197EE16FF064D
:10032000B1F71982B701812F0E94D5061F5F1031E6
:1003300021F728960FB6F894DEBF0FBECDBFDF9130
:10034000CF911F91FF90EF90DF90CF900895803173
:1003500038F5683028F5413091F0423091F09DEF4A
:10036000940F923080F0453081F0463081F0473074
:1003700081F0483081F0493081F040E00FC04FE01B
:100380000DC041E00BC04FED09C040EF07C045E391
:1003900005C04CE303C041E101C043E10E94910666
:1003A0000895EF92FF921F93CF93DF9310926E0305
:1003B00010926B0281E08093700310926F03809320
:1003C0006D0310915E02A6E5B1E066ED71E020E0FC
:1003D00030E0C90183519D4F7C01F901E459FD4F83
:1003E00040E050E0CA0180599F4F112319F08A0F55
:1003F0009B1F02C0860F971FEC0188818083E70155
:1004000019927E014051510931964038DFEF5D0766
:1004100049F711966F5F7F4F285F3F4F20383105B6
:10042000C1F6DF91CF911F91FF90EF900895803139
:1004300018F481E0683008F080E00895803160F4BD
:10044000683050F498E0899FF0011124E459FD4F81
:10045000E60FF11D8081089584E00895CF93DF9326
:10046000C0917003C031D0F4D0916F03D830B0F494
:1004700080916D03882331F06D2F8C2F0E941E0216
:10048000482F01C042E06D2F8C2F0E94A70181E010
:1004900090916D03911180E080936D03DF91CF9176
:1004A00008950E94480B9091640281E06AE070E038
:1004B000892780936402882339F08AE090E00E94C3
:1004C000250B80EA90E006C08AE090E00E94250BB0
:1004D00086E990E09F938F930E94C90E0F900F9032
:1004E0006CE070E08AE090E00E94250B809163024E
:1004F0001F928F9389E890E09F938F930E94C90E7B
:100500000F900F900F900F900895CF93DF93C82F07
:10051000D62F0E941E02853011F5809163028F5FF5
:100520008093630288E0C89FF0011124E459FD4FD5
:10053000ED0FF11D10826CE070E08AE090E00E9407
:10054000250B809163021F928F938CE790E09F931D
:100550008F930E94C90E0F900F900F900F90DF9114
:10056000CF910895A0E0B0E0E8EBF2E00C94BE0C6F
:1005700088E18093EC02C0906E03A0906B02E12CA6
:10058000F12CD12CB12C8E2C86010E191F0917FFCE
:1005900003C0119501951109902EC0E0D0E06C2F99
:1005A000882D0E941E028530A1F4C5018C1B9D0B75
:1005B00097FF03C09195819591092091EC0230E05D
:1005C000A801480F591F421753071CF4890D809347
:1005D000EC022196C830D10511F78FEFE81AF80A1E
:1005E00080E1E816F10479F68091EC02CDB7DEB730
:1005F000ECE00C94DA0C80916202882311F0479AA7
:1006000001C0479881E090916202911180E080934F
:10061000620208958091060190910701019671F49C
:1006200080ED97E0909307018093060180916E031F
:100630008093010180916B02809300010895909155
:100640006E0380910101981306C090916B02809116
:1006500000019817D9F020916102809104019091D6
:10066000050164E170E00E94630C222329F081E01F
:100670000E946D0740E004C080E00E946D0748E0E2
:1006800060910001809101010E94A7019091610297
:1006900081E08927809361020895809106019091FD
:1006A00007010895CF93DF93CEE4D1E06981809173
:1006B0000001680F98818091010149E0890F0E9433
:1006C000A701229681E0C635D80781F7DF91CF9147
:1006D000089590915F0281E0892780935F020895D9
:1006E00080915F02089580916002089510926002E7
:1006F000109264021092630210925D028FEF809359
:1007000000018093010108958091E802813099F4FD
:1007100020915E0290916302222329F0963059F4D1
:1007200010925E0204C0933031F480935E02809395
:10073000600280935D02089580915D02089590911A
:100740005C0281E0892780935C020895CF93DF9358
:10075000D0E0C0E046E06C2F8D2F0E94A701CF5F54
:10076000C830C1F7DF5FD031A1F7DF91CF91089595
:10077000EF92FF921F93CF93DF938DEEE82E82E0EE
:10078000F82E10E0C0E0D0E0F701EC0FFD1F8081F3
:10079000882349F06C2F812F0E941E02482F6C2F56
:1007A000812F0E94A7012196C830D10569F788E002
:1007B000E80EF11C1F5F103129F7DF91CF911F91D7
:1007C000FF90EF900895A0E0B0E0E9EEF3E00C9424
:1007D000C30CD82E06E211E08EE4E82E81E0F82E5C
:1007E000F801C08180916E03C80FC031E0F4D1815F
:1007F00080916B02D80FD830B0F4DD2079F06D2FE6
:100800008C2F0E941E02482F6D2F8C2F0E94A70153
:1008100041E060916B0280916E0303C046E06D2F52
:100820008C2F0E94A7010E5F1F4FE016F106C1F644
:10083000CDB7DEB7E7E00C94DF0C0F931F93CF9397
:10084000DF93C82FD62F00916B0210916E03602F9B
:100850006D0F812F8C0F0E941E029DEF980F212F8C
:1008600030E0923008F45BC0873009F458C0F901D9
:1008700083E0EE0FFF1F8A95E1F7E459FD4FE00F8B
:10088000F11D108240E0602F812F0E94A70180910E
:100890005C02882319F080E00E94E30380916E03DC
:1008A0008C0F80936E0360916B026D0F60936B02EF
:1008B0000E94850280916E0360916B0228E0829F06
:1008C000F0011124E459FD4FE60FF11D91E09083F2
:1008D00041E00E94A7010E94B202853008F04798CB
:1008E0008091060190910701019689F080910101A4
:1008F00090916E03981306C020916B0290910001B5
:10090000291729F048E0609100010E94A701809119
:100910005C02882359F081E00E94E30307C02C0F9A
:10092000311D2031310511F40E94840300916F03C1
:1009300010917003602F812F0E941E02482F602F9C
:10094000812F0E94A70180916E03C80FC09370038E
:1009500080916B02D80FD0936F030E942E02DF911B
:10096000CF911F910F9108950F931F93CF93DF9312
:10097000182F062F88E0189FF0011124E351FD4F36
:10098000E60FF11D81E08083812F0E941E02C82F97
:10099000482F602F812F0E94A701C11103C0CEE410
:1009A000D1E00CC0C530E9F4FACF6981600F68303E
:1009B00050F0229681E0C635D80799F08881810FE2
:1009C0008031B8F7F2CF98E0899FF0011124E3510C
:1009D000FD4FE60FF11D90819111EBCF0E94B40401
:1009E000E8CFDF91CF911F910F910895CF93DF93BF
:1009F0000E946101D0E0C0E046E06C2F8D2F0E9484
:100A0000A701CF5FC830C1F7DF5FD031A1F7609198
:100A10006B0280916E030E94B40441E060916B020E
:100A200080916E030E94A70142E060916F03809164
:100A300070030E94A701DF91CF9108950E94D10118
:100A40000E94F6040895CF93DF9380916402882377
:100A5000F1F0D0916F03C09170036D2F8C2F0E9425
:100A60001E028730A1F488E0C89FF0011124E459E8
:100A7000FD4FED0FF11D108240E06D2F8C2F0E9475
:100A8000A70160916F03809170030E94B404DF910D
:100A9000CF91089560916F03809170030E941E02B0
:100AA0008B7F8330A1F481E00E94890780917003DD
:100AB00060916F0398E0899FF0011124E459FD4F84
:100AC000E60FF11D97E0908347E00E94A7010E9486
:100AD00023050895A0E0B0E0E0E7F5E00C94C00C39
:100AE0008FEF9FEF909307018093060183E00E94B0
:100AF000B10760E080E00E946D072EE4E22E21E065
:100B0000F22E36E5A32E31E0B32EF701C08180919D
:100B10000101C80FD18180910001D80F6D2F8C2F5A
:100B20000E941E028B7F0C2F10E0CD2ED12C833023
:100B3000A1F4F80193E0EE0FFF1F9A95E1F7E45955
:100B4000FD4FEC0DFD1D108240E06D2F8C2F0E949B
:100B5000A7016D2F8C2F0E94B4046D2F8C2F0E9443
:100B60001E02813021F48093600210925D0283E0C6
:100B7000000F111F8A95E1F703511D4FF801EC0D8D
:100B8000FD1D8081882331F06D2F8C2F0E941E0265
:100B9000482F01C046E06D2F8C2F0E94A701F2E084
:100BA000EF0EF11CAE14BF0409F0AFCF809101012C
:100BB00090916E0389130CC02091000190916B02FB
:100BC000291306C081E08093600210925D0205C087
:100BD00040E0609100010E94A7018FEF8093000127
:100BE00080930101469880915C02882329F00E943D
:100BF000A60381E00E94E303CDB7DEB7EAE00C94E0
:100C0000DC0CCF93DF932091060130910701215036
:100C100031093093070120930601C9016AE070E0B1
:100C20000E94630C8091040190910501861B970B33
:100C30002817390750F40E941F03809106019091F4
:100C4000070190930501809304014698CEE4D1E01A
:100C5000698180910001680F988180910101890F5D
:100C60000E941E02813009F4469A229621E0C63580
:100C7000D20771F79091010180916E03981307C01C
:100C80009091000180916B02981301C0469A809167
:100C9000060190910701853F914018F481E00E9480
:100CA000B10780910601909107018D32914028F49F
:100CB0000E94520382E00E94B10780910601909148
:100CC0000701892B11F40E946A05DF91CF910895E5
:100CD00080E80E94F80A0895A1E0B0E0E2E7F6E0BB
:100CE0000C94C20C182F80E099830E941F0BC12E18
:100CF0009981D92E08E0760110E1F70180810E94E8
:100D00001F0B1150F8E0EF0EF11C1111F6CF01503E
:100D10008FEFC81AD80A0111EECF2196E8E00C94A3
:100D2000DE0CA2E0B0E0E7E9F6E00C94C70C182F67
:100D3000803198F4683088F481E04A8369830E94A6
:100D40001F0B698120E1629FC0011124812B0E9449
:100D50001F0B4A81842F0E941F0B2296E3E00C9404
:100D6000E30CA2E0B0E0E7EBF6E00C94C40C182F23
:100D70008830B8F482E069837A830E941F0B812F48
:100D80000E941F0B6981E62E7A81F72E8701005F92
:100D90001F4FF70181917F010E941F0BE016F106A2
:100DA000C1F72296E6E00C94E00CA2E0B0E0EBED97
:100DB000F6E00C94C40C182F8031B8F483E06983FA
:100DC0007A830E941F0B812F0E941F0B6981E62EE0
:100DD0007A81F72E8701085F1F4FF70181917F010C
:100DE0000E941F0BE016F106C1F72296E6E00C9474
:100DF000E00C84E00E941F0B82E00E941F0B08950C
:100E000084E00E941F0B81E00E941F0B089584E084
:100E10000E941F0B88E00E941F0B089584E00E942F
:100E20001F0B84E00E941F0B08958FE00E941F0B90
:100E30000895FB019C01285F3F4FDC014D91CD01DE
:100E40004193A217B307C9F70895FB019C01205FE6
:100E50003F4FDC014D91CD014193A217B307C9F774
:100E600008959C01285F3F4FFC016193CF01E21779
:100E7000F307D1F708959C01205F3F4FFC01619378
:100E8000CF01E217F307D1F708959C0140E050E04D
:100E900060E472E48FE090E00E94770CC90108954D
:100EA000CF92DF92EF92FF926B017C01BA0180E05A
:100EB00090E00E94900DA70196010E941E0E20E076
:100EC00030E048EC52E40E94EF0C0E94610DCB012F
:100ED000FF90EF90DF90CF90089590E19AB993E260
:100EE000909380009AE19093810070E068547E4F67
:100EF000709389006093880020E430E030938B0089
:100F000020938A00882319F08091650281111AB814
:100F1000089590E19AB990916502911110C08130C5
:100F200019F48CEB92E004C0823039F488EE93E03F
:100F3000909389008093880007C0833029F41AB801
:100F400010928B0010928A0083E2809380008AE1E5
:100F50008093810080E490E090938B0080938A00DE
:100F6000089590E19AB99091650291111AC081306B
:100F700049F480EC94E4909389008093880080E4A5
:100F800090E00AC0823091F480E899E8909389005B
:100F90008093880080E290E090938B0080938A0099
:100FA00005C01AB810928B0010928A0083E28093D9
:100FB00080008AE18093810008959091650281E02C
:100FC00089278093650208950E9468060E94DD00CB
:100FD00040E060E07BE480E090E00E941C0A0E9418
:100FE000F20B3F9A789408950E94480B6AE070E0F3
:100FF0008AE090E00E94250B83E291E09F938F931B
:101000000E94C90E6CE070E08AE090E00E94250B1F
:101010008DEF90E09F938F930E94C90E6EE070E079
:101020008AE090E00E94250B87EE90E09F938F93DB
:101030000E94C90E0E9464010F900F900F900F90B4
:101040000F900F900E94590A811105C00E94EB0079
:101050008F3FC1F3089580918504909186040E948A
:101060008B0E8F7D833591F708950E94480B0E9467
:101070001E050E94EB000E94600A0895A8E0B0E0FF
:10108000E4E4F8E00C94B90C0E940A0C69837A83BA
:101090008B839C836AE070E08AE090E00E94250BDD
:1010A0008DED90E09F938F930E94C90E6CE070E0ED
:1010B0008AE090E00E94250B81ED90E09F938F9352
:1010C0000E94C90E0F900F900F900F90C980DA8088
:1010D000EB80FC80312C44244A94542C32010E9431
:1010E000730381111BC10E947003882329F00E94A1
:1010F000590A8823A1F305C10E9473038111F7CF18
:101100000E94EB00182F0E94590A882371F08091E9
:101110008504909186040E948B0E082F112341F0C4
:10112000843631F0843421F006C011110AC00FEF6B
:1011300060E081E01CC0113039F08F7D813421F0F6
:1011400006C0113051F40FEF60E08FEF10C0123085
:1011500011F0873531F461E009C00FEF1230D9F397
:101160008FED133011F0833521F46FEF80E00E9492
:101170001D04102F1F7D153449F40E944A050E945A
:101180000A0C2B013C013324339425C0133419F489
:101190000E94510220C0003219F40E940A0305C0C7
:1011A000103519F40E94690316C0163481F40E94A8
:1011B0009F03882331F00E94A60381E00E94E3038D
:1011C0000AC080E00E94E3030E94B80304C01D34FB
:1011D00011F40E94DD070E940A0C4B015C01898119
:1011E0009A81AB81BC818C509E4FAF4FBF4F881608
:1011F0009906AA06BB0630F00E942E0289829A82C6
:10120000AB82BC820E94B202843081F4D701C60155
:1012100084529A4FAF4FBF4F88169906AA06BB0655
:1012200028F00E94FB02750164012DC00E94B202E9
:10123000833059F4D701C60188519C4FAF4FBF4F3F
:1012400088169906AA06BB0660F70E94B202823091
:1012500059F4D701C6018C509E4FAF4FBF4F88162F
:101260009906AA06BB06E8F60E94B202813059F43C
:10127000D701C60186509F4FAF4FBF4F88169906C2
:10128000AA06BB0670F60E940A0CA30192012A521C
:101290003D4F4F4F5F4F2D833E834F835887530100
:1012A00042013BE6830E31E0931EA11CB11C681580
:1012B00079058A059B0588F0332079F00E940A0C95
:1012C0002D813E814F8158856217730784079507EA
:1012D00020F482E00E94890706CF0E940A0C2D812B
:1012E0003E814F815885621773078407950708F47C
:1012F000FACE332009F4F7CE83E00E948907312C1F
:10130000F2CE80918504909186040E948B0E8F7D91
:10131000803509F0E4CE0E946903E1CE2896E1E130
:101320000C94D50C0E949C03882319F00E9476032C
:1013300008956EE070E08AE090E00E94250B87EC53
:1013400090E09F938F930E94C90E6FE070E08AE057
:1013500090E00E94250B89EA90E09F938F930E9472
:10136000C90E0F900F900F900F900E94EB008F3FCF
:10137000E1F3DCCFCF93C82F8A3019F48DE00E94BF
:10138000BA098FB78078909172039F3F29F4811139
:10139000FACF81E090E020C0F894E091710391E0F1
:1013A0009E0F90937103F0E0ED58FC4FC083909135
:1013B00072039F5F90937203909171039F3F11F4AA
:1013C000109271039091C10090629093C1008823A4
:1013D00009F0789480E090E0CF91089580918404A2
:1013E0008823E1F32FB72078F8948091720430912C
:1013F000840490E0831B9109E091720497FF08C078
:1014000080918404F0E0E81BF109ED57FB4F07C021
:1014100080918404F0E0E81BF109ED58FB4F8081D6
:1014200090918404915090938404222309F078943D
:10143000082E000C990B08951092710310927203FC
:1014400010927204109284041092830440936602F6
:101450009B01AC0183E0220F331F441F551F8A9567
:10146000D1F760E072E18AE790E00E94990CCA012E
:10147000B9016F5F7F4F8F4F9F4F22E030E040E018
:1014800050E00E94990C215031093093C5002093FF
:10149000C400E1ECF0E088E1808380818068808393
:1014A000E5E8F4E088E091E0938382839183808390
:1014B00008959091840481E0911101C080E0089525
:1014C000109272041092840408951F920F920FB626
:1014D0000F9211242F938F939F93EF93FF938091FB
:1014E0007203882319F1809171032091720390E0B7
:1014F000821B9109E091710397FF08C080917203EC
:10150000F0E0E81BF109EE58FB4F07C08091720331
:10151000F0E0E81BF109ED58FC4F908180917203D7
:101520008150809372039093C60005C08091C100E2
:101530008F7D8093C100FF91EF919F918F912F91AB
:101540000F900FBE0F901F9018951F920F920FB61D
:101550000F9211242F933F934F935F936F937F9339
:101560008F939F93AF93BF93CF93EF93FF93C091CC
:10157000C60080916602882349F0809172038F3FF4
:1015800029F060E070E08C2F0E94BA0980918404F9
:10159000803120F081E08093830418C0CD3009F4BD
:1015A000CAE0E091720481E08E0F80937204F0E053
:1015B000ED58FB4FC083809184048F5F8093840437
:1015C00080917204803111F410927204FF91EF91B6
:1015D000CF91BF91AF919F918F917F916F915F91CB
:1015E0004F913F912F910F900FBE0F901F90189524
:1015F00094B1906B94B92C9A90E59CBD883021F001
:10160000803211F0823019F491E09DBD01C01DBC03
:10161000803269F028F4883069F0803159F00DC0CB
:10162000803429F0803849F48CB581608CBD8CB54C
:10163000826002C08CB581608CBD2C9808958EBDEF
:101640000DB407FEFDCF8EB508959F938F937F93C2
:101650006F9383E791E09F938F930E94C90E0F9041
:101660000F900F900F900F900F9008958EE691E0DD
:101670009F938F930E94C90E0F900F90089589E653
:1016800091E09F938F930E94C90E0F900F90089541
:1016900084E691E09F938F930E94C90E0F900F9064
:1016A000089580E691E09F938F930E94C90E0F905A
:1016B0000F9008959F938F938AE591E09F938F9366
:1016C0000E94C90E0F900F900F900F90089583E520
:1016D00091E09F938F930E94C90E0F900F900895F1
:1016E0008CE491E09F938F930E94C90E0F900F900E
:1016F000089588E491E09F938F930E94C90E0F9004
:101700000F900895262F062E000C330B3F936F93F6
:10171000282F082E000C330B3F938F938FE391E01B
:101720009F938F930E94C90E0F900F900F900F9070
:101730000F900F9008958CE391E09F938F930E94F8
:10174000C90E0F900F90089589E391E09F938F93B6
:101750000E94C90E0F900F900895CF93DF93C62F6C
:10176000D42F682F880F770B8C2F0C2E000C990B21
:101770000E94250B0E943F0BDC1734F080E290E0C2
:101780000E94EF0ECF5FF8CF0E94360BDF91CF9112
:1017900008950F931F93CF93DF93C62FD42F062E58
:1017A000000C770B082E000C990B0E94250B0E9451
:1017B0003F0B02E311E080E290E0CD1754F40E9469
:1017C000EF0E1F930F930E94C90ECF5F0F900F90E3
:1017D000F2CF0E94EF0E0E94360BDF91CF911F9146
:1017E0000F91089510926702109268021092690298
:1017F00010926A0216BC8CE787BD82E084BD83E04C
:1018000085BDEEE6F0E080818260808385B38270E2
:1018100085BB08952FB7F8946091670270916802B4
:101820008091690290916A0227FF01C0789408951F
:101830001F920F920FB60F9211242F933F934F9345
:101840005F936F937F938F939F93AF93BF93EF9328
:10185000FF938091670290916802A0916902B09114
:101860006A020196A11DB11D8093670290936802E0
:10187000A0936902B0936A020E947003811107C0AD
:101880000E944D03813D974010F40E940106FF9194
:10189000EF91BF91AF919F918F917F916F915F91E8
:1018A0004F913F912F910F900FBE0F901F90189561
:1018B0000E94E4070E94F4070E9435080E943E0837
:1018C0000E949209F9CFAA1BBB1B51E107C0AA1FB6
:1018D000BB1FA617B70710F0A61BB70B881F991FD1
:1018E0005A95A9F780959095BC01CD010895A1E284
:1018F0001A2EAA1BBB1BFD010DC0AA1FBB1FEE1F8A
:10190000FF1FA217B307E407F50720F0A21BB30BD4
:10191000E40BF50B661F771F881F991F1A9469F750
:1019200060957095809590959B01AC01BD01CF01AC
:101930000895052E97FB1EF400940E94B00C57FDED
:1019400007D00E94770C07FC03D04EF40C94B00C27
:1019500050954095309521953F4F4F4F5F4F0895DB
:1019600090958095709561957F4F8F4F9F4F08950B
:101970002F923F924F925F926F927F928F929F929F
:10198000AF92BF92CF92DF92EF92FF920F931F938D
:10199000CF93DF93CDB7DEB7CA1BDB0B0FB6F8943E
:1019A000DEBF0FBECDBF09942A88398848885F847E
:1019B0006E847D848C849B84AA84B984C884DF80EF
:1019C000EE80FD800C811B81AA81B981CE0FD11DD3
:1019D0000FB6F894DEBF0FBECDBFED0108950E9493
:1019E000030D0C94E40D0E94DD0D58F00E94D60DFD
:1019F00040F029F45F3F29F00C94CD0D51110C9467
:101A0000180E0C94D30D0E94F50D68F39923B1F3D1
:101A1000552391F3951B550BBB27AA276217730714
:101A2000840738F09F5F5F4F220F331F441FAA1FA8
:101A3000A9F335D00E2E3AF0E0E832D09150504064
:101A4000E695001CCAF72BD0FE2F29D0660F771F12
:101A5000881FBB1F261737074807AB07B0E809F0F8
:101A6000BB0B802DBF01FF2793585F4F3AF09E3F7D
:101A7000510578F00C94CD0D0C94180E5F3FE4F3F3
:101A8000983ED4F3869577956795B795F7959F5FC0
:101A9000C9F7880F911D9695879597F90895E1E00C
:101AA000660F771F881FBB1F621773078407BA076B
:101AB00020F0621B730B840BBA0BEE1F88F7E095C6
:101AC00008950E94FD0D88F09F5798F0B92F99272F
:101AD000B751B0F0E1F0660F771F881F991F1AF019
:101AE000BA95C9F714C0B13091F00E94170EB1E059
:101AF00008950C94170E672F782F8827B85F39F058
:101B0000B93FCCF3869577956795B395D9F73EF4B1
:101B100090958095709561957F4F8F4F9F4F089559
:101B2000E89409C097FB3EF4909580957095619577
:101B30007F4F8F4F9F4F9923A9F0F92F96E9BB272D
:101B40009395F695879577956795B795F111F8CFA9
:101B5000FAF4BB0F11F460FF1BC06F5F7F4F8F4F14
:101B60009F4F16C0882311F096E911C0772321F00A
:101B70009EE8872F762F05C0662371F096E8862FA2
:101B800070E060E02AF09A95660F771F881FDAF7F9
:101B9000880F9695879597F9089597F99F6780E83C
:101BA00070E060E008959FEF80EC089500240A94AF
:101BB0001616170618060906089500240A94121628
:101BC0001306140605060895092E0394000C11F45B
:101BD000882352F0BB0F40F4BF2B11F460FF04C008
:101BE0006F5F7F4F8F4F9F4F089557FD9058440F61
:101BF000551F59F05F3F71F04795880F97FB991F6C
:101C000061F09F3F79F08795089512161306140628
:101C1000551FF2CF4695F1DF08C0161617061806B5
:101C2000991FF1CF86957105610508940895E89490
:101C3000BB2766277727CB0197F908950E94310EBD
:101C40000C94E40D0E94D60D38F00E94DD0D20F0BA
:101C5000952311F00C94CD0D0C94D30D11240C94FC
:101C6000180E0E94F50D70F3959FC1F3950F50E08B
:101C7000551F629FF001729FBB27F00DB11D639F3E
:101C8000AA27F00DB11DAA1F649F6627B00DA11DE4
:101C9000661F829F2227B00DA11D621F739FB00D8A
:101CA000A11D621F839FA00D611D221F749F3327FA
:101CB000A00D611D231F849F600D211D822F762F93
:101CC0006A2F11249F5750409AF0F1F088234AF070
:101CD000EE0FFF1FBB1F661F771F881F91505040DC
:101CE000A9F79E3F510580F00C94CD0D0C94180E71
:101CF0005F3FE4F3983ED4F3869577956795B79563
:101D0000F795E7959F5FC1F7FE2B880F911D96957C
:101D1000879597F90895CF93DF93EC012B8120FFEE
:101D200033C026FF0AC02F7B2B838E819F810196B3
:101D30009F838E838A8190E029C022FF0FC0E881B3
:101D4000F9818081082E000C990B009719F420620C
:101D50002B831AC03196F983E8830EC0EA85FB8590
:101D6000099597FF09C02B81019611F080E201C00F
:101D700080E1822B8B8308C02E813F812F5F3F4FF4
:101D80003F832E83992702C08FEF9FEFDF91CF9182
:101D90000895A0E0B0E0EFECFEE00C94C60CAE01BC
:101DA000495F5F4FDA016D917D91AD0105E814E067
:101DB000F80182819381DC0113962C91139728609E
:101DC00013962C930E94F60ED8011296ED91FC9179
:101DD00013972381277F2383E4E00C94E20C609126
:101DE0008704709188040E94DF100895ACE0B0E091
:101DF000ECEFFEE00C94B80C6C017B018A01FC0155
:101E000017821682838181FFBEC1CE0101964C01EB
:101E1000F6019381F70193FD859193FF81917F01F5
:101E2000882309F4ACC1853239F493FD859193FF81
:101E300081917F01853229F4B60190E00E94DF1084
:101E4000E7CF512C312C20E02032A0F48B3269F006
:101E500030F4803259F0833269F420612CC08D3225
:101E600039F0803339F4216026C02260246023C019
:101E7000286021C027FD27C030ED380F3A3078F4B4
:101E800026FF06C0FAE05F9E300D1124532E13C0CA
:101E90008AE0389E300D1124332E20620CC08E3221
:101EA00021F426FD6CC1206406C08C3611F4206834
:101EB00002C0883641F4F70193FD859193FF81912B
:101EC0007F018111C1CF982F9F7D9554933028F4C5
:101ED0000C5F1F4F9FE399830DC0833631F083372A
:101EE00071F0833509F05BC022C0F80180818983DD
:101EF0000E5F1F4F44244394512C540115C03801E8
:101F0000F2E06F0E711CF801A080B18026FF03C0C3
:101F1000652D70E002C06FEF7FEFC5012C870E9436
:101F2000D4102C0183012C852F77222E17C0380165
:101F3000F2E06F0E711CF801A080B18026FF03C093
:101F4000652D70E002C06FEF7FEFC5012C870E9406
:101F5000C9102C012C852068222E830123FC1BC074
:101F6000832D90E048165906B0F4B60180E290E067
:101F70000E94DF103A94F4CFF50127FC859127FEEB
:101F800081915F01B60190E00E94DF1031103A9418
:101F9000F1E04F1A51084114510471F7E6C084363C
:101FA00011F0893639F5F80127FF07C0608171818A
:101FB000828193810C5F1F4F08C060817181072E61
:101FC000000C880B990B0E5F1F4F2F76722E97FF18
:101FD00009C090958095709561957F4F8F4F9F4F69
:101FE0002068722E2AE030E0A4010E940F11A82E72
:101FF000A81844C0853729F42F7EB22E2AE030E09D
:1020000025C0F22FF97FBF2E8F36C1F018F4883526
:1020100079F0B5C0803719F0883721F0B0C02F2F84
:102020002061B22EB4FE0DC08B2D8460B82E09C085
:1020300024FF0AC09F2F9660B92E06C028E030E02A
:1020400005C020E130E002C020E132E0F801B7FE37
:1020500007C060817181828193810C5F1F4F06C030
:102060006081718180E090E00E5F1F4FA4010E94AB
:102070000F11A82EA818FB2DFF777F2E76FE0BC020
:10208000372D3E7FA51450F474FE0AC072FC08C0C0
:10209000372D3E7E05C0BA2C372D03C0BA2C01C0A7
:1020A000B52C34FF0DC0FE01EA0DF11D8081803397
:1020B00011F4397E09C032FF06C0B394B39404C052
:1020C000832F867809F0B39433FD13C030FF06C028
:1020D000B31498F43A0C532C5B1810C0B31470F47A
:1020E000B60180E290E03C870E94DF10B3943C850B
:1020F000F5CFB31418F43B1802C05A2C312C34FF1E
:1021000012C0B60180E390E03C870E94DF103C855E
:1021100032FF17C031FD03C088E790E002C088E5B8
:1021200090E0B6010CC0832F867859F031FF02C0D1
:102130008BE201C080E237FD8DE2B60190E00E94A3
:10214000DF10A51438F4B60180E390E00E94DF10A0
:102150005A94F7CFAA94F401EA0DF11D8081B601DB
:1021600090E00E94DF10A110F5CF332009F450CE8B
:10217000B60180E290E00E94DF103A94F6CFF601BB
:102180008681978102C08FEF9FEF2C96E2E10C943D
:10219000D40CFC010590615070400110D8F7809577
:1021A00090958E0F9F1F0895FC0161507040019023
:1021B0000110D8F7809590958E0F9F1F08950F936B
:1021C0001F93CF93DF93182F092FEB018B8181FD94
:1021D00003C08FEF9FEF1EC082FF0FC02E813F8193
:1021E0008C819D812817390774F4E881F981CF012A
:1021F000019699838883108306C0E885F985812F2D
:102200000995892B31F78E819F8101969F838E835B
:10221000812F902FDF91CF911F910F910895FA0197
:10222000AA27283051F1203181F1E8946F936E7F15
:102230006E5F7F4F8F4F9F4FAF4FB1E03ED0B4E006
:102240003CD0670F781F891F9A1FA11D680F791F47
:102250008A1F911DA11D6A0F711D811D911DA11D58
:1022600020D009F468943F912AE0269F1124301968
:10227000305D3193DEF6CF010895462F4770405D03
:102280004193B3E00FD0C9F7F6CF462F4F70405DB2
:102290004A3318F0495D31FD4052419302D0A9F70D
:1022A000EACFB4E0A6959795879577956795BA9507
:1022B000C9F700976105710508959B01AC010A2ECD
:1022C00006945795479537952795BA95C9F7620FA4
:0E22D000731F841F951FA01D0895F894FFCF63
:1022DE00FFFFFFFFD007FFFF00000003000000001C
:1022EE00BA09EE0900007D4545390010387C3810DA
:1022FE00007D2111217DFEFFFE00FE01FFFEFFFF8E
:10230E00FF00FF01FF0200FE00FF0001000201FEC0
:10231E0001FF01000101010202FF020002010001A2
:10232E0000FF0100FF00040400050004000004008B
:10233E00040400030404030400040404040403005E
:10234E000004000004040000000003000000000070
:10235E000000040404040404000400040304040440
:10236E000404050003050303030404040504050423
:10237E000000000303040000000400040300000337
:10238E000003000400040000000300040400040322
:10239E000400040000040000000300000404000315
:1023AE0005040004040400030003000000040400FC
:1023BE0000040004000400040004000000030404F0
:1023CE0003040003000400040004040404000300DA
:1023DE0000000004000405040004000003000004D3
:1023EE0000000004000004040304050004000004BF
:1023FE0003040000040400000004040404000400AC
:10240E0000000403000400000003000003000300AA
:10241E000300030000040000000400000300040099
:06242E0000030300050499
:00000001FF
