:100000000C94BE000C94DB000C94DB000C94DB0021
:100010000C94DB000C9413010C94DB000C94DB00BB
:100020000C94DB000C94DB000C94DB000C94DB00E4
:100030000C94DB000C94DB000C94DB000C94DB00D4
:100040000C94E80A0C94DB000C94DB000C94DB00AD
:100050000C9475090C9435090C94DB000C94DB00AE
:100060000C94DB000C94DB000C94DB000C94DB00A4
:100070000C94DB000C94DB000C94DB004469616D94
:100080006F6E64733A202564004469616D6F6E641D
:10009000733A202564004368656174206F666600CA
:1000A0004368656174206F6E0050726573732061E0
:1000B00020627574746F6E20746F20737461727433
:1000C00020616761696E0047414D45204F5645529A
:1000D000004469616D6F6E64733A20300043686557
:1000E0006174206F66660053747564656E74206E6B
:1000F000756D3A2034363832323339340043535335
:1001000045323031302F373230312070726F6A65AE
:100110006374206279203C4A696179692057414EB5
:10012000473E004469616D6F6E64204D696E657273
:1001300073001B5B421B5B44001B44001B4D001BF8
:100140005B25643B256472001B5B72001B5B3F32C6
:100150003568001B5B3F32356C001B5B25646D000E
:100160001B5B4B001B5B324A001B5B376D001B5B4C
:10017000306D001B5B25643B2564480011241FBEC5
:10018000CFEFD8E0DEBFCDBF12E0A0E0B1E0E6E403
:10019000FDE102C005900D92A435B107D9F724E026
:1001A000A4E5B2E001C01D92AC38B207E1F70E94AD
:1001B000280B0C94A10E0C940000E8E6F0E080817E
:1001C00082608083D99AECE6F0E080818F60808342
:1001D00010925402089580915402181614F58091DB
:1001E00055026FB7F89491E0292F30E04091540206
:1001F000042E000C550B2417350754F4F901EB5A63
:10020000FD4F4081F901EC5AFD4F40839F5FECCFD9
:100210009091540291509093540267FF03C07894D8
:1002200008958FEF08951F920F920FB60F92112429
:100230002F933F934F935F936F937F938F939F93EE
:10024000EF93FF9343B14F7080E090E0642F70E034
:1002500020915402243004F59B01082E02C03595EC
:1002600027950A94E2F720FF17C02091590230E049
:10027000082E02C0359527950A94E2F720FD0CC0A0
:10028000E091540221E02E0F209354020E2E000C18
:10029000FF0BEB5AFD4F8083019684309105C1F628
:1002A00040935902FF91EF919F918F917F916F91B0
:1002B0005F914F913F912F910F900FBE0F901F9024
:1002C00018950E94BA060895CF92DF92EF92FF929E
:1002D0001F93CF93DF93CDB7DEB728970FB6F8946F
:1002E000DEBF0FBECDBF0E94BA0684E1C82E81E0FA
:1002F000D82E10E0CE0101967C01F60181916F01AC
:1003000080FD02C090EF01C09FE0FE01389687FF9C
:1003100002C0908301C01082880F3197EE16FF064D
:10032000B1F71982B701812F0E947A061F5F103141
:1003300021F728960FB6F894DEBF0FBECDBFDF9130
:10034000CF911F91FF90EF90DF90CF900895803173
:1003500038F5683028F5413091F0423091F09DEF4A
:10036000940F923080F0453081F0463081F0473074
:1003700081F0483081F0493081F040E00FC04FE01B
:100380000DC041E00BC04FED09C040EF07C045E391
:1003900005C04CE303C041E101C043E10E943606C1
:1003A0000895EF92FF921F93CF93DF9310926F0304
:1003B0001092680281E08093710310927003809321
:1003C0006A0310915C02A4E5B1E064ED71E020E005
:1003D00030E0C90186519D4F7C01F901E759FD4F7D
:1003E00040E050E0CA0180599F4F112319F08A0F55
:1003F0009B1F02C0860F971FEC0188818083E70155
:1004000019927E014051510931964038DFEF5D0766
:1004100049F711966F5F7F4F285F3F4F20383105B6
:10042000C1F6DF91CF911F91FF90EF900895803139
:1004300018F481E0683008F080E00895803160F4BD
:10044000683050F498E0899FF0011124E759FD4F7E
:10045000E60FF11D8081089584E00895CF93DF9326
:10046000C0917103C031D0F4D0917003D830B0F492
:1004700080916A03882331F06D2F8C2F0E941E0219
:10048000482F01C042E06D2F8C2F0E94A70181E010
:1004900090916A03911180E080936A03DF91CF917C
:1004A00008950E94180A9091620281E06AE070E06B
:1004B000892780936202882339F08AE090E00E94C5
:1004C000F50980EA90E006C08AE090E00E94F50914
:1004D00086E990E09F938F930E94FD0B0F900F9001
:1004E0006CE070E08AE090E00E94F5098091610282
:1004F0001F928F9389E890E09F938F930E94FD0B4A
:100500000F900F900F900F900895CF93DF93C82F07
:10051000D62F0E941E02853011F5809161028F5FF7
:100520008093610288E0C89FF0011124E759FD4FD4
:10053000ED0FF11D10826CE070E08AE090E00E9407
:10054000F509809161021F928F938CE790E09F9351
:100550008F930E94FD0B0F900F900F900F90DF91E3
:10056000CF910895A0E0B0E0E8EBF2E00C946C0BC2
:1005700088E18093E902C0906F03A0906802E12CAB
:10058000F12CD12CB12C8E2C86010E191F0917FFCE
:1005900003C0119501951109902EC0E0D0E06C2F99
:1005A000882D0E941E028530A1F4C5018C1B9D0B75
:1005B00097FF03C09195819591092091E90230E060
:1005C000A801480F591F421753071CF4890D809347
:1005D000E9022196C830D10511F78FEFE81AF80A21
:1005E00080E1E816F10479F68091E902CDB7DEB733
:1005F000ECE00C94880B80916002882311F0479AFC
:1006000001C0479881E090916002911180E0809351
:100610006002089580910401909105010196C1F452
:1006200080ED97E0909305018093040180916F0322
:100630008093010180916802809300010E94DA0A90
:1006400060936B0370936C0380936D0390936E03C0
:1006500008958091010190916F03981306C0209135
:10066000680290910001291759F090915F02992337
:1006700011F040E001C048E0609100010E94A70134
:1006800090915F0281E0892780935F0208958091B5
:10069000040190910501089560916B0370916C03C2
:1006A00080916D0390916E030895EF92FF920F93E6
:1006B0001F93CF93DF938FEF9FEF9093050180936C
:1006C00004010CE411E084E5E82E81E0F82EF80145
:1006D000C08180910101C80FD18180910001D80FA4
:1006E0006D2F8C2F0E941E028B7F833049F488E08F
:1006F000C89FF0011124E759FD4FED0FF11D108245
:1007000043E16D2F8C2F0E94A7016D2F8C2F0E942B
:100710001E02813021F480935E0210925B020E5F14
:100720001F4FE016F10699F68091010190916F0339
:1007300089130BC02091000190916802291305C014
:1007400091E090935E0210925B0241E060910001A3
:100750000E94A7018FEF80930001809301014698CA
:10076000CDB7DEB7E6E00C948E0BCF93DF932091EC
:100770000401309105012150310930930501209386
:100780000401C9016AE070E00E94330B809102010C
:1007900090910301861B970B8217930750F00E94DC
:1007A00029038091040190910501909303018093A6
:1007B00002014698CCE4D1E0698180910001680F84
:1007C000988180910101890F0E941E02813009F4F5
:1007D000469A229681E0C435D80771F790910101BD
:1007E00080916F03981307C0909100018091680277
:1007F000981301C0469A8091040190910501892BBC
:1008000011F40E945503DF91CF91089590915D02FC
:1008100081E0892780935D02089580915D020895AB
:1008200080915E02089510925E0210926202109210
:10083000610210925B028FEF8093000180930101AF
:1008400008958091E502813099F420915C029091A5
:100850006102222329F0963059F410925C0204C000
:10086000933031F480935C0280935E0280935B024C
:10087000089580915B02089590915A0281E0892742
:1008800080935A020895EF92FF920F931F93CF9394
:10089000DF93F82E04E211E0EE24E394F801C08126
:1008A00080916F03C80FC03140F5D18180916802FB
:1008B000D80FD83010F5FF20B9F088E0C89FF001BC
:1008C0001124E651FD4FED0FF11DE08280910101F1
:1008D000C81304C080910001D81779F06D2F8C2FB8
:1008E0000E941E02482F05C0C33010F4D33028F0F8
:1008F00046E06D2F8C2F0E94A7010E5F1F4FE1E095
:100900000C341E0759F6CDB7DEB7E6E00C948E0B1B
:100910000F931F93CF93DF93C82FD62F00916802B8
:1009200010916F03602F6D0F812F8C0F0E941E029C
:100930009DEF980F212F30E0923008F45BC0873094
:1009400009F458C0F90183E0EE0FFF1F8A95E1F723
:10095000E759FD4FE00FF11D108240E0602F812F1D
:100960000E94A70180915A02882319F080E00E941A
:10097000430480916F038C0F80936F036091680232
:100980006D0F609368020E94850280916F036091F1
:10099000680228E0829FF0011124E759FD4FE60F1D
:1009A000F11D91E0908341E00E94A7010E94B202F4
:1009B000853008F0479880910401909105010196D7
:1009C00089F08091010190916F03981306C02091E6
:1009D000680290910001291729F048E06091000118
:1009E0000E94A70180915A02882359F081E00E9459
:1009F000430407C02C0F311D2031310511F40E9432
:100A000021040091700310917103602F812F0E94C7
:100A10001E02482F602F812F0E94A70180916F0333
:100A2000C80FC093710380916802D80FD0937003F0
:100A30000E942E02DF91CF911F910F9108950F9385
:100A40001F93CF93DF93182F062F88E0189FF00194
:100A50001124E651FD4FE60FF11D81E08083812FC7
:100A60000E941E02C82F482F602F812F0E94A701CD
:100A7000C11103C0CCE4D1E00CC0C530E9F4FACF19
:100A80006981600F683050F0229681E0C435D80744
:100A900099F08881810F8031B8F7F2CF98E0899F73
:100AA000F0011124E651FD4FE60FF11D90819111E7
:100AB000EBCF0E941F05E8CFDF91CF911F910F91DF
:100AC0000895CF93DF930E946101D0E0C0E046E03B
:100AD0006C2F8D2F0E94A701CF5FC830C1F7DF5F59
:100AE000D031A1F76091680280916F030E941F05C9
:100AF00041E06091680280916F030E94A70142E08B
:100B000060917003809171030E94A701DF91CF91E2
:100B100008950E94D1010E9461050895CF93DF934B
:100B2000809162028823F1F0D0917003C09171032B
:100B30006D2F8C2F0E941E028730A1F488E0C89F81
:100B4000F0011124E759FD4FED0FF11D108240E037
:100B50006D2F8C2F0E94A70160917003809171030B
:100B60000E941F05DF91CF910895CF93DF93D0911D
:100B70007003C09171036D2F8C2F0E941E02833071
:100B800079F488E0C89FF0011124E759FD4FED0F7B
:100B9000F11D87E0808347E06D2F8C2F0E94A70115
:100BA0000E948E05DF91CF9108950F931F93CF93ED
:100BB000DF93CCE4D1E0188180910101180F098105
:100BC00080910001080F602F812F0E941E02811169
:100BD00009C040E0602F812F0E94A701602F812F64
:100BE0000E941F05229681E0C435D80721F7809125
:100BF000010190916F03891306C02091000190912B
:100C00006802291729F040E0609100010E94A701C5
:100C1000DF91CF911F910F91089580E80E94C8093C
:100C20000895A1E0B0E0E7E1F6E00C94700B182F16
:100C300080E099830E94EF09C12E9981D92E08E0A6
:100C4000760110E1F70180810E94EF091150F8E070
:100C5000EF0EF11C1111F6CF01508FEFC81AD80A10
:100C60000111EECF2196E8E00C948C0BA2E0B0E0ED
:100C7000ECE3F6E00C94750B182F803198F4683093
:100C800088F481E04A8369830E94EF09698120E149
:100C9000629FC0011124812B0E94EF094A81842F99
:100CA0000E94EF092296E3E00C94910BA2E0B0E0E1
:100CB000ECE5F6E00C94720B182F8830B8F482E063
:100CC00069837A830E94EF09812F0E94EF0969816D
:100CD000E62E7A81F72E8701005F1F4FF701819181
:100CE0007F010E94EF09E016F106C1F72296E6E0C7
:100CF0000C948E0BA2E0B0E0E0E8F6E00C94720BEE
:100D0000182F8031B8F483E069837A830E94EF0959
:100D1000812F0E94EF096981E62E7A81F72E8701E3
:100D2000085F1F4FF70181917F010E94EF09E016D4
:100D3000F106C1F72296E6E00C948E0B84E00E9447
:100D4000EF0982E00E94EF09089584E00E94EF0914
:100D500081E00E94EF09089584E00E94EF0988E095
:100D60000E94EF09089584E00E94EF0984E00E9448
:100D7000EF0908958FE00E94EF090895FB019C019F
:100D8000285F3F4FDC014D91CD014193A217B3077E
:100D9000C9F70895FB019C01205F3F4FDC014D9195
:100DA000CD014193A217B307C9F708959C01285FAD
:100DB0003F4FFC016193CF01E217F307D1F708958C
:100DC0009C01205F3F4FFC016193CF01E217F307C5
:100DD000D1F708950E940D060E94DD0040E060E01A
:100DE0007BE480E090E00E94EC080E94C20A3F9AF7
:100DF000789408950E94180A6AE070E08AE090E012
:100E00000E94F50983E291E09F938F930E94FD0B6E
:100E10006CE070E08AE090E00E94F5098DEF90E0D0
:100E20009F938F930E94FD0B6EE070E08AE090E04C
:100E30000E94F50987EE90E09F938F930E94FD0B2F
:100E40000E9464010F900F900F900F900F900F90E1
:100E50000E942909811105C00E94EB008F3FC1F358
:100E6000089580918604909187040E94BF0B8F7D26
:100E7000833591F708950E94180A0E9489050E94FF
:100E8000EB000E94300908954F925F926F927F921B
:100E90008F929F92AF92BF92CF92DF92EF92FF928A
:100EA000CF93DF930E94DA0A2B013C016AE070E0E5
:100EB0008AE090E00E94F5098DED90E09F938F937A
:100EC0000E94FD0B6CE070E08AE090E00E94F50962
:100ED00081ED90E09F938F930E94FD0B0F900F90F8
:100EE0000F900F90530142010E9410048111DBC04A
:100EF0000E940D04882329F00E9429098823A1F368
:100F0000C5C00E9410048111F7CF0E94EB00D82FBA
:100F10000E942909882371F08091860490918704AA
:100F20000E94BF0BC82FDD2341F0843631F084349A
:100F300021F006C0D1110AC0CFEF60E081E01EC0F1
:100F4000D13039F08F7D813421F006C0D13049F4A1
:100F5000CFEF60E08FEF12C0D23031F0873521F053
:100F600007C0D23019F4CFEF61E007C08FEDCFEFAB
:100F7000D33011F0833521F46FEF80E00E948804B4
:100F8000DC2FDF7DD53419F40E94B5051AC0D334A7
:100F900019F40E94510215C0C03219F40E940A03CC
:100FA00005C0D03519F40E9406040BC0D63449F4AC
:100FB0000E943C04882311F081E001C080E00E947F
:100FC00043040E94DA0A6B017C01D301C2018C50F8
:100FD0009E4FAF4FBF4FC816D906EA06FB0620F05A
:100FE0000E942E02260137010E94B202843081F451
:100FF000D501C40184529A4FAF4FBF4FC816D906CE
:10100000EA06FB0628F00E94FB02460157012DC0AC
:101010000E94B202833059F4D501C40188519C4F1B
:10102000AF4FBF4FC816D906EA06FB0660F70E940D
:10103000B202823059F4D501C4018C509E4FAF4F9B
:10104000BF4FC816D906EA06FB06E8F60E94B202B0
:10105000813059F4D501C40186509F4FAF4FBF4F27
:10106000C816D906EA06FB0670F60E944C03DC019E
:10107000CB018C53964FAF4FBF4FC816D906EA0627
:10108000FB0608F435CF0E94D50532CF8091860447
:10109000909187040E94BF0B8F7D803509F024CF8B
:1010A0000E94060421CFDF91CF91FF90EF90DF9057
:1010B000CF90BF90AF909F908F907F906F905F90F8
:1010C0004F9008950E943904882319F00E94130458
:1010D00008956EE070E08AE090E00E94F50987ECE8
:1010E00090E09F938F930E94FD0B6FE070E08AE089
:1010F00090E00E94F50989EA90E09F938F930E9407
:10110000FD0B0F900F900F900F900E94EB008F3F00
:10111000E1F3DCCFCF93C82F8A3019F48DE00E9421
:101120008A088FB78078909173039F3F29F48111CB
:10113000FACF81E090E020C0F894E091720391E052
:101140009E0F90937203F0E0EC58FC4FC083909197
:1011500073039F5F90937303909172039F3F11F409
:10116000109272039091C10090629093C100882305
:1011700009F0789480E090E0CF9108958091850403
:101180008823E1F32FB72078F8948091730430918D
:10119000850490E0831B9109E091730497FF08C0D8
:1011A00080918504F0E0E81BF109EC57FB4F07C084
:1011B00080918504F0E0E81BF109EC58FB4F808139
:1011C00090918504915090938504222309F078949E
:1011D000082E000C990B089510927203109273035D
:1011E0001092730410928504109284044093630259
:1011F0009B01AC0183E0220F331F441F551F8A95CA
:10120000D1F760E072E18AE790E00E94470BCA01E3
:10121000B9016F5F7F4F8F4F9F4F22E030E040E07A
:1012200050E00E94470B215031093093C5002093B4
:10123000C400E1ECF0E088E18083808180688083F5
:10124000E6E8F4E086E091E09383828391838083F3
:1012500008959091850481E0911101C080E0089586
:10126000109273041092850408951F920F920FB686
:101270000F9211242F938F939F93EF93FF9380915D
:101280007303882319F1809172032091730390E016
:10129000821B9109E091720397FF08C0809173034C
:1012A000F0E0E81BF109ED58FB4F07C08091730394
:1012B000F0E0E81BF109EC58FC4F9081809173033A
:1012C0008150809373039093C60005C08091C10044
:1012D0008F7D8093C100FF91EF919F918F912F910E
:1012E0000F900FBE0F901F9018951F920F920FB680
:1012F0000F9211242F933F934F935F936F937F939C
:101300008F939F93AF93BF93CF93EF93FF93C0912E
:10131000C60080916302882349F0809173038F3F58
:1013200029F060E070E08C2F0E948A08809185048B
:10133000803120F081E08093840418C0CD3009F41E
:10134000CAE0E091730481E08E0F80937304F0E0B3
:10135000EC58FB4FC083809185048F5F8093850498
:1013600080917304803111F410927304FF91EF9116
:10137000CF91BF91AF919F918F917F916F915F912D
:101380004F913F912F910F900FBE0F901F90189586
:1013900094B1906B94B92C9A90E59CBD883021F063
:1013A000803211F0823019F491E09DBD01C01DBC66
:1013B000803269F028F4883069F0803159F00DC02E
:1013C000803429F0803849F48CB581608CBD8CB5AF
:1013D000826002C08CB581608CBD2C9808958EBD52
:1013E0000DB407FEFDCF8EB508959F938F937F9325
:1013F0006F9383E791E09F938F930E94FD0B0F9073
:101400000F900F900F900F900F9008958EE691E03F
:101410009F938F930E94FD0B0F900F90089589E684
:1014200091E09F938F930E94FD0B0F900F90089572
:1014300084E691E09F938F930E94FD0B0F900F9095
:10144000089580E691E09F938F930E94FD0B0F908B
:101450000F9008959F938F938AE591E09F938F93C8
:101460000E94FD0B0F900F900F900F90089583E551
:1014700091E09F938F930E94FD0B0F900F90089522
:101480008CE491E09F938F930E94FD0B0F900F903F
:10149000089588E491E09F938F930E94FD0B0F9035
:1014A0000F900895262F062E000C330B3F936F9359
:1014B000282F082E000C330B3F938F938FE391E07E
:1014C0009F938F930E94FD0B0F900F900F900F90A2
:1014D0000F900F9008958CE391E09F938F930E945B
:1014E000FD0B0F900F90089589E391E09F938F93E8
:1014F0000E94FD0B0F900F900895CF93DF93C62F9E
:10150000D42F682F880F770B8C2F0C2E000C990B83
:101510000E94F5090E940F0ADC1734F080E290E087
:101520000E94230CCF5FF8CF0E94060ADF91CF9173
:1015300008950F931F93CF93DF93C62FD42F062EBA
:10154000000C770B082E000C990B0E94F5090E94E5
:101550000F0A02E311E080E290E0CD1754F40E94FC
:10156000230C1F930F930E94FD0BCF5F0F900F90E2
:10157000F2CF0E94230C0E94060ADF91CF911F91A7
:101580000F91089510926402109265021092660203
:101590001092670216BC8CE787BD82E084BD83E0B1
:1015A00085BDEEE6F0E080818260808385B3827045
:1015B00085BB08952FB7F89460916402709165021D
:1015C000809166029091670227FF01C07894089588
:1015D0001F920F920FB60F9211242F933F934F93A8
:1015E0005F936F937F938F939F93AF93BF93EF938B
:1015F000FF938091640290916502A0916602B09180
:1016000067020196A11DB11D80936402909365024B
:10161000A0936602B09367020E940D04811107C077
:101620000E944703813D974010F40E94B503FF914B
:10163000EF91BF91AF919F918F917F916F915F914A
:101640004F913F912F910F900FBE0F901F901895C3
:101650000E94EA060E94FA060E943B070E94440785
:101660000E946208F9CFAA1BBB1B51E107C0AA1F49
:10167000BB1FA617B70710F0A61BB70B881F991F33
:101680005A95A9F780959095BC01CD010895052E36
:1016900097FB1EF400940E945E0B57FD07D00E943A
:1016A0009D0B07FC03D04EF40C945E0B50954095B7
:1016B000309521953F4F4F4F5F4F089590958095FE
:1016C000709561957F4F8F4F9F4F08952F923F9256
:1016D0004F925F926F927F928F929F92AF92BF9242
:1016E000CF92DF92EF92FF920F931F93CF93DF93EE
:1016F000CDB7DEB7CA1BDB0B0FB6F894DEBF0FBE4B
:10170000CDBF09942A88398848885F846E847D8497
:101710008C849B84AA84B984C884DF80EE80FD8099
:101720000C811B81AA81B981CE0FD11D0FB6F8940F
:10173000DEBF0FBECDBFED010895A1E21A2EAA1B98
:10174000BB1BFD010DC0AA1FBB1FEE1FFF1FA21771
:10175000B307E407F50720F0A21BB30BE40BF50B6E
:10176000661F771F881F991F1A9469F760957095F7
:10177000809590959B01AC01BD01CF010895CF9359
:10178000DF93EC012B8120FF33C026FF0AC02F7BA3
:101790002B838E819F8101969F838E838A8190E027
:1017A00029C022FF0FC0E881F9818081082E000C3A
:1017B000990B009719F420622B831AC03196F98394
:1017C000E8830EC0EA85FB85099597FF09C02B8148
:1017D000019611F080E201C080E1822B8B8308C06A
:1017E0002E813F812F5F3F4F3F832E83992702C079
:1017F0008FEF9FEFDF91CF910895A0E0B0E0E3E09D
:10180000FCE00C94740BAE01495F5F4FDA016D91FF
:101810007D91AD0106E814E0F80182819381DC013D
:1018200013962C911397286013962C930E942A0CE0
:10183000D8011296ED91FC9113972381277F238382
:10184000E4E00C94900B60918804709189040E94EC
:10185000130E0895ACE0B0E0E0E3FCE00C94660BFE
:101860006C017B018A01FC0117821682838181FF52
:10187000BEC1CE0101964C01F6019381F70193FDA3
:10188000859193FF81917F01882309F4ACC1853252
:1018900039F493FD859193FF81917F01853229F47D
:1018A000B60190E00E94130EE7CF512C312C20E0BE
:1018B0002032A0F48B3269F030F4803259F0833258
:1018C00069F420612CC08D3239F0803339F4216005
:1018D00026C02260246023C0286021C027FD27C0C5
:1018E00030ED380F3A3078F426FF06C0FAE05F9EFC
:1018F000300D1124532E13C08AE0389E300D112470
:10190000332E20620CC08E3221F426FD6CC120647F
:1019100006C08C3611F4206802C0883641F4F70105
:1019200093FD859193FF81917F018111C1CF982F04
:101930009F7D9554933028F40C5F1F4F9FE399834C
:101940000DC0833631F0833771F0833509F05BC009
:1019500022C0F801808189830E5F1F4F4424439485
:10196000512C540115C03801F2E06F0E711CF801C2
:10197000A080B18026FF03C0652D70E002C06FEF2C
:101980007FEFC5012C870E94080E2C0183012C8556
:101990002F77222E17C03801F2E06F0E711CF8016C
:1019A000A080B18026FF03C0652D70E002C06FEFFC
:1019B0007FEFC5012C870E94FD0D2C012C8520682E
:1019C000222E830123FC1BC0832D90E0481659066C
:1019D000B0F4B60180E290E00E94130E3A94F4CF86
:1019E000F50127FC859127FE81915F01B60190E00A
:1019F0000E94130E31103A94F1E04F1A510841142D
:101A0000510471F7E6C0843611F0893639F5F801D2
:101A100027FF07C060817181828193810C5F1F4F16
:101A200008C060817181072E000C880B990B0E5F36
:101A30001F4F2F76722E97FF09C090958095709555
:101A400061957F4F8F4F9F4F2068722E2AE030E0C4
:101A5000A4010E94430EA82EA81844C0853729F47B
:101A60002F7EB22E2AE030E025C0F22FF97FBF2E64
:101A70008F36C1F018F4883579F0B5C0803719F089
:101A8000883721F0B0C02F2F2061B22EB4FE0DC0D8
:101A90008B2D8460B82E09C024FF0AC09F2F96604A
:101AA000B92E06C028E030E005C020E130E002C0D9
:101AB00020E132E0F801B7FE07C0608171818281C8
:101AC00093810C5F1F4F06C06081718180E090E0C0
:101AD0000E5F1F4FA4010E94430EA82EA818FB2DD5
:101AE000FF777F2E76FE0BC0372D3E7FA51450F476
:101AF00074FE0AC072FC08C0372D3E7E05C0BA2CA9
:101B0000372D03C0BA2C01C0B52C34FF0DC0FE0127
:101B1000EA0DF11D8081803311F4397E09C032FF56
:101B200006C0B394B39404C0832F867809F0B394AD
:101B300033FD13C030FF06C0B31498F43A0C532C95
:101B40005B1810C0B31470F4B60180E290E03C87DB
:101B50000E94130EB3943C85F5CFB31418F43B18D0
:101B600002C05A2C312C34FF12C0B60180E390E041
:101B70003C870E94130E3C8532FF17C031FD03C025
:101B800088E790E002C088E590E0B6010CC0832FA2
:101B9000867859F031FF02C08BE201C080E237FD48
:101BA0008DE2B60190E00E94130EA51438F4B60140
:101BB00080E390E00E94130E5A94F7CFAA94F401A8
:101BC000EA0DF11D8081B60190E00E94130EA11074
:101BD000F5CF332009F450CEB60180E290E00E94A8
:101BE000130E3A94F6CFF6018681978102C08FEFEB
:101BF0009FEF2C96E2E10C94820BFC010590615062
:101C000070400110D8F7809590958E0F9F1F089512
:101C1000FC016150704001900110D8F780959095BB
:101C20008E0F9F1F08950F931F93CF93DF93182F4D
:101C3000092FEB018B8181FD03C08FEF9FEF1EC049
:101C400082FF0FC02E813F818C819D81281739072B
:101C500074F4E881F981CF01019699838883108318
:101C600006C0E885F985812F0995892B31F78E818A
:101C70009F8101969F838E83812F902FDF91CF913B
:101C80001F910F910895FA01AA27283051F12031B0
:101C900081F1E8946F936E7F6E5F7F4F8F4F9F4F00
:101CA000AF4FB1E03ED0B4E03CD0670F781F891F42
:101CB0009A1FA11D680F791F8A1F911DA11D6A0F10
:101CC000711D811D911DA11D20D009F468943F91C3
:101CD0002AE0269F11243019305D3193DEF6CF01C2
:101CE0000895462F4770405D4193B3E00FD0C9F788
:101CF000F6CF462F4F70405D4A3318F0495D31FDF5
:101D00004052419302D0A9F7EACFB4E0A695979547
:101D1000879577956795BA95C9F70097610571051D
:101D200008959B01AC010A2E069457954795379567
:101D30002795BA95C9F7620F731F841F951FA01DC1
:061D40000895F894FFCFA6
:101D4600FFFFD007FFFF00000003000000008A0825
:101D5600BE0800007D4545390010387C3810007DEE
:101D66002111217DFEFFFE00FE01FFFEFFFFFF00A9
:101D7600FF01FF0200FE00FF0001000201FE01FF5D
:101D860001000101010202FF02000201000100FF41
:101D96000100FF0004040005000400000400040420
:101DA6000003040403040004040404040300000400
:101DB6000000040400000000030000000000000012
:101DC60004040404040400040004030404040404D6
:101DD60005000305030303040404050405040000C9
:101DE60000030304000000040004030000030003D2
:101DF60000040004000000030004040004030400BF
:101E060004000004000000030000040400030504AD
:101E1600000404040003000300000004040000049E
:101E2600000400040004000400000003040403048A
:101E3600000300040004000404040400030000007E
:101E46000004000405040004000003000004000070
:101E56000004000004040304050004000004030455
:101E66000000040400000004040404000400000050
:101E76000403000400000003000003000300030045
:101E86000300000400000004000003000400000337
:041E9600030005043C
:00000001FF
