:100000000C94BE000C94DB000C94DB000C94DB0021
:100010000C94DB000C9413010C94DB000C94DB00BB
:100020000C94DB000C94DB000C94DB000C94DB00E4
:100030000C94DB000C94DB000C94DB000C94DB00D4
:100040000C9476090C94DB000C94DB000C94DB0020
:100050000C9403080C94C3070C94DB000C94DB0095
:100060000C94DB000C94DB000C94DB000C94DB00A4
:100070000C94DB000C94DB000C94DB004469616D94
:100080006F6E64733A202564004469616D6F6E641D
:10009000733A202564004368656174206F666600CA
:1000A0004368656174206F6E0050726573732061E0
:1000B00020627574746F6E20746F20737461727433
:1000C00020616761696E0047414D45204F5645529A
:1000D000004469616D6F6E64733A20300043686557
:1000E0006174206F66660053747564656E74206E6B
:1000F000756D3A2034363832323339340043535335
:1001000045323031302F373230312070726F6A65AE
:100110006374206279203C4A696179692057414EB5
:10012000473E004469616D6F6E64204D696E657273
:1001300073001B5B421B5B44001B44001B4D001BF8
:100140005B25643B256472001B5B72001B5B3F32C6
:100150003568001B5B3F32356C001B5B25646D000E
:100160001B5B4B001B5B324A001B5B376D001B5B4C
:10017000306D001B5B25643B2564480011241FBEC5
:10018000CFEFD8E0DEBFCDBF11E0A0E0B1E0EEE3FD
:10019000FAE102C005900D92A83AB107D9F723E021
:1001A000A8EAB1E001C01D92AA3DB207E1F70E94A2
:1001B000B8090C941D0D0C940000E8E6F0E0808175
:1001C00082608083D99AECE6F0E080818F60808342
:1001D0001092A80108958091A801181614F5809135
:1001E000A9016FB7F89491E0292F30E04091A80160
:1001F000042E000C550B2417350754F4F901E7556C
:10020000FE4F4081F901E855FE4F40839F5FECCFE0
:100210009091A80191509093A80167FF03C0789432
:1002200008958FEF08951F920F920FB60F92112429
:100230002F933F934F935F936F937F938F939F93EE
:10024000EF93FF9343B14F7080E090E0642F70E034
:100250002091A801243004F59B01082E02C0359599
:1002600027950A94E2F720FF17C02091AD0130E0F6
:10027000082E02C0359527950A94E2F720FD0CC0A0
:10028000E091A80121E02E0F2093A8010E2E000C72
:10029000FF0BE755FE4F8083019684309105C1F630
:1002A0004093AD01FF91EF919F918F917F916F915D
:1002B0005F914F913F912F910F900FBE0F901F9024
:1002C00018950E946A050895CF92DF92EF92FF92EF
:1002D0001F93CF93DF93CDB7DEB728970FB6F8946F
:1002E000DEBF0FBECDBF0E946A0580E1C82E81E04F
:1002F000D82E10E0CE0101967C01F60181916F01AC
:1003000080FD02C090EF01C09FE0FE01389687FF9C
:1003100002C0908301C01082880F3197EE16FF064D
:10032000B1F71982B701812F0E942A051F5F103192
:1003300021F728960FB6F894DEBF0FBECDBFDF9130
:10034000CF911F91FF90EF90DF90CF900895803173
:1003500018F5683008F5413081F0423081F09DEFAA
:10036000940F923070F0453071F0463071F04730A4
:1003700071F0483071F040E00DC04FE00BC041E03B
:1003800009C04FED07C040EF05C045E303C04CE393
:1003900001C041E10E94E60408951F93CF93DF93CB
:1003A0001092BC021092B80181E08093BF021092BB
:1003B000BD028093BB0249EB51E06BE372E020E1A8
:1003C00030E0A0E8B0E0FD01E21BF30BE85DFE4F7A
:1003D00080E090E0EA01C80FD91F10811883EB017B
:1003E000C80FD91F1882019670978830910591F730
:1003F00021503109485F5F4F685F7F4F21153105FC
:1004000011F7DF91CF911F910895803118F481E0A9
:10041000683008F080E00895803160F4683050F46E
:1004200098E0899FF0011124E754FE4FE60FF11D7B
:100430008081089584E00895CF93DF93C091BF0237
:10044000C031C8F4D091BD02D830A8F48091BB026D
:10045000882331F06D2F8C2F0E940C02482F01C091
:1004600042E06D2F8C2F0E94A7019091BB0281E08A
:10047000891B8093BB02DF91CF9108950E94A6084B
:100480009091B20181E06AE070E089278093B20127
:10049000882339F08AE090E00E94830880EA90E0A7
:1004A00006C08AE090E00E94830886E990E09F936E
:1004B0008F930E94790A0F900F906CE070E08AE0B1
:1004C00090E00E9483088091B1011F928F9389E888
:1004D00090E09F938F930E94790A0F900F900F9056
:1004E0000F900895CF93DF93C82FD62F0E940C0250
:1004F000853011F58091B1018F5F8093B10188E063
:10050000C89FF0011124E754FE4FED0FF11D10823A
:100510006CE070E08AE090E00E9483088091B10175
:100520001F928F938CE790E09F938F930E94790A9C
:100530000F900F900F900F90DF91CF910895A0E052
:10054000B0E0E5EAF2E00C94E80988E180933A0231
:10055000C090BC02A090B801E12CF12CD12CB12CA0
:100560008E2C86010E191F0917FF03C011950195E6
:100570001109902EC0E0D0E06C2F882D0E940C0253
:100580008530A1F4C5018C1B9D0B97FF03C091958D
:100590008195910920913A0230E0A801480F591F36
:1005A000421753071CF4890D80933A022196C830F4
:1005B000D10511F78FEFE81AF80A80E1E816F10487
:1005C00079F680913A02CDB7DEB7ECE00C94040ADC
:1005D0000F931F93CF93DF93D82FC62F1091BC0298
:1005E000812F8D0F803108F058C00091B801602F25
:1005F0006C0F683008F051C00E940C029DEF980FFC
:10060000923008F44AC0873009F447C028E0129FAE
:10061000F0011124E754FE4FE00FF11D108240E07D
:10062000602F812F0E94A7018091BC028D0F8093C3
:10063000BC026091B8016C0F6093B8010E94720215
:100640008091BC026091B80198E0899FF00111246B
:10065000E754FE4FE60FF11D91E0908341E00E94C8
:10066000A7010E949F02853008F018B88091000110
:1006700090910101019689F08091BE029091BC0297
:10068000981306C02091B80190913902291729F0DA
:1006900048E0609139020E94A7010091BD021091CB
:1006A000BF02602F812F0E940C02482F602F812FE4
:1006B0000E94A7018091BC02D80FD093BF02809105
:1006C000B801C80FC093BD020E941C02DF91CF91F8
:1006D0001F910F9108958091B001882311F0479ADE
:1006E00001C018B881E09091B001911180E0809331
:1006F000B00108958091000190910101019671F47B
:1007000080ED97E090930101809300018091BC02FD
:100710008093BE028091B801809339020895609160
:1007200000017091010180E090E00895EF92FF9246
:100730000F931F93CF93DF938FEF9FEF9093010160
:100740008093000140E0609139028091BE020E94D6
:10075000A70100E211E088E2E82E81E0F82EF8011E
:10076000C0818091BE02C80FD18180913902D80F1B
:100770006D2F8C2F0E940C028B7F833071F488E0E8
:10078000C89FF0011124E754FE4FED0FF11D1082B8
:1007900040E06D2F8C2F0E94A7016D2F8C2F0E949F
:1007A0000C02813011F48093AF010E5F1F4FE016F1
:1007B000F106A9F6609139028091BE020E940C02F6
:1007C000813011F48093AF01CDB7DEB7E6E00C9431
:1007D0000A0A809100019091010101979093010113
:1007E00080930001892B11F40E9496030895909143
:1007F000AE0181E089278093AE0108958091AE011A
:1008000008958091AF0108951092AF0108950F935C
:100810001F93CF93DF93182F062F88E0189FF001C6
:100820001124E55CFD4FE60FF11D81E08083812FEF
:100830000E940C02C82F482F602F812F0E94A70111
:10084000C11103C0C0E2D1E00CC0C530E9F4FACF59
:100850006981600F683050F0229681E0C832D80775
:1008600099F08881810F8031B8F7F2CF98E0899FA5
:10087000F0011124E55CFD4FE60FF11D908191110F
:10088000EBCF0E940704E8CFDF91CF911F910F912A
:100890000895CF93DF930E946101D0E0C0E046E06D
:1008A0006C2F8D2F0E94A701CF5FC830C1F7DF5F8B
:1008B000D031A1F76091B8018091BC020E94070479
:1008C00041E06091B8018091BC020E94A70142E022
:1008D0006091BD028091BF020E94A701DF91CF917C
:1008E00008950E94CD010E9449040895CF93DF939B
:1008F0008091B2018823F1F0D091BD02C091BF0276
:100900006D2F8C2F0E940C028730A1F488E0C89FC5
:10091000F0011124E754FE4FED0FF11D108240E06D
:100920006D2F8C2F0E94A7016091BD028091BF02A4
:100930000E940704DF91CF910895CF93DF93D09168
:10094000BD02C091BF026D2F8C2F0E940C0283301C
:1009500079F488E0C89FF0011124E754FE4FED0FB1
:10096000F11D87E0808347E06D2F8C2F0E94A70147
:100970000E947604DF91CF91089580E80E94560886
:100980000895A1E0B0E0E7ECF4E00C94EC09182F36
:1009900080E099830E947D08C12E9981D92E08E0BC
:1009A000760110E1F70180810E947D081150F8E086
:1009B000EF0EF11C1111F6CF01508FEFC81AD80AB3
:1009C0000111EECF2196E8E00C94080AA2E0B0E015
:1009D000ECEEF4E00C94F109182F803198F46830B3
:1009E00088F481E04A8369830E947D08698120E15F
:1009F000629FC0011124812B0E947D084A81842FAF
:100A00000E947D082296E3E00C940D0AA2E0B0E07B
:100A1000ECE0F5E00C94EE09182F8830B8F482E091
:100A200069837A830E947D08812F0E947D086981F5
:100A3000E62E7A81F72E8701005F1F4FF701819123
:100A40007F010E947D08E016F106C1F72296E6E0DC
:100A50000C940A0AA2E0B0E0E0E3F5E00C94EE09A1
:100A6000182F8031B8F483E069837A830E947D086F
:100A7000812F0E947D086981E62E7A81F72E8701F9
:100A8000085F1F4FF70181917F010E947D08E016EA
:100A9000F106C1F72296E6E00C940A0A84E00E946F
:100AA0007D0882E00E947D08089584E00E947D0810
:100AB00081E00E947D08089584E00E947D0888E01E
:100AC0000E947D08089584E00E947D0884E00E94D1
:100AD0007D0808958FE00E947D080895FB019C0128
:100AE000285F3F4FDC014D91CD014193A217B30721
:100AF000C9F70895FB019C01205F3F4FDC014D9138
:100B0000CD014193A217B307C9F708959C01285F4F
:100B10003F4FFC016193CF01E217F307D1F708952E
:100B20009C01205F3F4FFC016193CF01E217F30767
:100B3000D1F708950E94BD040E94DD0040E060E00E
:100B40007BE480E090E00E947A070E9450093F9A7F
:100B5000789408950E94A6086AE070E08AE090E028
:100B60000E94830883E291E09F938F930E94790A09
:100B70006CE070E08AE090E00E9483088DEF90E0E6
:100B80009F938F930E94790A6EE070E08AE090E074
:100B90000E94830887EE90E09F938F930E94790ACA
:100BA0000E9464010F900F900F900F900F900F9084
:100BB0000E94B707811105C00E94EB008F3FC1F36F
:100BC00008958091D4039091D5030E943B0A8F7DB4
:100BD000833591F708950E94A6080E9471040E942F
:100BE000EB000E94BE0708954F925F926F927F9232
:100BF0008F929F92AF92BF92CF92DF92EF92FF922D
:100C0000CF93DF930E9468092B013C016AE070E0FA
:100C10008AE090E00E9483088DED90E09F938F938F
:100C20000E94790A6CE070E08AE090E00E948308FC
:100C300081ED90E09F938F930E94790A0F900F901F
:100C40000F900F90530142010E9401048111BEC018
:100C50000E94FE03882329F00E94B7078823A1F38E
:100C6000A8C00E9401048111F7CF0E94EB00D82F89
:100C70000E94B707882371F08091D4039091D50327
:100C80000E943B0AC82FDD2341F0843631F08434C2
:100C900021F006C0D1110AC0CFEF60E081E01CC096
:100CA000D13039F08F7D813421F006C0D13051F43C
:100CB000CFEF60E08FEF10C0D23011F0873531F404
:100CC00061E009C0CFEFD230D9F38FEDD33011F00E
:100CD000833521F46FEF80E00E94E8028C2F8F7D36
:100CE000853419F40E949D040EC0833419F40E94C7
:100CF0003E0209C0C03219F40E947A0304C0803554
:100D000011F40E94F7030E9468096B017C01D30172
:100D1000C2018C509E4FAF4FBF4FC816D906EA068E
:100D2000FB0620F00E941C02260137010E949F0250
:100D3000843081F4D501C40184529A4FAF4FBF4F24
:100D4000C816D906EA06FB0628F00E946B03460186
:100D500057017ECF0E949F02833059F4D501C40110
:100D600088519C4FAF4FBF4FC816D906EA06FB0605
:100D700060F70E949F02823059F4D501C4018C5063
:100D80009E4FAF4FBF4FC816D906EA06FB06E8F6DE
:100D90000E949F02813009F05BCFD501C4018650CB
:100DA0009F4FAF4FBF4FC816D906EA06FB0668F63D
:100DB0004FCF8091D4039091D5030E943B0A8F7D41
:100DC000803509F041CF0E94F7033ECFDF91CF91EC
:100DD000FF90EF90DF90CF90BF90AF909F908F905B
:100DE0007F906F905F904F9008956EE070E08AE082
:100DF00090E00E94830887EC90E09F938F930E947D
:100E0000790A6FE070E08AE090E00E94830889EA46
:100E100090E09F938F930E94790A0F900F900F900C
:100E20000F900E94EB008F3FE1F30E9404040895AD
:100E3000CF93C82F8A3019F48DE00E9418078FB71E
:100E400080789091C1029F3F29F48111FACF81E00F
:100E500090E020C0F894E091C00291E09E0F909342
:100E6000C002F0E0EE53FD4FC0839091C1029F5F3E
:100E70009093C1029091C0029F3F11F41092C00262
:100E80009091C10090629093C100882309F07894FA
:100E900080E090E0CF9108958091D3038823E1F31F
:100EA0002FB72078F8948091C1033091D30390E05C
:100EB000831B9109E091C10397FF08C08091D30380
:100EC000F0E0E81BF109EE52FC4F07C08091D3031C
:100ED000F0E0E81BF109EE53FC4F80819091D303C1
:100EE00091509093D303222309F07894082E000C9C
:100EF000990B08951092C0021092C1021092C10382
:100F00001092D3031092D2034093B3019B01AC0122
:100F100083E0220F331F441F551F8A95D1F760E0ED
:100F200072E18AE790E00E94C309CA01B9016F5FCC
:100F30007F4F8F4F9F4F22E030E040E050E00E9413
:100F4000C309215031093093C5002093C400E1EC5E
:100F5000F0E088E18083808180688083E4EDF3E0C5
:100F600082E091E0938382839183808308959091BE
:100F7000D30381E0911101C080E008951092C10374
:100F80001092D30308951F920F920FB60F9211245F
:100F90002F938F939F93EF93FF938091C1028823A8
:100FA00019F18091C0022091C10290E0821B910949
:100FB000E091C00297FF08C08091C102F0E0E81BF9
:100FC000F109EF53FC4F07C08091C102F0E0E81B2C
:100FD000F109EE53FD4F90818091C10281508093C1
:100FE000C1029093C60005C08091C1008F7D80939F
:100FF000C100FF91EF919F918F912F910F900FBEA4
:101000000F901F9018951F920F920FB60F921124F8
:101010002F933F934F935F936F937F938F939F9300
:10102000AF93BF93CF93EF93FF93C091C60080918E
:10103000B301882349F08091C1028F3F29F060E01D
:1010400070E08C2F0E9418078091D303803120F02C
:1010500081E08093D20318C0CD3009F4CAE0E0915A
:10106000C10381E08E0F8093C103F0E0EE53FC4F8B
:10107000C0838091D3038F5F8093D3038091C1039A
:10108000803111F41092C103FF91EF91CF91BF9184
:10109000AF919F918F917F916F915F914F913F9110
:1010A0002F910F900FBE0F901F90189594B1906BD9
:1010B00094B92C9A90E59CBD883021F0803211F0D3
:1010C000823019F491E09DBD01C01DBC803269F0F1
:1010D00028F4883069F0803159F00DC0803429F04F
:1010E000803849F48CB581608CBD8CB5826002C0BB
:1010F0008CB581608CBD2C9808958EBD0DB407FE13
:10110000FDCF8EB508959F938F937F936F9383E761
:1011100091E09F938F930E94790A0F900F900F9008
:101120000F900F900F9008958EE691E09F938F930C
:101130000E94790A0F900F90089589E691E09F939D
:101140008F930E94790A0F900F90089584E691E0A2
:101150009F938F930E94790A0F900F90089580E6D5
:1011600091E09F938F930E94790A0F900F900895BA
:101170009F938F938AE591E09F938F930E94790AC2
:101180000F900F900F900F90089583E591E09F933B
:101190008F930E94790A0F900F9008958CE491E04C
:1011A0009F938F930E94790A0F900F90089588E47F
:1011B00091E09F938F930E94790A0F900F9008956A
:1011C000262F062E000C330B3F936F93282F082EEB
:1011D000000C330B3F938F938FE391E09F938F939A
:1011E0000E94790A0F900F900F900F900F900F9020
:1011F00008958CE391E09F938F930E94790A0F905A
:101200000F90089589E391E09F938F930E94790A4C
:101210000F900F900895CF93DF93C62FD42F682F90
:10122000880F770B8C2F0C2E000C990B0E948308D3
:101230000E949D08DC1734F080E290E00E949F0A33
:10124000CF5FF8CF0E949408DF91CF9108950F935C
:101250001F93CF93DF93C62FD42F062E000C770B4E
:10126000082E000C990B0E9483080E949D0802E33F
:1012700011E080E290E0CD1754F40E949F0A1F9382
:101280000F930E94790ACF5F0F900F90F2CF0E94C8
:101290009F0A0E949408DF91CF911F910F910895AA
:1012A0001092B4011092B5011092B6011092B701DC
:1012B00016BC8CE787BD82E084BD83E085BDEEE689
:1012C000F0E080818260808385B3827085BB089561
:1012D0002FB7F8946091B4017091B5018091B60177
:1012E0009091B70127FF01C0789408951F920F9243
:1012F0000FB60F9211242F933F934F935F936F93E9
:101300007F938F939F93AF93BF93EF93FF938091BE
:10131000B4019091B501A091B601B091B7010196C9
:10132000A11DB11D8093B4019093B501A093B601A6
:10133000B093B7010E948F03613D7740810591050D
:1013400030F40E94FE03811102C00E94E903FF9164
:10135000EF91BF91AF919F918F917F916F915F912D
:101360004F913F912F910F900FBE0F901F901895A6
:101370000E949A050E94AA050E94EB050E94F405AE
:101380000E94F506F9CF052E97FB1EF400940E94EB
:10139000DA0957FD07D00E94190A07FC03D04EF462
:1013A0000C94DA0950954095309521953F4F4F4F59
:1013B0005F4F089590958095709561957F4F8F4F01
:1013C0009F4F08952F923F924F925F926F927F921C
:1013D0008F929F92AF92BF92CF92DF92EF92FF9245
:1013E0000F931F93CF93DF93CDB7DEB7CA1BDB0BF1
:1013F0000FB6F894DEBF0FBECDBF09942A88398896
:1014000048885F846E847D848C849B84AA84B9849C
:10141000C884DF80EE80FD800C811B81AA81B981A8
:10142000CE0FD11D0FB6F894DEBF0FBECDBFED01BC
:101430000895A1E21A2EAA1BBB1BFD010DC0AA1F15
:10144000BB1FEE1FFF1FA217B307E407F50720F02D
:10145000A21BB30BE40BF50B661F771F881F991FA8
:101460001A9469F760957095809590959B01AC01F1
:10147000BD01CF010895CF93DF93EC012B8120FFB5
:1014800033C026FF0AC02F7B2B838E819F8101965C
:101490009F838E838A8190E029C022FF0FC0E8815C
:1014A000F9818081082E000C990B009719F42062B5
:1014B0002B831AC03196F983E8830EC0EA85FB8539
:1014C000099597FF09C02B81019611F080E201C0B8
:1014D00080E1822B8B8308C02E813F812F5F3F4F9D
:1014E0003F832E83992702C08FEF9FEFDF91CF912B
:1014F0000895A0E0B0E0EFE7FAE00C94F009AE0147
:10150000495F5F4FDA016D917D91AD0104ED13E00C
:10151000F80182819381DC0113962C911397286046
:1015200013962C930E94A60AD8011296ED91FC9175
:1015300013972381277F2383E4E00C940C0A6091A6
:10154000D6037091D7030E948F0C0895ACE0B0E0F1
:10155000ECEAFAE00C94E2096C017B018A01FC01DF
:1015600017821682838181FFBEC1CE0101964C0194
:10157000F6019381F70193FD859193FF81917F019E
:10158000882309F4ACC1853239F493FD859193FF2A
:1015900081917F01853229F4B60190E00E948F0C81
:1015A000E7CF512C312C20E02032A0F48B3269F0AF
:1015B00030F4803259F0833269F420612CC08D32CE
:1015C00039F0803339F4216026C02260246023C0C2
:1015D000286021C027FD27C030ED380F3A3078F45D
:1015E00026FF06C0FAE05F9E300D1124532E13C073
:1015F0008AE0389E300D1124332E20620CC08E32CA
:1016000021F426FD6CC1206406C08C3611F42068DC
:1016100002C0883641F4F70193FD859193FF8191D3
:101620007F018111C1CF982F9F7D9554933028F46D
:101630000C5F1F4F9FE399830DC0833631F08337D2
:1016400071F0833509F05BC022C0F8018081898385
:101650000E5F1F4F44244394512C540115C0380190
:10166000F2E06F0E711CF801A080B18026FF03C06C
:10167000652D70E002C06FEF7FEFC5012C870E94DF
:10168000840C2C0183012C852F77222E17C0380162
:10169000F2E06F0E711CF801A080B18026FF03C03C
:1016A000652D70E002C06FEF7FEFC5012C870E94AF
:1016B000790C2C012C852068222E830123FC1BC071
:1016C000832D90E048165906B0F4B60180E290E010
:1016D0000E948F0C3A94F4CFF50127FC859127FEE8
:1016E00081915F01B60190E00E948F0C31103A9415
:1016F000F1E04F1A51084114510471F7E6C08436E5
:1017000011F0893639F5F80127FF07C06081718132
:10171000828193810C5F1F4F08C060817181072E09
:10172000000C880B990B0E5F1F4F2F76722E97FFC0
:1017300009C090958095709561957F4F8F4F9F4F11
:101740002068722E2AE030E0A4010E94BF0CA82E6F
:10175000A81844C0853729F42F7EB22E2AE030E045
:1017600025C0F22FF97FBF2E8F36C1F018F48835CF
:1017700079F0B5C0803719F0883721F0B0C02F2F2D
:101780002061B22EB4FE0DC08B2D8460B82E09C02E
:1017900024FF0AC09F2F9660B92E06C028E030E0D3
:1017A00005C020E130E002C020E132E0F801B7FEE0
:1017B00007C060817181828193810C5F1F4F06C0D9
:1017C0006081718180E090E00E5F1F4FA4010E9454
:1017D000BF0CA82EA818FB2DFF777F2E76FE0BC01E
:1017E000372D3E7FA51450F474FE0AC072FC08C069
:1017F000372D3E7E05C0BA2C372D03C0BA2C01C050
:10180000B52C34FF0DC0FE01EA0DF11D808180333F
:1018100011F4397E09C032FF06C0B394B39404C0FA
:10182000832F867809F0B39433FD13C030FF06C0D0
:10183000B31498F43A0C532C5B1810C0B31470F422
:10184000B60180E290E03C870E948F0CB3943C8507
:10185000F5CFB31418F43B1802C05A2C312C34FFC6
:1018600012C0B60180E390E03C870E948F0C3C855B
:1018700032FF17C031FD03C088E790E002C088E561
:1018800090E0B6010CC0832F867859F031FF02C07A
:101890008BE201C080E237FD8DE2B60190E00E944C
:1018A0008F0CA51438F4B60180E390E00E948F0CF1
:1018B0005A94F7CFAA94F401EA0DF11D8081B60184
:1018C00090E00E948F0CA110F5CF332009F450CE88
:1018D000B60180E290E00E948F0C3A94F6CFF601B8
:1018E0008681978102C08FEF9FEF2C96E2E10C94E6
:1018F000FE09FC010590615070400110D8F78095F9
:1019000090958E0F9F1F0895FC01615070400190CB
:101910000110D8F7809590958E0F9F1F08950F9313
:101920001F93CF93DF93182F092FEB018B8181FD3C
:1019300003C08FEF9FEF1EC082FF0FC02E813F813B
:101940008C819D812817390774F4E881F981CF01D2
:10195000019699838883108306C0E885F985812FD5
:101960000995892B31F78E819F8101969F838E8304
:10197000812F902FDF91CF911F910F910895FA0140
:10198000AA27283051F1203181F1E8946F936E7FBE
:101990006E5F7F4F8F4F9F4FAF4FB1E03ED0B4E0AF
:1019A0003CD0670F781F891F9A1FA11D680F791FF0
:1019B0008A1F911DA11D6A0F711D811D911DA11D01
:1019C00020D009F468943F912AE0269F1124301911
:1019D000305D3193DEF6CF010895462F4770405DAC
:1019E0004193B3E00FD0C9F7F6CF462F4F70405D5B
:1019F0004A3318F0495D31FD4052419302D0A9F7B6
:101A0000EACFB4E0A6959795879577956795BA95AF
:101A1000C9F700976105710508959B01AC010A2E75
:101A200006945795479537952795BA95C9F7620F4C
:0E1A3000731F841F951FA01D0895F894FFCF0B
:101A3E00FFFF000000030000000018074C07000025
:101A4E007D4545390010387C3810007D2111217DEF
:101A5E00000100FF0100FF0000030003000000046E
:101A6E00040000040004000400040004000000034D
:101A7E00040403040003000400040004040404002E
:101A8E00030000000004000405040004000003002D
:101A9E000004000000040000040403040500040018
:101AAE000004030400000404000000040404040005
:101ABE000400000004030004000000030000030003
:101ACE0003000300030000040000000400000300F4
:081ADE000400000303000504ED
:00000001FF
