:100000000C94BE000C94DB000C94DB000C94DB0021
:100010000C94DB000C9413010C94DB000C94DB00BB
:100020000C94DB000C94DB000C94DB000C94DB00E4
:100030000C94DB000C94DB000C94DB000C94DB00D4
:100040000C94720C0C94DB000C94DB000C94DB0021
:100050000C94FF0A0C94BF0A0C94DB000C94DB0098
:100060000C94DB000C94DB000C94DB000C94DB00A4
:100070000C94DB000C94DB000C94DB004469616D94
:100080006F6E64733A202564004469616D6F6E641D
:10009000733A202564004368656174206F666600CA
:1000A0004368656174206F6E0050726573732061E0
:1000B00020627574746F6E20746F20737461727433
:1000C00020616761696E0047414D45204F5645529A
:1000D000004469616D6F6E64733A20300043686557
:1000E0006174206F66660053747564656E74206E6B
:1000F000756D3A2034363832323339340043535335
:1001000045323031302F373230312070726F6A65AE
:100110006374206279203C4A696179692057414EB5
:10012000473E004469616D6F6E64204D696E657273
:1001300073001B5B421B5B44001B44001B4D001BF8
:100140005B25643B256472001B5B72001B5B3F32C6
:100150003568001B5B3F32356C001B5B25646D000E
:100160001B5B4B001B5B324A001B5B376D001B5B4C
:10017000306D001B5B25643B2564480011241FBEC5
:10018000CFEFD8E0DEBFCDBF12E0A0E0B1E0E6EDFA
:10019000F3E202C005900D92A036B107D9F724E032
:1001A000A0E6B2E001C01D92A839B207E1F70E94B3
:1001B000B40C0C94E9110C940000E8E6F0E08081A6
:1001C00082608083D99AECE6F0E080818F60808342
:1001D00010926002089580916002181614F58091C3
:1001E00061026FB7F89491E0292F30E040916002EE
:1001F000042E000C550B2417350754F4F901EF5960
:10020000FD4F4081F901E05AFD4F40839F5FECCFE5
:100210009091600291509093600267FF03C07894C0
:1002200008958FEF08951F920F920FB60F92112429
:100230002F933F934F935F936F937F938F939F93EE
:10024000EF93FF9343B14F7080E090E0642F70E034
:1002500020916002243004F59B01082E02C03595E0
:1002600027950A94E2F720FF17C02091650230E03D
:10027000082E02C0359527950A94E2F720FD0CC0A0
:10028000E091600221E02E0F209360020E2E000C00
:10029000FF0BEF59FD4F8083019684309105C1F625
:1002A00040936502FF91EF919F918F917F916F91A4
:1002B0005F914F913F912F910F900FBE0F901F9024
:1002C00018950E945E070895CF92DF92EF92FF92F9
:1002D0001F93CF93DF93CDB7DEB728970FB6F8946F
:1002E000DEBF0FBECDBF0E945E0780E2C82E81E058
:1002F000D82E10E0CE0101967C01F60181916F01AC
:1003000080FD02C090EF01C09FE0FE01389687FF9C
:1003100002C0908301C01082880F3197EE16FF064D
:10032000B1F71982B701812F0E941E071F5F10319C
:1003300021F728960FB6F894DEBF0FBECDBFDF9130
:10034000CF911F91FF90EF90DF90CF900895803173
:1003500038F5683028F5413091F0423091F09DEF4A
:10036000940F923080F0453081F0463081F0473074
:1003700081F0483081F0493081F040E00FC04FE01B
:100380000DC041E00BC04FED09C040EF07C045E391
:1003900005C04CE303C041E101C043E10E94DA061D
:1003A0000895EF92FF921F93CF93DF9310927B03F8
:1003B0001092780281E080937D0310927C038093F9
:1003C0007A0310916B02A0E6B1E060EE71E020E0EC
:1003D00030E0C90186509D4F7C01F901E758FD4F7F
:1003E00040E050E0CA0180599F4F112319F08A0F55
:1003F0009B1F02C0860F971FEC0188818083E70155
:1004000019927E014051510931964038DFEF5D0766
:1004100049F711966F5F7F4F285F3F4F20383105B6
:10042000C1F6DF91CF911F91FF90EF900895803139
:1004300018F481E0683008F080E00895803160F4BD
:10044000683050F498E0899FF0011124E758FD4F7F
:10045000E60FF11D8081089584E00895CF93DF9326
:10046000C0917D03C031D0F4D0917C03D830B0F47A
:1004700080917A03882331F06D2F8C2F0E941E0209
:10048000482F01C042E06D2F8C2F0E94A70181E010
:1004900090917A03911180E080937A03DF91CF915C
:1004A000089580916802843618F083E6809368028C
:1004B0008FEF81B9389A809168028A3058F1209183
:1004C000670291E0211190E090936702909167029A
:1004D000911106C06AE00E94BF0CE92FF0E00EC047
:1004E000282F30E06AE00E94BF0CA901491B510986
:1004F000CA016AE070E00E94DF0CFB01E050FF4F90
:10050000808182B980916702882311F0409A089512
:100510004098089510926702E82FF0E0E050FF4FF6
:10052000808182B908950E94A20B9091710281E0AE
:100530006AE070E0892780937102882339F08AE0AD
:1005400090E00E947F0B80EA90E006C08AE090E095
:100550000E947F0B86E990E09F938F930E94450F46
:100560000F900F906CE070E08AE090E00E947F0BAB
:10057000809170021F928F9389E890E09F938F93F0
:100580000E94450F0F900F900F900F900895CF93FA
:10059000DF93C82FD62F0E941E02853011F580915F
:1005A00070028F5F8093700288E0C89FF001112471
:1005B000E758FD4FED0FF11D10826CE070E08AE00E
:1005C00090E00E947F0B809170021F928F938CE7C6
:1005D00090E09F938F930E94450F0F900F900F9084
:1005E0000F90DF91CF910895A0E0B0E0EAEFF2E044
:1005F0000C943A0D88E18093F902C0907B03A0909F
:100600007802E12CF12CD12CB12C8E2C86010E1904
:100610001F0917FF03C0119501951109902EC0E025
:10062000D0E06C2F882D0E941E028530A1F4C501F8
:100630008C1B9D0B97FF03C091958195910920918B
:10064000F90230E0A801480F591F421753071CF464
:10065000890D8093F9022196C830D10511F78FEFEB
:10066000E81AF80A80E1E816F10479F68091F902B7
:10067000CDB7DEB7ECE00C94560D80916F02882365
:1006800011F0479A01C0479881E090916F02911153
:1006900080E080936F020895809110019091110184
:1006A000019671F480ED97E0909311018093100111
:1006B00080917B0380930B018091780280930A01E3
:1006C000089590917B0380910B01981306C090913F
:1006D000780280910A019817D9F020916E028091DA
:1006E0000E0190910F0164E170E00E94CB0C222377
:1006F00029F081E00E94B60740E004C080E00E943B
:10070000B60748E060910A0180910B010E94A701A1
:1007100090916E0281E0892780936E020895809106
:100720001001909111010895CF93DF93C8E5D1E0B6
:10073000698180910A01680F988180910B0149E0DD
:10074000890F0E94A701229681E0C036D80781F761
:10075000DF91CF91089590916C0281E08927809379
:100760006C02089580916C02089580916D02089545
:1007700010926D02109271021092700210926A0231
:100780008FEF80930A0180930B0110926802089505
:100790008091F502813099F420916B029091700262
:1007A000222329F0963059F410926B0204C0933042
:1007B00031F480936B0280936D0280936A020895F6
:1007C00080916A0208959091690281E0892780935F
:1007D00069020895CF93DF93D0E0C0E046E06C2F2C
:1007E0008D2F0E94A701CF5FC830C1F7DF5FD031E6
:1007F000A1F7DF91CF910895EF92FF921F93CF93CE
:10080000DF938AEFE82E82E0F82E10E0C0E0D0E01F
:10081000F701EC0FFD1F8081882349F06C2F812F99
:100820000E941E02482F6C2F812F0E94A701219643
:10083000C830D10569F788E0E80EF11C1F5F103160
:1008400029F7DF91CF911F91FF90EF900895A0E0DD
:10085000B0E0EDE2F4E00C943F0DD82E00E311E09F
:1008600088E5E82E81E0F82EF801C08180917B03B5
:10087000C80FC031E0F4D18180917802D80FD83010
:10088000B0F4DD2079F06D2F8C2F0E941E02482FCE
:100890006D2F8C2F0E94A70141E06091780280911A
:1008A0007B0303C046E06D2F8C2F0E94A7010E5FD3
:1008B0001F4FE016F106C1F6CDB7DEB7E7E00C94A6
:1008C0005B0D0F931F93CF93DF93C82FD62F00910B
:1008D000780210917B03602F6D0F812F8C0F0E9487
:1008E0001E029DEF980F212F30E0923008F460C077
:1008F000873009F45DC0809168028F5F8093680241
:10090000F90183E0EE0FFF1F8A95E1F7E758FD4FED
:10091000E00FF11D108240E0602F812F0E94A7019F
:1009200080916902882319F080E00E942704809159
:100930007B038C0F80937B03609178026D0F609333
:1009400078020E94C70280917B036091780228E0C0
:10095000829FF0011124E758FD4FE60FF11D91E051
:10096000908341E00E94A7010E94F402853008F0C4
:1009700047988091100190911101019689F0809122
:100980000B0190917B03981306C0209178029091FF
:100990000A01291729F048E060910A010E94A70185
:1009A00080916902882359F081E00E94270407C0E2
:1009B0002C0F311D2031310511F40E94C803009124
:1009C0007C0310917D03602F812F0E941E02482F0F
:1009D000602F812F0E94A70180917B03C80FC093D5
:1009E0007D0380917802D80FD0937C030E942E0261
:1009F000DF91CF911F910F9108950F931F93CF9384
:100A0000DF93182F062F88E0189FF0011124E6507D
:100A1000FD4FE60FF11D81E08083812F0E941E02B1
:100A2000C82F482F602F812F0E94A701C11103C03A
:100A3000C8E5D1E00CC0C530E9F4FACF6981600F98
:100A4000683050F0229681E0C036D80799F088814E
:100A5000810F8031B8F7F2CF98E0899FF00111241F
:100A6000E650FD4FE60FF11D90819111EBCF0E94F2
:100A7000FD04E8CFDF91CF911F910F910895CF939F
:100A8000DF930E946101D0E0C0E046E06C2F8D2F23
:100A90000E94A701CF5FC830C1F7DF5FD031A1F757
:100AA0006091780280917B030E94FD0441E0609197
:100AB000780280917B030E94A70142E060917C0351
:100AC00080917D030E94A701DF91CF9108950E943C
:100AD000D1010E943F050895CF93DF938091710269
:100AE0008823F1F0D0917C03C0917D036D2F8C2F72
:100AF0000E941E028730A1F488E0C89FF0011124F3
:100B0000E758FD4FED0FF11D108240E06D2F8C2F47
:100B10000E94A70160917C0380917D030E94FD04E7
:100B2000DF91CF91089560917C0380917D030E94B5
:100B30001E028B7F8330A1F481E00E94DB0780914D
:100B40007D0360917C0398E0899FF0011124E758B0
:100B5000FD4FE60FF11D97E0908347E00E94A7014B
:100B60000E946C050895A0E0B0E0E9EBF5E00C947C
:100B70003C0D8FEF9FEF909311018093100183E064
:100B80000E94070860E080E00E94B60728E5E22E98
:100B900021E0F22E30E6A32E31E0B32EF701C08122
:100BA00080910B01C80FD18180910A01D80F6D2F60
:100BB0008C2F0E941E028B7F0C2F10E0CD2ED12C8B
:100BC0008330A1F4F80193E0EE0FFF1F9A95E1F74F
:100BD000E758FD4FEC0DFD1D108240E06D2F8C2F6E
:100BE0000E94A7016D2F8C2F0E94FD046D2F8C2F6A
:100BF0000E941E02813021F480936D0210926A02DD
:100C000083E0000F111F8A95E1F706501D4FF80190
:100C1000EC0DFD1D8081882331F06D2F8C2F0E94FB
:100C20001E02482F01C046E06D2F8C2F0E94A701A5
:100C3000F2E0EF0EF11CAE14BF0409F0AFCF8091CB
:100C40000B0190917B0389130CC020910A019091B4
:100C50007802291306C081E080936D0210926A0227
:100C600005C040E060910A010E94A7018FEF8093C8
:100C70000A0180930B01469880916902882329F02C
:100C80000E94EA0381E00E942704CDB7DEB7EAE0C4
:100C90000C94580DCF93DF932091100130911101E6
:100CA000215031093093110120931001C9016AE0EC
:100CB00070E00E94CB0C80910E0190910F01861B79
:100CC000970B2817390750F40E9461038091100197
:100CD0009091110190930F0180930E014698C8E501
:100CE000D1E0698180910A01680F988180910B01A0
:100CF000890F0E941E02813009F4469A229621E053
:100D0000C036D20771F790910B0180917B03981345
:100D100007C090910A0180917802981301C0469A09
:100D20008091100190911101853F914018F481E06C
:100D30000E94070880911001909111018D3291401D
:100D400028F40E94940382E00E9407088091100119
:100D500090911101892B11F40E94B305DF91CF917D
:100D6000089580E80E94520B0895A1E0B0E0EBEBFB
:100D7000F6E00C943E0D182F80E099830E94790BC9
:100D8000C12E9981D92E08E0760110E1F70180810A
:100D90000E94790B1150F8E0EF0EF11C1111F6CF03
:100DA00001508FEFC81AD80A0111EECF2196E8E062
:100DB0000C945A0DA2E0B0E0E0EEF6E00C94430D86
:100DC000182F803198F4683088F481E04A83698371
:100DD0000E94790B698120E1629FC0011124812B5F
:100DE0000E94790B4A81842F0E94790B2296E3E0BE
:100DF0000C945F0DA2E0B0E0E0E0F7E00C94400D51
:100E0000182F8830B8F482E069837A830E94790BC6
:100E1000812F0E94790B6981E62E7A81F72E870156
:100E2000005F1F4FF70181917F010E94790BE0164F
:100E3000F106C1F72296E6E00C945C0DA2E0B0E06A
:100E4000E4E2F7E00C94400D182F8031B8F483E011
:100E500069837A830E94790B812F0E94790B6981C3
:100E6000E62E7A81F72E8701085F1F4FF7018191E7
:100E70007F010E94790BE016F106C1F72296E6E0A9
:100E80000C945C0D84E00E94790B82E00E94790B47
:100E9000089584E00E94790B81E00E94790B089507
:100EA00084E00E94790B88E00E94790B089584E029
:100EB0000E94790B84E00E94790B08958FE00E94D4
:100EC000790B0895FB019C01285F3F4FDC014D9198
:100ED000CD014193A217B307C9F70895FB019C0107
:100EE000205F3F4FDC014D91CD014193A217B30725
:100EF000C9F708959C01285F3F4FFC016193CF0122
:100F0000E217F307D1F708959C01205F3F4FFC01E2
:100F10006193CF01E217F307D1F708959C0140E0F8
:100F200050E060E472E48FE090E00E94F30CC901AD
:100F30000895CF92DF92EF92FF926B017C01BA018C
:100F400080E090E00E940C0EA70196010E949A0E8C
:100F500020E030E048EC52E40E946B0D0E94DD0D71
:100F6000CB01FF90EF90DF90CF90089590E19AB978
:100F700093E2909380009AE19093810070E068542E
:100F80007E4F709389006093880020E430E03093B6
:100F90008B0020938A00882321F08091720288239D
:100FA00049F01AB810928B0010928A0010928000BB
:100FB00010928100089590E19AB990917202911176
:100FC00010C0813019F48CEB92E004C0823039F407
:100FD00088EE93E090938900809388000BC0833063
:100FE00049F41AB810928B0010928A001092800077
:100FF0001092810083E2809380008AE180938100D7
:1010000080E490E090938B0080938A00089590E1B3
:101010009AB99091720291111AC0813049F480EC12
:1010200094E4909389008093880080E490E00AC063
:101030008230B1F480E899E8909389008093880029
:1010400080E290E090938B0080938A0009C01AB8E8
:1010500010928B0010928A001092800010928100F2
:1010600083E2809380008AE18093810008959091CB
:10107000720281E089278093720208950E94B1066E
:101080000E94DD0040E060E07BE480E090E00E94B0
:10109000760A0E944C0C3F9A789408950E94A20B05
:1010A0006AE070E08AE090E00E947F0B83E291E0CA
:1010B0009F938F930E94450F6CE070E08AE090E070
:1010C0000E947F0B8DEF90E09F938F930E94450FBE
:1010D0006EE070E08AE090E00E947F0B87EE90E087
:1010E0009F938F930E94450F0E9464010F900F9071
:1010F0000F900F900F900F900E94B30A811105C0BE
:101100000E94EB008F3FC1F308958091920490916B
:1011100093040E94070F8F7D833591F708950E94F5
:10112000A20B0E9467050E94EB000E94BA0A089574
:10113000A8E0B0E0EEE9F8E00C94350D0E94640CF4
:1011400069837A838B839C836AE070E08AE090E015
:101150000E947F0B8DED90E09F938F930E94450F2F
:101160006CE070E08AE090E00E947F0B81ED90E0FF
:101170009F938F930E94450F0F900F900F900F90A9
:10118000C980DA80EB80FC80312C44244A94542CB2
:1011900032010E94B50381111BC10E94B203882352
:1011A00029F00E94B30A8823A1F305C10E94B50368
:1011B0008111F7CF0E94EB00182F0E94B30A8823F9
:1011C00071F080919204909193040E94070F082F70
:1011D000112341F0843631F0843421F006C011111E
:1011E0000AC00FEF60E081E01CC0113039F08F7D44
:1011F000813421F006C0113051F40FEF60E08FEF21
:1012000010C0123011F0873531F461E009C00FEFE2
:101210001230D9F38FED133011F0833521F46FEFD5
:1012200080E00E946104102F1F7D153449F40E9454
:1012300093050E94640C2B013C013324339425C098
:10124000133419F40E94930220C0003219F40E9452
:101250004C0305C0103519F40E94AB0316C01634B8
:1012600081F40E94E303882331F00E94EA0381E0C5
:101270000E9427040AC080E00E9427040E94FC0309
:1012800004C01D3411F40E9437080E94640C4B0105
:101290005C0189819A81AB81BC818C509E4FAF4F9C
:1012A000BF4F88169906AA06BB0630F00E942E0290
:1012B00089829A82AB82BC820E94F402843081F4DB
:1012C000D701C60184529A4FAF4FBF4F8816990677
:1012D000AA06BB0628F00E943D03750164012DC0DB
:1012E0000E94F402833059F4D701C60188519C4F03
:1012F000AF4FBF4F88169906AA06BB0660F70E943B
:10130000F402823059F4D701C6018C509E4FAF4F82
:10131000BF4F88169906AA06BB06E8F60E94F4029B
:10132000813059F4D701C60186509F4FAF4FBF4F50
:1013300088169906AA06BB0670F60E94640CA301E3
:1013400092012A523D4F4F4F5F4F2D833E834F8373
:101350005887530142013BE6830E31E0931EA11CE6
:10136000B11C681579058A059B0588F0332079F052
:101370000E94640C2D813E814F815885621773074E
:101380008407950720F482E00E94DB0706CF0E94C5
:10139000640C2D813E814F81588562177307840745
:1013A000950708F4FACE332009F4F7CE83E00E94C3
:1013B000DB07312CF2CE80919204909193040E942D
:1013C000070F8F7D803509F0E4CE0E94AB03E1CE9C
:1013D0002896E1E10C94510D0E94E003882319F056
:1013E0000E94B80308956EE070E08AE090E00E94E9
:1013F0007F0B87EC90E09F938F930E94450F6FE0E7
:1014000070E08AE090E00E947F0B89EA90E09F9371
:101410008F930E94450F0F900F900F900F900E9496
:10142000EB008F3FE1F3DCCFCF93C82F8A3019F464
:101430008DE00E94140A8FB7807890917F039F3FC0
:1014400029F48111FACF81E090E020C0F894E09176
:101450007E0391E09E0F90937E03F0E0E058FC4FF6
:10146000C08390917F039F5F90937F0390917E0351
:101470009F3F11F410927E039091C100906290936F
:10148000C100882309F0789480E090E0CF9108951E
:10149000809191048823E1F32FB72078F89480910C
:1014A0007F043091910490E0831B9109E0917F04C7
:1014B00097FF08C080919104F0E0E81BF109E05724
:1014C000FB4F07C080919104F0E0E81BF109E05860
:1014D000FB4F80819091910491509093910422232D
:1014E00009F07894082E000C990B089510927E0351
:1014F00010927F0310927F04109291041092900436
:10150000409373029B01AC0183E0220F331F441F01
:10151000551F8A95D1F760E072E18AE790E00E945A
:10152000150DCA01B9016F5F7F4F8F4F9F4F22E0AA
:1015300030E040E050E00E94150D21503109309319
:10154000C5002093C400E1ECF0E088E18083808155
:1015500080688083E2E9F4E082E191E09383828312
:101560009183808308959091910481E0911101C04D
:1015700080E0089510927F041092910408951F92C4
:101580000F920FB60F9211242F938F939F93EF9387
:10159000FF9380917F03882319F180917E0320912E
:1015A0007F0390E0821B9109E0917E0397FF08C0C2
:1015B00080917F03F0E0E81BF109E158FB4F07C081
:1015C00080917F03F0E0E81BF109E058FC4F908127
:1015D00080917F03815080937F039093C60005C064
:1015E0008091C1008F7D8093C100FF91EF919F9109
:1015F0008F912F910F900FBE0F901F9018951F92F3
:101600000F920FB60F9211242F933F934F935F9336
:101610006F937F938F939F93AF93BF93CF93EF93EA
:10162000FF93C091C60080917302882349F0809196
:101630007F038F3F29F060E070E08C2F0E94140A36
:1016400080919104803120F081E08093900418C053
:10165000CD3009F4CAE0E0917F0481E08E0F8093E1
:101660007F04F0E0E058FB4FC083809191048F5FCE
:101670008093910480917F04803111F410927F0453
:10168000FF91EF91CF91BF91AF919F918F917F91FA
:101690006F915F914F913F912F910F900FBE0F90DF
:1016A0001F90189594B1906B94B92C9A90E59CBDBD
:1016B000883021F0803211F0823019F491E09DBD24
:1016C00001C01DBC803269F028F4883069F0803197
:1016D00059F00DC0803429F0803849F48CB5816010
:1016E0008CBD8CB5826002C08CB581608CBD2C989D
:1016F00008958EBD0DB407FEFDCF8EB508959F935E
:101700008F937F936F9383E791E09F938F930E94D2
:10171000450F0F900F900F900F900F900F9008951E
:101720008EE691E09F938F930E94450F0F900F904C
:10173000089589E691E09F938F930E94450F0F9043
:101740000F90089584E691E09F938F930E94450F38
:101750000F900F90089580E691E09F938F930E94E1
:10176000450F0F900F9008959F938F938AE591E016
:101770009F938F930E94450F0F900F900F900F90A3
:10178000089583E591E09F938F930E94450F0F90FA
:101790000F9008958CE491E09F938F930E94450FE2
:1017A0000F900F90089588E491E09F938F930E948B
:1017B000450F0F900F900895262F062E000C330B27
:1017C0003F936F93282F082E000C330B3F938F937A
:1017D0008FE391E09F938F930E94450F0F900F909E
:1017E0000F900F900F900F9008958CE391E09F93CE
:1017F0008F930E94450F0F900F90089589E391E019
:101800009F938F930E94450F0F900F900895CF9351
:10181000DF93C62FD42F682F880F770B8C2F0C2EB9
:10182000000C990B0E947F0B0E94990BDC1734F07F
:1018300080E290E00E946B0FCF5FF8CF0E94900B88
:10184000DF91CF9108950F931F93CF93DF93C62F0E
:10185000D42F062E000C770B082E000C990B0E943B
:101860007F0B0E94990B02E311E080E290E0CD171C
:1018700054F40E946B0F1F930F930E94450FCF5F8C
:101880000F900F90F2CF0E946B0F0E94900BDF9190
:10189000CF911F910F9108951092740210927502CA
:1018A000109276021092770216BC8CE787BD82E018
:1018B00084BD83E085BDEEE6F0E0808182608083B8
:1018C00085B3827085BB08952FB7F8946091740238
:1018D00070917502809176029091770227FF01C086
:1018E000789408951F920F920FB60F9211242F93A0
:1018F0003F934F935F936F937F938F939F93AF9398
:10190000BF93EF93FF938091740290917502A09121
:101910007602B09177020196A11DB11D80937402E9
:1019200090937502A0937602B09377020E945102C1
:101930000E94B203811107C00E948F03813D97402E
:1019400010F40E944A06FF91EF91BF91AF919F91D1
:101950008F917F916F915F914F913F912F910F9058
:101960000FBE0F901F9018950E943E080E944E08CF
:101970000E948F080E9498080E94EC09F9CF991BD9
:1019800079E004C0991F961708F0961B881F7A9576
:10199000C9F780950895AA1BBB1B51E107C0AA1F78
:1019A000BB1FA617B70710F0A61BB70B881F991F00
:1019B0005A95A9F780959095BC01CD01089597FBA4
:1019C000072E16F4009407D077FD09D00E94CB0CA7
:1019D00007FC05D03EF4909581959F4F0895709532
:1019E00061957F4F0895A1E21A2EAA1BBB1BFD0132
:1019F0000DC0AA1FBB1FEE1FFF1FA217B307E407EE
:101A0000F50720F0A21BB30BE40BF50B661F771F45
:101A1000881F991F1A9469F7609570958095909525
:101A20009B01AC01BD01CF010895052E97FB1EF46B
:101A300000940E942C0D57FD07D00E94F30C07FC68
:101A400003D04EF40C942C0D509540953095219573
:101A50003F4F4F4F5F4F08959095809570956195DA
:101A60007F4F8F4F9F4F08952F923F924F925F92DB
:101A70006F927F928F929F92AF92BF92CF92DF929E
:101A8000EF92FF920F931F93CF93DF93CDB7DEB703
:101A9000CA1BDB0B0FB6F894DEBF0FBECDBF099497
:101AA0002A88398848885F846E847D848C849B84EE
:101AB000AA84B984C884DF80EE80FD800C811B81FC
:101AC000AA81B981CE0FD11D0FB6F894DEBF0FBE2B
:101AD000CDBFED0108950E947F0D0C94600E0E9411
:101AE000590E58F00E94520E40F029F45F3F29F041
:101AF0000C94490E51110C94940E0C944F0E0E94AC
:101B0000710E68F39923B1F3552391F3951B550B8F
:101B1000BB27AA2762177307840738F09F5F5F4FC0
:101B2000220F331F441FAA1FA9F335D00E2E3AF0FF
:101B3000E0E832D091505040E695001CCAF72BD017
:101B4000FE2F29D0660F771F881FBB1F2617370768
:101B50004807AB07B0E809F0BB0B802DBF01FF279A
:101B600093585F4F3AF09E3F510578F00C94490E20
:101B70000C94940E5F3FE4F3983ED4F386957795EA
:101B80006795B795F7959F5FC9F7880F911D969553
:101B9000879597F90895E1E0660F771F881FBB1FAF
:101BA000621773078407BA0720F0621B730B840B5C
:101BB000BA0BEE1F88F7E09508950E94790E88F021
:101BC0009F5798F0B92F9927B751B0F0E1F0660F01
:101BD000771F881F991F1AF0BA95C9F714C0B13042
:101BE00091F00E94930EB1E008950C94930E672F2C
:101BF000782F8827B85F39F0B93FCCF38695779571
:101C00006795B395D9F73EF4909580957095619559
:101C10007F4F8F4F9F4F0895E89409C097FB3EF484
:101C200090958095709561957F4F8F4F9F4F992329
:101C3000A9F0F92F96E9BB279395F69587957795A7
:101C40006795B795F111F8CFFAF4BB0F11F460FF67
:101C50001BC06F5F7F4F8F4F9F4F16C0882311F0BF
:101C600096E911C0772321F09EE8872F762F05C0D3
:101C7000662371F096E8862F70E060E02AF09A956E
:101C8000660F771F881FDAF7880F9695879597F963
:101C9000089597F99F6780E870E060E008959FEFEE
:101CA00080EC089500240A941616170618060906F3
:101CB000089500240A9412161306140605060895C2
:101CC000092E0394000C11F4882352F0BB0F40F44A
:101CD000BF2B11F460FF04C06F5F7F4F8F4F9F4F8A
:101CE000089557FD9058440F551F59F05F3F71F00C
:101CF0004795880F97FB991F61F09F3F79F0879573
:101D00000895121613061406551FF2CF4695F1DFFB
:101D100008C0161617061806991FF1CF869571058B
:101D2000610508940895E894BB2766277727CB01BF
:101D300097F908950E94AD0E0C94600E0E94520E09
:101D400038F00E94590E20F0952311F00C94490EA2
:101D50000C944F0E11240C94940E0E94710E70F38B
:101D6000959FC1F3950F50E0551F629FF001729F40
:101D7000BB27F00DB11D639FAA27F00DB11DAA1F4F
:101D8000649F6627B00DA11D661F829F2227B00D9C
:101D9000A11D621F739FB00DA11D621F839FA00D27
:101DA000611D221F749F3327A00D611D231F849F77
:101DB000600D211D822F762F6A2F11249F575040CE
:101DC0009AF0F1F088234AF0EE0FFF1FBB1F661F49
:101DD000771F881F91505040A9F79E3F510580F012
:101DE0000C94490E0C94940E5F3FE4F3983ED4F3A8
:101DF000869577956795B795F795E7959F5FC1F7B6
:101E0000FE2B880F911D9695879597F90895CF938E
:101E1000DF93EC012B8120FF33C026FF0AC02F7B0C
:101E20002B838E819F8101969F838E838A8190E090
:101E300029C022FF0FC0E881F9818081082E000CA3
:101E4000990B009719F420622B831AC03196F983FD
:101E5000E8830EC0EA85FB85099597FF09C02B81B1
:101E6000019611F080E201C080E1822B8B8308C0D3
:101E70002E813F812F5F3F4F3F832E83992702C0E2
:101E80008FEF9FEFDF91CF910895A0E0B0E0EBE4FA
:101E9000FFE00C94420DAE01495F5F4FDA016D9196
:101EA0007D91AD0102E914E0F80182819381DC01AA
:101EB00013962C911397286013962C930E94720FFF
:101EC000D8011296ED91FC9113972381277F2383EC
:101ED000E4E00C945E0D60919404709195040E946E
:101EE0005B110895ACE0B0E0E8E7FFE00C94340D3E
:101EF0006C017B018A01FC0117821682838181FFBC
:101F0000BEC1CE0101964C01F6019381F70193FD0C
:101F1000859193FF81917F01882309F4ACC18532BB
:101F200039F493FD859193FF81917F01853229F4E6
:101F3000B60190E00E945B11E7CF512C312C20E0DC
:101F40002032A0F48B3269F030F4803259F08332C1
:101F500069F420612CC08D3239F0803339F421606E
:101F600026C02260246023C0286021C027FD27C02E
:101F700030ED380F3A3078F426FF06C0FAE05F9E65
:101F8000300D1124532E13C08AE0389E300D1124D9
:101F9000332E20620CC08E3221F426FD6CC12064E9
:101FA00006C08C3611F4206802C0883641F4F7016F
:101FB00093FD859193FF81917F018111C1CF982F6E
:101FC0009F7D9554933028F40C5F1F4F9FE39983B6
:101FD0000DC0833631F0833771F0833509F05BC073
:101FE00022C0F801808189830E5F1F4F44244394EF
:101FF000512C540115C03801F2E06F0E711CF8012C
:10200000A080B18026FF03C0652D70E002C06FEF95
:102010007FEFC5012C870E9450112C0183012C8574
:102020002F77222E17C03801F2E06F0E711CF801D5
:10203000A080B18026FF03C0652D70E002C06FEF65
:102040007FEFC5012C870E9445112C012C8520684B
:10205000222E830123FC1BC0832D90E048165906D5
:10206000B0F4B60180E290E00E945B113A94F4CFA4
:10207000F50127FC859127FE81915F01B60190E073
:102080000E945B1131103A94F1E04F1A510841144B
:10209000510471F7E6C0843611F0893639F5F8013C
:1020A00027FF07C060817181828193810C5F1F4F80
:1020B00008C060817181072E000C880B990B0E5FA0
:1020C0001F4F2F76722E97FF09C0909580957095BF
:1020D00061957F4F8F4F9F4F2068722E2AE030E02E
:1020E000A4010E948B11A82EA81844C0853729F49A
:1020F0002F7EB22E2AE030E025C0F22FF97FBF2ECE
:102100008F36C1F018F4883579F0B5C0803719F0F2
:10211000883721F0B0C02F2F2061B22EB4FE0DC041
:102120008B2D8460B82E09C024FF0AC09F2F9660B3
:10213000B92E06C028E030E005C020E130E002C042
:1021400020E132E0F801B7FE07C060817181828131
:1021500093810C5F1F4F06C06081718180E090E029
:102160000E5F1F4FA4010E948B11A82EA818FB2DF3
:10217000FF777F2E76FE0BC0372D3E7FA51450F4DF
:1021800074FE0AC072FC08C0372D3E7E05C0BA2C12
:10219000372D03C0BA2C01C0B52C34FF0DC0FE0191
:1021A000EA0DF11D8081803311F4397E09C032FFC0
:1021B00006C0B394B39404C0832F867809F0B39417
:1021C00033FD13C030FF06C0B31498F43A0C532CFF
:1021D0005B1810C0B31470F4B60180E290E03C8745
:1021E0000E945B11B3943C85F5CFB31418F43B18EF
:1021F00002C05A2C312C34FF12C0B60180E390E0AB
:102200003C870E945B113C8532FF17C031FD03C043
:1022100088E790E002C088E590E0B6010CC0832F0B
:10222000867859F031FF02C08BE201C080E237FDB1
:102230008DE2B60190E00E945B11A51438F4B6015E
:1022400080E390E00E945B115A94F7CFAA94F401C6
:10225000EA0DF11D8081B60190E00E945B11A11092
:10226000F5CF332009F450CEB60180E290E00E9411
:102270005B113A94F6CFF6018681978102C08FEF09
:102280009FEF2C96E2E10C94500DFC0105906150FB
:1022900070400110D8F7809590958E0F9F1F08957C
:1022A000FC016150704001900110D8F78095909525
:1022B0008E0F9F1F08950F931F93CF93DF93182FB7
:1022C000092FEB018B8181FD03C08FEF9FEF1EC0B3
:1022D00082FF0FC02E813F818C819D812817390795
:1022E00074F4E881F981CF01019699838883108382
:1022F00006C0E885F985812F0995892B31F78E81F4
:102300009F8101969F838E83812F902FDF91CF91A4
:102310001F910F910895FA01AA27283051F1203119
:1023200081F1E8946F936E7F6E5F7F4F8F4F9F4F69
:10233000AF4FB1E03ED0B4E03CD0670F781F891FAB
:102340009A1FA11D680F791F8A1F911DA11D6A0F79
:10235000711D811D911DA11D20D009F468943F912C
:102360002AE0269F11243019305D3193DEF6CF012B
:102370000895462F4770405D4193B3E00FD0C9F7F1
:10238000F6CF462F4F70405D4A3318F0495D31FD5E
:102390004052419302D0A9F7EACFB4E0A6959795B1
:1023A000879577956795BA95C9F700976105710587
:1023B00008959B01AC010A2E0694579547953795D1
:1023C0002795BA95C9F7620F731F841F951FA01D2B
:0623D0000895F894FFCF10
:1023D6003F065B4F666D7D077F6FFFFFFFFFD007F0
:1023E600FFFF0000000300000000140A480A000076
:1023F6007D4545390010387C3810007D2111217D3E
:10240600FEFFFE00FE01FFFEFFFFFF00FF01FF02D1
:1024160000FE00FF0001000201FE01FF01000101B4
:10242600010202FF02000201000100FF0100FF009D
:10243600040400050004000004000404000304046E
:10244600030400040404040403000004000004045C
:102456000000000003000000000000000404040463
:102466000404000400040304040404040500030532
:102476000303030404040504050400000003030425
:10248600000000040004030000030003000400042D
:102496000000000300040400040304000400000418
:1024A6000000000300000404000305040004040403
:1024B60000030003000000040400000400040004FC
:1024C60000040004000000030404030400030004E5
:1024D60000040004040404000300000000040004D7
:1024E60005040004000003000004000000040000CE
:1024F60004040304050004000004030400000404AB
:1025060000000004040404000400000004030004A6
:1025160000000003000003000300030003000004A2
:10252600000000040000030004000003030005048B
:00000001FF
