:100000000C94BE000C94DB000C94DB000C94DB0021
:100010000C94DB000C9413010C94DB000C94DB00BB
:100020000C94DB000C94DB000C94DB000C94DB00E4
:100030000C94DB000C94DB000C94DB000C94DB00D4
:100040000C94B4090C94DB000C94DB000C94DB00E2
:100050000C9441080C9401080C94DB000C94DB0018
:100060000C94DB000C94DB000C94DB000C94DB00A4
:100070000C94DB000C94DB000C94DB004469616D94
:100080006F6E64733A202564004469616D6F6E641D
:10009000733A202564004368656174206F666600CA
:1000A0004368656174206F6E0050726573732061E0
:1000B00020627574746F6E20746F20737461727433
:1000C00020616761696E0047414D45204F5645529A
:1000D000004469616D6F6E64733A20300043686557
:1000E0006174206F66660053747564656E74206E6B
:1000F000756D3A2034363832323339340043535335
:1001000045323031302F373230312070726F6A65AE
:100110006374206279203C4A696179692057414EB5
:10012000473E004469616D6F6E64204D696E657273
:1001300073001B5B421B5B44001B44001B4D001BF8
:100140005B25643B256472001B5B72001B5B3F32C6
:100150003568001B5B3F32356C001B5B25646D000E
:100160001B5B4B001B5B324A001B5B376D001B5B4C
:10017000306D001B5B25643B2564480011241FBEC5
:10018000CFEFD8E0DEBFCDBF12E0A0E0B1E0EAEBF8
:10019000FAE102C005900D92A832B107D9F724E028
:1001A000A8E2B2E001C01D92AC35B207E1F70E94AF
:1001B000F6090C945B0D0C940000E8E6F0E08081F9
:1001C00082608083D99AECE6F0E080818F60808342
:1001D00010922802089580912802181614F5809133
:1001E00029026FB7F89491E0292F30E0409128025E
:1001F000042E000C550B2417350754F4F901E75D64
:10020000FD4F4081F901E85DFD4F40839F5FECCFDA
:100210009091280291509093280267FF03C0789430
:1002200008958FEF08951F920F920FB60F92112429
:100230002F933F934F935F936F937F938F939F93EE
:10024000EF93FF9343B14F7080E090E0642F70E034
:1002500020912802243004F59B01082E02C0359518
:1002600027950A94E2F720FF17C020912D0230E075
:10027000082E02C0359527950A94E2F720FD0CC0A0
:10028000E091280221E02E0F209328020E2E000C70
:10029000FF0BE75DFD4F8083019684309105C1F629
:1002A00040932D02FF91EF919F918F917F916F91DC
:1002B0005F914F913F912F910F900FBE0F901F9024
:1002C00018950E94A3050895CF92DF92EF92FF92B6
:1002D0001F93CF93DF93CDB7DEB728970FB6F8946F
:1002E000DEBF0FBECDBF0E94A30580E1C82E81E016
:1002F000D82E10E0CE0101967C01F60181916F01AC
:1003000080FD02C090EF01C09FE0FE01389687FF9C
:1003100002C0908301C01082880F3197EE16FF064D
:10032000B1F71982B701812F0E9463051F5F103159
:1003300021F728960FB6F894DEBF0FBECDBFDF9130
:10034000CF911F91FF90EF90DF90CF900895803173
:1003500018F5683008F5413081F0423081F09DEFAA
:10036000940F923070F0453071F0463071F04730A4
:1003700071F0483071F040E00DC04FE00BC041E03B
:1003800009C04FED07C040EF05C045E303C04CE393
:1003900001C041E10E941F050895EF92FF921F9353
:1003A000CF93DF9310923E0310923A0281E0809344
:1003B000410310923F0380933D0310912F02A8E266
:1003C000B1E068EA71E020E030E0C90183549D4F5C
:1003D0007C01F901E55CFD4F40E050E0CA01805925
:1003E0009F4F112319F08A0F9B1F02C0860F971F82
:1003F000EC0188818083E70119927E014051510907
:1004000031964038DFEF5D0749F711966F5F7F4FF8
:10041000285F3F4F20383105C1F6DF91CF911F9102
:10042000FF90EF900895803118F481E0683008F073
:1004300080E00895803160F4683050F498E0899F3E
:10044000F0011124E55CFD4FE60FF11D8081089558
:1004500084E00895CF93DF93C0914103C031C8F485
:10046000D0913F03D830A8F480913D03882331F028
:100470006D2F8C2F0E941A02482F01C042E06D2F71
:100480008C2F0E94A70190913D0381E0891B8093EE
:100490003D03DF91CF9108950E94E40890913402CA
:1004A00081E06AE070E0892780933402882339F084
:1004B0008AE090E00E94C10880EA90E006C08AE0ED
:1004C00090E00E94C10886E990E09F938F930E947C
:1004D000B70A0F900F906CE070E08AE090E00E9405
:1004E000C108809133021F928F9389E890E09F9317
:1004F0008F930E94B70A0F900F900F900F9008955E
:10050000CF93DF93C82FD62F0E941A02853011F5A2
:10051000809133028F5F8093330288E0C89FF0019F
:100520001124E55CFD4FED0FF11D10826CE070E0D1
:100530008AE090E00E94C108809133021F928F935D
:100540008CE790E09F938F930E94B70A0F900F90D3
:100550000F900F90DF91CF910895A0E0B0E0E3EB12
:10056000F2E00C94260A88E18093BC02C0903E031E
:10057000A0903A02E12CF12CD12CB12C8E2C8601CA
:100580000E191F0917FF03C0119501951109902E2F
:10059000C0E0D0E06C2F882D0E941A028530A1F4B3
:1005A000C5018C1B9D0B97FF03C091958195910907
:1005B0002091BC0230E0A801480F591F4217530791
:1005C0001CF4890D8093BC022196C830D10511F727
:1005D0008FEFE81AF80A80E1E816F10479F68091C5
:1005E000BC02CDB7DEB7ECE00C94420A8091320237
:1005F000882311F0479A01C018B881E09091320227
:10060000911180E0809332020895809100019091D1
:100610000101019671F480ED97E0909301018093C0
:10062000000180913E038093400380913A028093C1
:10063000BB020895609100017091010180E090E09B
:100640000895EF92FF920F931F93CF93DF938FEF55
:100650009FEF909301018093000140E06091BB0205
:10066000809140030E94A70100E211E088E2E82E99
:1006700081E0F82EF801C08180914003C80FD1813C
:100680008091BB02D80F6D2F8C2F0E941A028B7F96
:10069000833071F488E0C89FF0011124E55CFD4FC0
:1006A000ED0FF11D108240E06D2F8C2F0E94A701ED
:1006B0006D2F8C2F0E941A02813021F48093310219
:1006C00010922E020E5F1F4FE016F10699F6609110
:1006D000BB02809140030E941A02813021F4809372
:1006E000310210922E02CDB7DEB7E6E00C94480A34
:1006F00080910001909101010197909301018093F5
:100700000001892B11F40E94210308959091300279
:1007100081E0892780933002089580913002089506
:100720008091310208951092310210923402109299
:10073000330210922E0208958091B702813099F40D
:1007400020912F0290913302222329F0963059F400
:1007500010922F0204C0933031F480932F028093C3
:10076000310280932E0208950F931F93CF93DF934E
:10077000C82FD62F00913A0210913E03602F6D0FC3
:10078000812F8C0F0E941A029DEF980F212F30E0CD
:10079000923008F44DC0873009F44AC0F90183E073
:1007A000EE0FFF1F8A95E1F7E55CFD4FE00FF11DAD
:1007B000108240E0602F812F0E94A70180913E03AC
:1007C0008C0F80933E0360913A026D0F60933A0262
:1007D0000E94800280913E0360913A0228E0829F4D
:1007E000F0011124E55CFD4FE60FF11D91E09083CF
:1007F00041E00E94A7010E94AD02853008F018B8C0
:1008000080910001909101010196C9F0809140030F
:1008100090913E03981306C020913A029091BB023A
:10082000291769F048E06091BB020E94A70107C048
:100830002C0F311D2031310511F40E949C030091D1
:100840003F0310914103602F812F0E941A02482F0D
:10085000602F812F0E94A70180913E03C80FC09393
:10086000410380913A02D80FD0933F030E942A029D
:10087000DF91CF911F910F91089580912E020895DD
:100880000F931F93CF93DF93182F062F88E0189FA5
:10089000F0011124E354FD4FE60FF11D81E0808348
:1008A000812F0E941A02C82F482F602F812F0E948B
:1008B000A701C11103C0C0E2D1E00CC0C530E9F40A
:1008C000FACF6981600F683050F0229681E0C8321B
:1008D000D80799F08881810F8031B8F7F2CF98E07E
:1008E000899FF0011124E354FD4FE60FF11D908123
:1008F0009111EBCF0E944004E8CFDF91CF911F917F
:100900000F910895CF93DF930E946101D0E0C0E082
:1009100046E06C2F8D2F0E94A701CF5FC830C1F732
:10092000DF5FD031A1F760913A0280913E030E94CF
:10093000400441E060913A0280913E030E94A70189
:1009400042E060913F03809141030E94A701DF9143
:10095000CF9108950E94CD010E9482040895CF9303
:10096000DF93809134028823F1F0D0913F03C0914E
:1009700041036D2F8C2F0E941A028730A1F488E06A
:10098000C89FF0011124E55CFD4FED0FF11D1082B1
:1009900040E06D2F8C2F0E94A70160913F03809152
:1009A00041030E944004DF91CF910895CF93DF93DC
:1009B000D0913F03C09141036D2F8C2F0E941A02EA
:1009C000833079F488E0C89FF0011124E55CFD4F85
:1009D000ED0FF11D87E0808347E06D2F8C2F0E9483
:1009E000A7010E94AF04DF91CF91089580E80E9493
:1009F00094080895A1E0B0E0E0E0F5E00C942A0A44
:100A0000182F80E099830E94BB08C12E9981D92EAE
:100A100008E0760110E1F70180810E94BB081150C7
:100A2000F8E0EF0EF11C1111F6CF01508FEFC81A4C
:100A3000D80A0111EECF2196E8E00C94460AA2E014
:100A4000B0E0E5E2F5E00C942F0A182F803198F41D
:100A5000683088F481E04A8369830E94BB08698119
:100A600020E1629FC0011124812B0E94BB084A81B2
:100A7000842F0E94BB082296E3E00C944B0AA2E06C
:100A8000B0E0E5E4F5E00C942C0A182F8830B8F4B7
:100A900082E069837A830E94BB08812F0E94BB0891
:100AA0006981E62E7A81F72E8701005F1F4FF701DB
:100AB00081917F010E94BB08E016F106C1F72296E2
:100AC000E6E00C94480AA2E0B0E0E9E6F5E00C9418
:100AD0002C0A182F8031B8F483E069837A830E944E
:100AE000BB08812F0E94BB086981E62E7A81F72E10
:100AF0008701085F1F4FF70181917F010E94BB08AA
:100B0000E016F106C1F72296E6E00C94480A84E06C
:100B10000E94BB0882E00E94BB08089584E00E9406
:100B2000BB0881E00E94BB08089584E00E94BB08D6
:100B300088E00E94BB08089584E00E94BB0884E01E
:100B40000E94BB0808958FE00E94BB080895FB0136
:100B50009C01285F3F4FDC014D91CD014193A217CD
:100B6000B307C9F70895FB019C01205F3F4FDC01EB
:100B70004D91CD014193A217B307C9F708959C0188
:100B8000285F3F4FFC016193CF01E217F307D1F7D4
:100B900008959C01205F3F4FFC016193CF01E21754
:100BA000F307D1F708950E94F6040E94DD0040E0AB
:100BB00060E07BE480E090E00E94B8070E948E092C
:100BC0003F9A789408950E94E4086AE070E08AE011
:100BD00090E00E94C10883E291E09F938F930E946E
:100BE000B70A6CE070E08AE090E00E94C1088DEFE7
:100BF00090E09F938F930E94B70A6EE070E08AE0C6
:100C000090E00E94C10887EE90E09F938F930E942E
:100C1000B70A0E9464010F900F900F900F900F90F1
:100C20000F900E94F507811105C00E94EB008F3FD5
:100C3000C1F3089580915604909157040E94790A57
:100C40008F7D833591F708950E94E4080E94AA04DD
:100C50000E94EB000E94FC0708954F925F926F92F2
:100C60007F928F929F92AF92BF92CF92DF92EF923C
:100C7000FF92CF93DF930E94A6092B013C016AE00B
:100C800070E08AE090E00E94C1088DED90E09F93B3
:100C90008F930E94B70A6CE070E08AE090E00E94B7
:100CA000C10881ED90E09F938F930E94B70A0F9047
:100CB0000F900F900F90530142010E9490038111F9
:100CC000BEC00E948D03882329F00E94F507882367
:100CD000A1F3A8C00E9490038111F7CF0E94EB00FE
:100CE000D82F0E94F507882371F0809156049091C7
:100CF00057040E94790AC82FDD2341F0843631F071
:100D0000843421F006C0D1110AC0CFEF60E081E049
:100D10001CC0D13039F08F7D813421F006C0D13034
:100D200051F4CFEF60E08FEF10C0D23011F0873573
:100D300031F461E009C0CFEFD230D9F38FEDD33079
:100D400011F0833521F46FEF80E00E94B4038C2F03
:100D50008F7D853419F40E94D6040EC0833419F4B3
:100D60000E944C0209C0C03219F40E94050304C05D
:100D7000803511F40E9486030E94A6096B017C0154
:100D8000D301C2018C509E4FAF4FBF4FC816D9063A
:100D9000EA06FB0620F00E942A02260137010E9483
:100DA000AD02843081F4D501C40184529A4FAF4F13
:100DB000BF4FC816D906EA06FB0628F00E94F602C5
:100DC000460157017ECF0E94AD02833059F4D50110
:100DD000C40188519C4FAF4FBF4FC816D906EA06D1
:100DE000FB0660F70E94AD02823059F4D501C401C0
:100DF0008C509E4FAF4FBF4FC816D906EA06FB0670
:100E0000E8F60E94AD02813009F05BCFD501C40144
:100E100086509F4FAF4FBF4FC816D906EA06FB0654
:100E200068F64FCF80915604909157040E94790A3A
:100E30008F7D803509F041CF0E9486033ECFDF9140
:100E4000CF91FF90EF90DF90CF90BF90AF909F90A9
:100E50008F907F906F905F904F9008950E943D0417
:100E6000882319F00E94930308956EE070E08AE0F1
:100E700090E00E94C10887EC90E09F938F930E94BE
:100E8000B70A6FE070E08AE090E00E94C10889EA4A
:100E900090E09F938F930E94B70A0F900F900F904E
:100EA0000F900E94EB008F3FE1F3DCCFCF93C82F70
:100EB0008A3019F48DE00E9456078FB780789091A0
:100EC00043039F3F29F48111FACF81E090E020C0D5
:100ED000F894E091420391E09E0F90934203F0E07A
:100EE000EC5BFC4FC083909143039F5F909343035F
:100EF000909142039F3F11F4109242039091C100E0
:100F000090629093C100882309F0789480E090E08B
:100F1000CF910895809155048823E1F32FB720786D
:100F2000F894809143043091550490E0831B91091B
:100F3000E091430497FF08C080915504F0E0E81B5E
:100F4000F109EC5AFB4F07C080915504F0E0E81B13
:100F5000F109EC5BFB4F8081909155049150909387
:100F60005504222309F07894082E000C990B08955B
:100F700010924203109243031092430410925504BE
:100F800010925404409335029B01AC0183E0220F80
:100F9000331F441F551F8A95D1F760E072E18AE73D
:100FA00090E00E94010ACA01B9016F5F7F4F8F4F25
:100FB0009F4F22E030E040E050E00E94010A2150C3
:100FC00031093093C5002093C400E1ECF0E088E1E2
:100FD0008083808180688083E6E5F4E082E091E0B0
:100FE000938382839183808308959091550481E057
:100FF000911101C080E008951092430410925504AD
:1010000008951F920F920FB60F9211242F938F9372
:101010009F93EF93FF9380914303882319F180916D
:1010200042032091430390E0821B9109E091420327
:1010300097FF08C080914303F0E0E81BF109ED5BE6
:10104000FB4F07C080914303F0E0E81BF109EC5B24
:10105000FC4F908180914303815080934303909390
:10106000C60005C08091C1008F7D8093C100FF91B3
:10107000EF919F918F912F910F900FBE0F901F9026
:1010800018951F920F920FB60F9211242F933F9332
:101090004F935F936F937F938F939F93AF93BF9380
:1010A000CF93EF93FF93C091C600809135028823C0
:1010B00049F0809143038F3F29F060E070E08C2F6E
:1010C0000E94560780915504803120F081E0809382
:1010D000540418C0CD3009F4CAE0E091430481E023
:1010E0008E0F80934304F0E0EC5BFB4FC083809154
:1010F00055048F5F8093550480914304803111F42F
:1011000010924304FF91EF91CF91BF91AF919F91C6
:101110008F917F916F915F914F913F912F910F90A0
:101120000FBE0F901F90189594B1906B94B92C9AA4
:1011300090E59CBD883021F0803211F0823019F4A6
:1011400091E09DBD01C01DBC803269F028F488305B
:1011500069F0803159F00DC0803429F0803849F4AD
:101160008CB581608CBD8CB5826002C08CB581600D
:101170008CBD2C9808958EBD0DB407FEFDCF8EB5A5
:1011800008959F938F937F936F9383E791E09F934D
:101190008F930E94B70A0F900F900F900F900F90AF
:1011A0000F9008958EE691E09F938F930E94B70A67
:1011B0000F900F90089589E691E09F938F930E947E
:1011C000B70A0F900F90089584E691E09F938F9354
:1011D0000E94B70A0F900F90089580E691E09F93C8
:1011E0008F930E94B70A0F900F9008959F938F934B
:1011F0008AE591E09F938F930E94B70A0F900F901A
:101200000F900F90089583E591E09F938F930E9434
:10121000B70A0F900F9008958CE491E09F938F93FD
:101220000E94B70A0F900F90089588E491E09F9371
:101230008F930E94B70A0F900F900895262F062EC5
:10124000000C330B3F936F93282F082E000C330BA9
:101250003F938F938FE391E09F938F930E94B70A00
:101260000F900F900F900F900F900F9008958CE3B8
:1012700091E09F938F930E94B70A0F900F9008956B
:1012800089E391E09F938F930E94B70A0F900F908C
:101290000895CF93DF93C62FD42F682F880F770B35
:1012A0008C2F0C2E000C990B0E94C1080E94DB08A9
:1012B000DC1734F080E290E00E94DD0ACF5FF8CFC7
:1012C0000E94D208DF91CF9108950F931F93CF937F
:1012D000DF93C62FD42F062E000C770B082E000CA0
:1012E000990B0E94C1080E94DB0802E311E080E232
:1012F00090E0CD1754F40E94DD0A1F930F930E94D3
:10130000B70ACF5F0F900F90F2CF0E94DD0A0E94C4
:10131000D208DF91CF911F910F910895109236025C
:1013200010923702109238021092390216BC8CE7E4
:1013300087BD82E084BD83E085BDEEE6F0E080817C
:101340008260808385B3827085BB08952FB7F8943F
:101350006091360270913702809138029091390283
:1013600027FF01C0789408951F920F920FB60F9235
:1013700011242F933F934F935F936F937F938F939A
:101380009F93AF93BF93EF93FF9380913602909119
:101390003702A0913802B09139020196A11DB11D0A
:1013A0008093360290933702A0933802B0933902AB
:1013B0000E941A03613D77408105910530F40E9437
:1013C0008D03811102C00E947803FF91EF91BF91BC
:1013D000AF919F918F917F916F915F914F913F91CD
:1013E0002F910F900FBE0F901F9018950E94D3055C
:1013F0000E94E3050E9424060E942D060E942E07EB
:10140000F9CF052E97FB1EF400940E94180A57FD91
:1014100007D00E94570A07FC03D04EF40C94180A18
:1014200050954095309521953F4F4F4F5F4F089510
:1014300090958095709561957F4F8F4F9F4F089540
:101440002F923F924F925F926F927F928F929F92D4
:10145000AF92BF92CF92DF92EF92FF920F931F93C2
:10146000CF93DF93CDB7DEB7CA1BDB0B0FB6F89473
:10147000DEBF0FBECDBF09942A88398848885F84B3
:101480006E847D848C849B84AA84B984C884DF8024
:10149000EE80FD800C811B81AA81B981CE0FD11D08
:1014A0000FB6F894DEBF0FBECDBFED010895A1E2E7
:1014B0001A2EAA1BBB1BFD010DC0AA1FBB1FEE1FCE
:1014C000FF1FA217B307E407F50720F0A21BB30B19
:1014D000E40BF50B661F771F881F991F1A9469F795
:1014E00060957095809590959B01AC01BD01CF01F1
:1014F0000895CF93DF93EC012B8120FF33C026FFAB
:101500000AC02F7B2B838E819F8101969F838E83C0
:101510008A8190E029C022FF0FC0E881F981808193
:10152000082E000C990B009719F420622B831AC027
:101530003196F983E8830EC0EA85FB85099597FF0C
:1015400009C02B81019611F080E201C080E1822B5D
:101550008B8308C02E813F812F5F3F4F3F832E83B7
:10156000992702C08FEF9FEFDF91CF910895A0E000
:10157000B0E0EDEBFAE00C942E0AAE01495F5F4F4C
:10158000DA016D917D91AD0106E514E0F8018281EB
:101590009381DC0113962C911397286013962C935A
:1015A0000E94E40AD8011296ED91FC9113972381D1
:1015B000277F2383E4E00C944A0A609158047091D9
:1015C00059040E94CD0C0895ACE0B0E0EAEEFAE0D8
:1015D0000C94200A6C017B018A01FC01178216829F
:1015E000838181FFBEC1CE0101964C01F60193813A
:1015F000F70193FD859193FF81917F01882309F481
:10160000ACC1853239F493FD859193FF81917F01BF
:10161000853229F4B60190E00E94CD0CE7CF512C21
:10162000312C20E02032A0F48B3269F030F480328B
:1016300059F0833269F420612CC08D3239F0803347
:1016400039F4216026C02260246023C0286021C0B4
:1016500027FD27C030ED380F3A3078F426FF06C05A
:10166000FAE05F9E300D1124532E13C08AE0389E9D
:10167000300D1124332E20620CC08E3221F426FD51
:101680006CC1206406C08C3611F4206802C0883614
:1016900041F4F70193FD859193FF81917F018111C1
:1016A000C1CF982F9F7D9554933028F40C5F1F4F26
:1016B0009FE399830DC0833631F0833771F0833512
:1016C00009F05BC022C0F801808189830E5F1F4F43
:1016D00044244394512C540115C03801F2E06F0E9C
:1016E000711CF801A080B18026FF03C0652D70E059
:1016F00002C06FEF7FEFC5012C870E94C20C2C0146
:1017000083012C852F77222E17C03801F2E06F0E4F
:10171000711CF801A080B18026FF03C0652D70E028
:1017200002C06FEF7FEFC5012C870E94B70C2C0120
:101730002C852068222E830123FC1BC0832D90E082
:1017400048165906B0F4B60180E290E00E94CD0C34
:101750003A94F4CFF50127FC859127FE81915F0132
:10176000B60190E00E94CD0C31103A94F1E04F1A8E
:1017700051084114510471F7E6C0843611F08936DE
:1017800039F5F80127FF07C060817181828193815B
:101790000C5F1F4F08C060817181072E000C880B01
:1017A000990B0E5F1F4F2F76722E97FF09C09095F1
:1017B0008095709561957F4F8F4F9F4F2068722E57
:1017C0002AE030E0A4010E94FD0CA82EA81844C015
:1017D000853729F42F7EB22E2AE030E025C0F22F83
:1017E000F97FBF2E8F36C1F018F4883579F0B5C077
:1017F000803719F0883721F0B0C02F2F2061B22E2A
:10180000B4FE0DC08B2D8460B82E09C024FF0AC021
:101810009F2F9660B92E06C028E030E005C020E179
:1018200030E002C020E132E0F801B7FE07C060817D
:101830007181828193810C5F1F4F06C0608171812D
:1018400080E090E00E5F1F4FA4010E94FD0CA82EC7
:10185000A818FB2DFF777F2E76FE0BC0372D3E7F1D
:10186000A51450F474FE0AC072FC08C0372D3E7EE9
:1018700005C0BA2C372D03C0BA2C01C0B52C34FFDB
:101880000DC0FE01EA0DF11D8081803311F4397E17
:1018900009C032FF06C0B394B39404C0832F867886
:1018A00009F0B39433FD13C030FF06C0B31498F4AD
:1018B0003A0C532C5B1810C0B31470F4B60180E2DC
:1018C00090E03C870E94CD0CB3943C85F5CFB314D7
:1018D00018F43B1802C05A2C312C34FF12C0B60148
:1018E00080E390E03C870E94CD0C3C8532FF17C01E
:1018F00031FD03C088E790E002C088E590E0B601C2
:101900000CC0832F867859F031FF02C08BE201C0F2
:1019100080E237FD8DE2B60190E00E94CD0CA51467
:1019200038F4B60180E390E00E94CD0C5A94F7CFD2
:10193000AA94F401EA0DF11D8081B60190E00E94A5
:10194000CD0CA110F5CF332009F450CEB60180E2C2
:1019500090E00E94CD0C3A94F6CFF60186819781F3
:1019600002C08FEF9FEF2C96E2E10C943C0AFC0141
:101970000590615070400110D8F7809590958E0FBA
:101980009F1F0895FC016150704001900110D8F72D
:10199000809590958E0F9F1F08950F931F93CF935F
:1019A000DF93182F092FEB018B8181FD03C08FEF8F
:1019B0009FEF1EC082FF0FC02E813F818C819D81D1
:1019C0002817390774F4E881F981CF0101969983CA
:1019D0008883108306C0E885F985812F0995892BB6
:1019E00031F78E819F8101969F838E83812F902F67
:1019F000DF91CF911F910F910895FA01AA27283006
:101A000051F1203181F1E8946F936E7F6E5F7F4FCB
:101A10008F4F9F4FAF4FB1E03ED0B4E03CD0670F47
:101A2000781F891F9A1FA11D680F791F8A1F911D9A
:101A3000A11D6A0F711D811D911DA11D20D009F4EA
:101A400068943F912AE0269F11243019305D31932C
:101A5000DEF6CF010895462F4770405D4193B3E015
:101A60000FD0C9F7F6CF462F4F70405D4A3318F0BC
:101A7000495D31FD4052419302D0A9F7EACFB4E06D
:101A8000A6959795879577956795BA95C9F7009725
:101A90006105710508959B01AC010A2E06945795C6
:101AA000479537952795BA95C9F7620F731F841F1D
:0A1AB000951FA01D0895F894FFCFC4
:101ABA00FFFF000000030000000056078A0700002D
:101ACA007D4545390010387C3810007D2111217D73
:101ADA00000100FF0100FF000404000500040000EB
:101AEA0004000404000304040304000404040404BA
:101AFA0003000004000004040000000003000000CA
:101B0A0000000000040404040404000400040304A4
:101B1A000404040405000305030303040404050480
:101B2A00050400000003030400000004000403008D
:101B3A000003000300040004000000030004040082
:101B4A00040304000400000400000003000004046D
:101B5A000003050400040404000300030000000459
:101B6A000400000400040004000400040000000350
:101B7A000404030400030004000400040404040031
:101B8A000300000000040004050400040000030030
:101B9A00000400000004000004040304050004001B
:101BAA000004030400000404000000040404040008
:101BBA000400000004030004000000030000030006
:101BCA0003000300030000040000000400000300F7
:081BDA000400000303000504F0
:00000001FF
