:100000000C94BE000C94DB000C94DB000C94DB0021
:100010000C94DB000C9413010C94DB000C94DB00BB
:100020000C94DB000C94DB000C94DB000C94DB00E4
:100030000C94DB000C94DB000C94DB000C94DB00D4
:100040000C94CB0B0C94DB000C94DB000C94DB00C9
:100050000C94580A0C94180A0C94DB000C94DB00E6
:100060000C94DB000C94DB000C94DB000C94DB00A4
:100070000C94DB000C94DB000C94DB004469616D94
:100080006F6E64733A202564004469616D6F6E641D
:10009000733A202564004368656174206F666600CA
:1000A0004368656174206F6E0050726573732061E0
:1000B00020627574746F6E20746F20737461727433
:1000C00020616761696E0047414D45204F5645529A
:1000D000004469616D6F6E64733A20300043686557
:1000E0006174206F66660053747564656E74206E6B
:1000F000756D3A2034363832323339340043535335
:1001000045323031302F373230312070726F6A65AE
:100110006374206279203C4A696179692057414EB5
:10012000473E004469616D6F6E64204D696E657273
:1001300073001B5B421B5B44001B44001B4D001BF8
:100140005B25643B256472001B5B72001B5B3F32C6
:100150003568001B5B3F32356C001B5B25646D000E
:100160001B5B4B001B5B324A001B5B376D001B5B4C
:10017000306D001B5B25643B2564480011241FBEC5
:10018000CFEFD8E0DEBFCDBF13E0A0E0B1E0E4E404
:10019000F2E202C005900D92A63AB107D9F725E028
:1001A000A6EAB3E001C01D92A03EB207E1F70E94AB
:1001B0000B0C0C9420110C940000E8E6F0E0808118
:1001C00082608083D99AECE6F0E080818F60808342
:1001D0001092A60308958091A603181614F5809135
:1001E000A7036FB7F89491E0292F30E04091A60360
:1001F000042E000C550B2417350754F4F901E9556A
:10020000FC4F4081F901EA55FC4F40839F5FECCFE2
:100210009091A60391509093A60367FF03C0789432
:1002200008958FEF08951F920F920FB60F92112429
:100230002F933F934F935F936F937F938F939F93EE
:10024000EF93FF9343B14F7080E090E0642F70E034
:100250002091A603243004F59B01082E02C0359599
:1002600027950A94E2F720FF17C02091AB0330E0F6
:10027000082E02C0359527950A94E2F720FD0CC0A0
:10028000E091A60321E02E0F2093A6030E2E000C72
:10029000FF0BE955FC4F8083019684309105C1F630
:1002A0004093AB03FF91EF919F918F917F916F915D
:1002B0005F914F913F912F910F900FBE0F901F9024
:1002C00018950E9405070895CF92DF92EF92FF9252
:1002D0001F93CF93DF93CDB7DEB728970FB6F8946F
:1002E000DEBF0FBECDBF0E94050786E1C82E81E0AC
:1002F000D82E10E0CE0101967C01F60181916F01AC
:1003000080FD02C090EF01C09FE0FE01389687FF9C
:1003100002C0908301C01082880F3197EE16FF064D
:10032000B1F71982B701812F0E94C5061F5F1031F6
:1003300021F728960FB6F894DEBF0FBECDBFDF9130
:10034000CF911F91FF90EF90DF90CF900895803173
:1003500038F5683028F5413091F0423091F09DEF4A
:10036000940F923080F0453081F0463081F0473074
:1003700081F0483081F0493081F040E00FC04FE01B
:100380000DC041E00BC04FED09C040EF07C045E391
:1003900005C04CE303C041E101C043E10E94810676
:1003A0000895EF92FF921F93CF93DF931092BF04B3
:1003B0001092BC0381E08093C1041092C00480932A
:1003C000BE041091AE03A6E5B1E066ED71E020E059
:1003D00030E0C901825C9B4F7C01F901E354FC4F82
:1003E00040E050E0CA0180599F4F112319F08A0F55
:1003F0009B1F02C0860F971FEC0188818083E70155
:1004000019927E014051510931964038DFEF5D0766
:1004100049F711966F5F7F4F285F3F4F20383105B6
:10042000C1F6DF91CF911F91FF90EF900895803139
:1004300018F481E0683008F080E00895803160F4BD
:10044000683050F498E0899FF0011124E354FC4F88
:10045000E60FF11D8081089584E00895CF93DF9326
:10046000C091C104C031D0F4D091C004D830B0F4F0
:100470008091BE04882331F06D2F8C2F0E941E02C4
:10048000482F01C042E06D2F8C2F0E94A70181E010
:100490009091BE04911180E08093BE04DF91CF91D2
:1004A00008950E94FB0A9091B40381E06AE070E035
:1004B00089278093B403882339F08AE090E00E9472
:1004C000D80A80EA90E006C08AE090E00E94D80A4C
:1004D00086E990E09F938F930E947C0E0F900F907F
:1004E0006CE070E08AE090E00E94D80A8091B3034B
:1004F0001F928F9389E890E09F938F930E947C0EC8
:100500000F900F900F900F900895CF93DF93C82F07
:10051000D62F0E941E02853011F58091B3038F5FA4
:100520008093B30388E0C89FF0011124E354FC4F8B
:10053000ED0FF11D10826CE070E08AE090E00E9407
:10054000D80A8091B3031F928F938CE790E09F931A
:100550008F930E947C0E0F900F900F900F90DF9161
:10056000CF910895A0E0B0E0E8EBF2E00C94710CBC
:1005700088E180933D04C090BF04A090BC03E12CAF
:10058000F12CD12CB12C8E2C86010E191F0917FFCE
:1005900003C0119501951109902EC0E0D0E06C2F99
:1005A000882D0E941E028530A1F4C5018C1B9D0B75
:1005B00097FF03C091958195910920913D0430E00A
:1005C000A801480F591F421753071CF4890D809347
:1005D0003D042196C830D10511F78FEFE81AF80ACB
:1005E00080E1E816F10479F680913D04CDB7DEB7DD
:1005F000ECE00C948D0C8091B203882311F0479AA3
:1006000001C0479881E09091B203911180E08093FE
:10061000B20308958091060190910701019671F44B
:1006200080ED97E090930701809306018091BF04CD
:10063000809301018091BC03809300010895909103
:10064000BF0480910101981306C09091BC03809172
:1006500000019817D9F02091B10380910401909185
:10066000050164E170E00E94160C222329F081E06C
:100670000E94AE0740E004C080E00E94AE0748E060
:1006800060910001809101010E94A7019091B10346
:1006900081E089278093B1030895809106019091AC
:1006A00007010895CF93DF93CEE4D1E06981809173
:1006B0000001680F98818091010149E0890F0E9433
:1006C000A701229681E0C635D80781F7DF91CF9147
:1006D00008959091AF0381E089278093AF03089537
:1006E0008091AF0308958091B00308951092B003F4
:1006F0001092B4031092B3031092AD038FEF809366
:10070000000180930101089580913904813099F4AA
:100710002091AE039091B303222329F0963059F42F
:100720001092AE0304C0933031F48093AE038093F3
:10073000B0038093AD0308958091AD030895909127
:10074000AC0381E089278093AC030895CF93DF93B6
:10075000D0E0C0E046E06C2F8D2F0E94A701CF5F54
:10076000C830C1F7DF5FD031A1F7DF91CF91089595
:10077000EF92FF921F93CF93DF938EE3E82E84E0F6
:10078000F82E10E0C0E0D0E0F701EC0FFD1F8081F3
:10079000882349F06C2F812F0E941E02482F6C2F56
:1007A000812F0E94A7012196C830D10569F788E002
:1007B000E80EF11C1F5F103129F7DF91CF911F91D7
:1007C000FF90EF900895A0E0B0E0E9EEF3E00C9424
:1007D000760CD82E06E211E08EE4E82E81E0F82EA9
:1007E000F801C0818091BF04C80FC031E0F4D1810D
:1007F0008091BC03D80FD830B0F4DD2079F06D2F94
:100800008C2F0E941E02482F6D2F8C2F0E94A70153
:1008100041E06091BC038091BF0403C046E06D2FAE
:100820008C2F0E94A7010E5F1F4FE016F106C1F644
:10083000CDB7DEB7E7E00C94920C0F931F93CF93E4
:10084000DF93C82FD62F0091BC031091BF04602FF7
:100850006D0F812F8C0F0E941E029DEF980F212F8C
:1008600030E0923008F45BC0873009F458C0F901D9
:1008700083E0EE0FFF1F8A95E1F7E354FC4FE00F92
:10088000F11D108240E0602F812F0E94A70180910E
:10089000AC03882319F080E00E94E3038091BF0439
:1008A0008C0F8093BF046091BC036D0F6093BC03F9
:1008B0000E9485028091BF046091BC0328E0829F62
:1008C000F0011124E354FC4FE60FF11D91E09083F9
:1008D00041E00E94A7010E94B202853008F04798CB
:1008E0008091060190910701019689F080910101A4
:1008F0009091BF04981306C02091BC039091000111
:10090000291729F048E0609100010E94A701809119
:10091000AC03882359F081E00E94E30307C02C0F49
:10092000311D2031310511F40E9484030091C0046F
:100930001091C104602F812F0E941E02482F602F4A
:10094000812F0E94A7018091BF04C80FC093C104EA
:100950008091BC03D80FD093C0040E942E02DF9177
:10096000CF911F910F9108950F931F93CF93DF9312
:10097000182F062F88E0189FF0011124E25CFB4F2E
:10098000E60FF11D81E08083812F0E941E02C82F97
:10099000482F602F812F0E94A701C11103C0CEE410
:1009A000D1E00CC0C530E9F4FACF6981600F68303E
:1009B00050F0229681E0C635D80799F08881810FE2
:1009C0008031B8F7F2CF98E0899FF0011124E25C02
:1009D000FB4FE60FF11D90819111EBCF0E94B40403
:1009E000E8CFDF91CF911F910F910895CF93DF93BF
:1009F0000E946101D0E0C0E046E06C2F8D2F0E9484
:100A0000A701CF5FC830C1F7DF5FD031A1F7609198
:100A1000BC038091BF040E94B40441E06091BC0318
:100A20008091BF040E94A70142E06091C0048091C0
:100A3000C1040E94A701DF91CF9108950E94D101C6
:100A40000E94F6040895CF93DF938091B403882326
:100A5000F1F0D091C004C091C1046D2F8C2F0E9481
:100A60001E028730A1F488E0C89FF0011124E354EE
:100A7000FC4FED0FF11D108240E06D2F8C2F0E9476
:100A8000A7016091C0048091C1040E94B404DF9169
:100A9000CF910895CF93DF93D091C004C091C1044A
:100AA0006D2F8C2F0E941E02833079F488E0C89F3E
:100AB000F0011124E354FC4FED0FF11D87E080831A
:100AC00047E06D2F8C2F0E94A7010E942305DF9124
:100AD000CF910895A0E0B0E0E0E7F5E00C94730C4E
:100AE0008FEF9FEF909307018093060160E080E015
:100AF0000E94AE072EE4E22E21E0F22E36E5A32E70
:100B000031E0B32EF701C08180910101C80FD1817E
:100B100080910001D80F6D2F8C2F0E941E028B7FB9
:100B20000C2F10E0CD2ED12C8330A1F4F80193E0EE
:100B3000EE0FFF1F9A95E1F7E354FC4FEC0DFD1DFE
:100B4000108240E06D2F8C2F0E94A7016D2F8C2FFB
:100B50000E94B4046D2F8C2F0E941E02813021F45C
:100B60008093B0031092AD0383E0000F111F8A95AC
:100B7000E1F7025C1B4FF801EC0DFD1D808188231D
:100B800031F06D2F8C2F0E941E02482F01C046E0CD
:100B90006D2F8C2F0E94A701F2E0EF0EF11CAE1416
:100BA000BF0409F0AFCF809101019091BF04891378
:100BB0000CC0209100019091BC03291306C081E074
:100BC0008093B0031092AD0305C040E06091000136
:100BD0000E94A7018FEF8093000180930101469846
:100BE0008091AC03882329F00E94A60381E00E9433
:100BF000E303CDB7DEB7EAE00C948F0CCF93DF931D
:100C000020910601309107012150310930930701ED
:100C100020930601C9016AE070E00E94160C8091E1
:100C2000040190910501861B970B2817390750F492
:100C30000E941F0380910601909107019093050186
:100C4000809304014698CEE4D1E06981809100014F
:100C5000680F988180910101890F0E941E028130E6
:100C600009F4469A229621E0C635D20771F7909191
:100C700001018091BF04981307C0909100018091F9
:100C8000BC03981301C0469A809106019091070118
:100C90008D32914010F40E94520380910601909190
:100CA0000701892B11F40E946A05DF91CF91089505
:100CB00080E80E94AB0A0895A1E0B0E0E2E6F6E029
:100CC0000C94750C182F80E099830E94D20AC12ED3
:100CD0009981D92E08E0760110E1F70180810E9408
:100CE000D20A1150F8E0EF0EF11C1111F6CF0150AD
:100CF0008FEFC81AD80A0111EECF2196E8E00C94C4
:100D0000910CA2E0B0E0E7E8F6E00C947A0C182F22
:100D1000803198F4683088F481E04A8369830E94C6
:100D2000D20A698120E1629FC0011124812B0E94B7
:100D3000D20A4A81842F0E94D20A2296E3E00C94C0
:100D4000960CA2E0B0E0E7EAF6E00C94770C182FDE
:100D50008830B8F482E069837A830E94D20A812FB6
:100D60000E94D20A6981E62E7A81F72E8701005F00
:100D70001F4FF70181917F010E94D20AE016F10610
:100D8000C1F72296E6E00C94930CA2E0B0E0EBEC05
:100D9000F6E00C94770C182F8031B8F483E0698367
:100DA0007A830E94D20A812F0E94D20A6981E62E9C
:100DB0007A81F72E8701085F1F4FF70181917F012C
:100DC0000E94D20AE016F106C1F72296E6E00C94E2
:100DD000930C84E00E94D20A82E00E94D20A089515
:100DE00084E00E94D20A81E00E94D20A089584E041
:100DF0000E94D20A88E00E94D20A089584E00E94EC
:100E0000D20A84E00E94D20A08958FE00E94D20A9A
:100E10000895FB019C01285F3F4FDC014D91CD01FE
:100E20004193A217B307C9F70895FB019C01205F06
:100E30003F4FDC014D91CD014193A217B307C9F794
:100E400008959C01285F3F4FFC016193CF01E21799
:100E5000F307D1F708959C01205F3F4FFC01619398
:100E6000CF01E217F307D1F708959C0140E050E06D
:100E700060E472E48FE090E00E942A0CC9010895BA
:100E8000CF92DF92EF92FF926B017C01BA0180E07A
:100E900090E00E94430DA70196010E94D10D20E031
:100EA00030E048EC52E40E94A20C0E94140DCB01E9
:100EB000FF90EF90DF90CF90089580E18AB983E2B0
:100EC000809380008AE180938100E091B60386E000
:100ED000E89FF0011124EA5AFD4F8081918190939F
:100EE000C5048093C404828193819093C30480934A
:100EF000C2042481358140E050E060E472E48FE078
:100F000090E00E942A0C21503109309389002093EF
:100F1000880080E490E090938B0080938A0008958D
:100F20008091C2049091C30401979093C30480936D
:100F3000C204892B41F08091C4049091C504892B8F
:100F400061F41AB808958091B6038F5F883319F061
:100F50008093B60308951092B603089590E19AB96C
:100F600093E2909380009AE19093810070E068543E
:100F70007E4F709389006093880020E430E03093C6
:100F80008B0020938A00882319F08091B50381118A
:100F90001AB808959091B50381E089278093B5032D
:100FA00008950E9458060E94DD0040E060E07BE466
:100FB00080E090E00E94CF090E94A50B3F9A7894B0
:100FC00008950E94FB0A6AE070E08AE090E00E94C7
:100FD000D80A83E291E09F938F930E947C0E6CE08D
:100FE00070E08AE090E00E94D80A8DEF90E09F9335
:100FF0008F930E947C0E6EE070E08AE090E00E9489
:10100000D80A87EE90E09F938F930E947C0E0E94F7
:1010100064010F900F900F900F900F900F900E940F
:101020000C0A811105C00E94EB008F3FC1F30895A7
:101030008091DA059091DB050E943E0E8F7D83350D
:1010400091F708950E94FB0A0E941E050E94EB0082
:101050000E94130A08954F925F926F927F928F922F
:101060009F92AF92BF92CF92DF92EF92FF92CF9377
:10107000DF930E94BD0B2B013C016AE070E08AE027
:1010800090E00E94D80A8DED90E09F938F930E948C
:101090007C0E6CE070E08AE090E00E94D80A81ED5E
:1010A00090E09F938F930E947C0E0F900F900F9073
:1010B0000F90530142010E9473038111D7C00E9417
:1010C0007003882329F00E940C0A8823A1F3C1C071
:1010D0000E9473038111F7CF0E94EB00D82F0E946A
:1010E0000C0A882371F08091DA059091DB050E944B
:1010F0003E0EC82FDD2341F0843631F0843421F0D8
:1011000006C0D1110AC0CFEF60E081E01EC0D1302F
:1011100039F08F7D813421F006C0D13049F4CFEF12
:1011200060E08FEF12C0D23031F0873521F007C078
:10113000D23019F4CFEF61E007C08FEDCFEFD3309D
:1011400011F0833521F46FEF80E00E941D04DC2F45
:10115000DF7DD53419F40E944A0525C0D33419F433
:101160000E94510220C0C03219F40E940A0305C037
:10117000D03519F40E94690316C0D63481F40E9458
:101180009F03882331F00E94A60381E00E94E303BD
:101190000AC080E00E94E3030E94B80304C0DD346B
:1011A00011F40E94CA070E94BD0B6B017C01D301A0
:1011B000C2018C509E4FAF4FBF4FC816D906EA06EA
:1011C000FB0620F00E942E02260137010E94B20287
:1011D000843081F4D501C40184529A4FAF4FBF4F80
:1011E000C816D906EA06FB0628F00E94FB02460153
:1011F000570165CF0E94B202833059F4D501C40172
:1012000088519C4FAF4FBF4FC816D906EA06FB0660
:1012100060F70E94B202823059F4D501C4018C50AB
:101220009E4FAF4FBF4FC816D906EA06FB06E8F639
:101230000E94B202813009F042CFD501C40186502C
:101240009F4FAF4FBF4FC816D906EA06FB0668F698
:1012500036CF8091DA059091DB050E943E0E8F7D9E
:10126000803509F028CF0E94690325CFDF91CF9107
:10127000FF90EF90DF90CF90BF90AF909F908F90B6
:101280007F906F905F904F9008950E949C038823F9
:1012900019F00E94760308956EE070E08AE090E015
:1012A0000E94D80A87EC90E09F938F930E947C0E57
:1012B0006FE070E08AE090E00E94D80A89EA90E04E
:1012C0009F938F930E947C0E0F900F900F900F9022
:1012D0000E94EB008F3FE1F3DCCFCF93C82F8A3021
:1012E00019F48DE00E946D098FB780789091C70442
:1012F0009F3F29F48111FACF81E090E020C0F8945B
:10130000E091C60491E09E0F9093C604F0E0E8538C
:10131000FB4FC0839091C7049F5F9093C704909147
:10132000C6049F3F11F41092C6049091C1009062D0
:101330009093C100882309F0789480E090E0CF91E9
:1013400008958091D9058823E1F32FB72078F89488
:101350008091C7053091D90590E0831B9109E091F8
:10136000C70597FF08C08091D905F0E0E81BF10997
:10137000E852FA4F07C08091D905F0E0E81BF10967
:10138000E853FA4F80819091D90591509093D905F7
:10139000222309F07894082E000C990B08951092DE
:1013A000C6041092C7041092C7051092D905109276
:1013B000D8054093B7039B01AC0183E0220F331F94
:1013C000441F551F8A95D1F760E072E18AE790E0EB
:1013D0000E944C0CCA01B9016F5F7F4F8F4F9F4F26
:1013E00022E030E040E050E00E944C0C21503109F6
:1013F0003093C5002093C400E1ECF0E088E18083E5
:10140000808180688083EAEDF5E088E091E0938355
:1014100082839183808308959091D90581E0911111
:1014200001C080E008951092C7051092D905089573
:101430001F920F920FB60F9211242F938F939F93A9
:10144000EF93FF938091C704882319F18091C6041C
:101450002091C70490E0821B9109E091C60497FF98
:1014600008C08091C704F0E0E81BF109E953FA4F86
:1014700007C08091C704F0E0E81BF109E853FB4F77
:1014800090818091C70481508093C7049093C600D7
:1014900005C08091C1008F7D8093C100FF91EF91C5
:1014A0009F918F912F910F900FBE0F901F901895C5
:1014B0001F920F920FB60F9211242F933F934F93C9
:1014C0005F936F937F938F939F93AF93BF93CF93CC
:1014D000EF93FF93C091C6008091B703882349F032
:1014E0008091C7048F3F29F060E070E08C2F0E944C
:1014F0006D098091D905803120F081E08093D80575
:1015000018C0CD3009F4CAE0E091C70581E08E0F24
:101510008093C705F0E0E853FA4FC0838091D90566
:101520008F5F8093D9058091C705803111F41092A7
:10153000C705FF91EF91CF91BF91AF919F918F918F
:101540007F916F915F914F913F912F910F900FBEBF
:101550000F901F90189594B1906B94B92C9A90E5C8
:101560009CBD883021F0803211F0823019F491E076
:101570009DBD01C01DBC803269F028F4883069F03F
:10158000803159F00DC0803429F0803849F48CB591
:1015900081608CBD8CB5826002C08CB581608CBDD1
:1015A0002C9808958EBD0DB407FEFDCF8EB508951D
:1015B0009F938F937F936F9383E791E09F938F9394
:1015C0000E947C0E0F900F900F900F900F900F9035
:1015D00008958EE691E09F938F930E947C0E0F906A
:1015E0000F90089589E691E09F938F930E947C0E5F
:1015F0000F900F90089584E691E09F938F930E943F
:101600007C0E0F900F90089580E691E09F938F934A
:101610000E947C0E0F900F9008959F938F938AE500
:1016200091E09F938F930E947C0E0F900F900F90EC
:101630000F90089583E591E09F938F930E947C0E15
:101640000F900F9008958CE491E09F938F930E94E8
:101650007C0E0F900F90089588E491E09F938F93F4
:101660000E947C0E0F900F900895262F062E000CDE
:10167000330B3F936F93282F082E000C330B3F93AF
:101680008F938FE391E09F938F930E947C0E0F9036
:101690000F900F900F900F900F9008958CE391E0B2
:1016A0009F938F930E947C0E0F900F90089589E373
:1016B00091E09F938F930E947C0E0F900F9008955E
:1016C000CF93DF93C62FD42F682F880F770B8C2FE3
:1016D0000C2E000C990B0E94D80A0E94F20ADC170B
:1016E00034F080E290E00E94A20ECF5FF8CF0E941B
:1016F000E90ADF91CF9108950F931F93CF93DF9362
:10170000C62FD42F062E000C770B082E000C990B39
:101710000E94D80A0E94F20A02E311E080E290E0FF
:10172000CD1754F40E94A20E1F930F930E947C0EBB
:10173000CF5F0F900F90F2CF0E94A20E0E94E90A95
:10174000DF91CF911F910F9108951092B8031092DD
:10175000B9031092BA031092BB0316BC8CE787BD85
:1017600082E084BD83E085BDEEE6F0E080818260AA
:10177000808385B3827085BB08952FB7F8946091FC
:10178000B8037091B9038091BA039091BB0327FF0E
:1017900001C0789408951F920F920FB60F921124F2
:1017A0002F933F934F935F936F937F938F939F9369
:1017B000AF93BF93EF93FF938091B8039091B903D8
:1017C000A091BA03B091BB030196A11DB11D8093F6
:1017D000B8039093B903A093BA03B093BB030E94DC
:1017E0007003811107C00E944D03813D974010F4A2
:1017F0000E94FE05FF91EF91BF91AF919F918F9154
:101800007F916F915F914F913F912F910F900FBEFC
:101810000F901F9018950E94D1070E94E1070E9427
:1018200022080E942B080E944509F9CFAA1BBB1B66
:1018300051E107C0AA1FBB1FA617B70710F0A61BD0
:10184000B70B881F991F5A95A9F780959095BC01F1
:10185000CD010895A1E21A2EAA1BBB1BFD010DC0EC
:10186000AA1FBB1FEE1FFF1FA217B307E407F50750
:1018700020F0A21BB30BE40BF50B661F771F881F2C
:10188000991F1A9469F760957095809590959B01C2
:10189000AC01BD01CF010895052E97FB1EF4009405
:1018A0000E94630C57FD07D00E942A0C07FC03D04E
:1018B0004EF40C94630C50954095309521953F4F14
:1018C0004F4F5F4F089590958095709561957F4F2C
:1018D0008F4F9F4F08952F923F924F925F926F923A
:1018E0007F928F929F92AF92BF92CF92DF92EF92B0
:1018F000FF920F931F93CF93DF93CDB7DEB7CA1B31
:10190000DB0B0FB6F894DEBF0FBECDBF09942A885B
:10191000398848885F846E847D848C849B84AA8403
:10192000B984C884DF80EE80FD800C811B81AA8190
:10193000B981CE0FD11D0FB6F894DEBF0FBECDBF5B
:10194000ED0108950E94B60C0C94970D0E94900D25
:1019500058F00E94890D40F029F45F3F29F00C9463
:10196000800D51110C94CB0D0C94860D0E94A80D86
:1019700068F39923B1F3552391F3951B550BBB27BE
:10198000AA2762177307840738F09F5F5F4F220F03
:10199000331F441FAA1FA9F335D00E2E3AF0E0E8FA
:1019A00032D091505040E695001CCAF72BD0FE2F44
:1019B00029D0660F771F881FBB1F261737074807D8
:1019C000AB07B0E809F0BB0B802DBF01FF27935890
:1019D0005F4F3AF09E3F510578F00C94800D0C94C7
:1019E000CB0D5F3FE4F3983ED4F3869577956795EA
:1019F000B795F7959F5FC9F7880F911D96958795C5
:101A000097F90895E1E0660F771F881FBB1F6217E3
:101A100073078407BA0720F0621B730B840BBA0BA1
:101A2000EE1F88F7E09508950E94B00D88F09F574B
:101A300098F0B92F9927B751B0F0E1F0660F771FF2
:101A4000881F991F1AF0BA95C9F714C0B13091F0E8
:101A50000E94CA0DB1E008950C94CA0D672F782F2B
:101A60008827B85F39F0B93FCCF3869577956795AD
:101A7000B395D9F73EF490958095709561957F4F19
:101A80008F4F9F4F0895E89409C097FB3EF49095BF
:101A90008095709561957F4F8F4F9F4F9923A9F047
:101AA000F92F96E9BB279395F695879577956795D6
:101AB000B795F111F8CFFAF4BB0F11F460FF1BC01A
:101AC0006F5F7F4F8F4F9F4F16C0882311F096E9AD
:101AD00011C0772321F09EE8872F762F05C066235B
:101AE00071F096E8862F70E060E02AF09A95660F14
:101AF000771F881FDAF7880F9695879597F90895CD
:101B000097F99F6780E870E060E008959FEF80ECB0
:101B1000089500240A941616170618060906089553
:101B200000240A9412161306140605060895092EB9
:101B30000394000C11F4882352F0BB0F40F4BF2B28
:101B400011F460FF04C06F5F7F4F8F4F9F4F089568
:101B500057FD9058440F551F59F05F3F71F047955E
:101B6000880F97FB991F61F09F3F79F08795089543
:101B7000121613061406551FF2CF4695F1DF08C062
:101B8000161617061806991FF1CF8695710561057F
:101B900008940895E894BB2766277727CB0197F927
:101BA00008950E94E40D0C94970D0E94890D38F061
:101BB0000E94900D20F0952311F00C94800D0C9450
:101BC000860D11240C94CB0D0E94A80D70F3959FE7
:101BD000C1F3950F50E0551F629FF001729FBB2724
:101BE000F00DB11D639FAA27F00DB11DAA1F649FC0
:101BF0006627B00DA11D661F829F2227B00DA11D73
:101C0000621F739FB00DA11D621F839FA00D611DF8
:101C1000221F749F3327A00D611D231F849F600D19
:101C2000211D822F762F6A2F11249F5750409AF042
:101C3000F1F088234AF0EE0FFF1FBB1F661F771FCE
:101C4000881F91505040A9F79E3F510580F00C9499
:101C5000800D0C94CB0D5F3FE4F3983ED4F3869552
:101C600077956795B795F795E7959F5FC1F7FE2B39
:101C7000880F911D9695879597F90895CF93DF93D7
:101C8000EC012B8120FF33C026FF0AC02F7B2B8362
:101C90008E819F8101969F838E838A8190E029C0E7
:101CA00022FF0FC0E881F9818081082E000C990B7A
:101CB000009719F420622B831AC03196F983E883C8
:101CC0000EC0EA85FB85099597FF09C02B81019617
:101CD00011F080E201C080E1822B8B8308C02E814D
:101CE0003F812F5F3F4F3F832E83992702C08FEFA5
:101CF0009FEFDF91CF910895A0E0B0E0E2E8FEE031
:101D00000C94790CAE01495F5F4FDA016D917D91C2
:101D1000AD010AED15E0F80182819381DC01139693
:101D20002C911397286013962C930E94A90ED8012A
:101D30001296ED91FC9113972381277F2383E4E092
:101D40000C94950C6091DC057091DD050E94921059
:101D50000895ACE0B0E0EFEAFEE00C946B0C6C018F
:101D60007B018A01FC0117821682838181FFBEC13B
:101D7000CE0101964C01F6019381F70193FD859107
:101D800093FF81917F01882309F4ACC1853239F436
:101D900093FD859193FF81917F01853229F4B601EE
:101DA00090E00E949210E7CF512C312C20E020329D
:101DB000A0F48B3269F030F4803259F0833269F448
:101DC00020612CC08D3239F0803339F4216026C077
:101DD0002260246023C0286021C027FD27C030ED89
:101DE000380F3A3078F426FF06C0FAE05F9E300DD7
:101DF0001124532E13C08AE0389E300D1124332E47
:101E000020620CC08E3221F426FD6CC1206406C015
:101E10008C3611F4206802C0883641F4F70193FD36
:101E2000859193FF81917F018111C1CF982F9F7D73
:101E30009554933028F40C5F1F4F9FE399830DC096
:101E4000833631F0833771F0833509F05BC022C0EF
:101E5000F801808189830E5F1F4F44244394512CE5
:101E6000540115C03801F2E06F0E711CF801A0801A
:101E7000B18026FF03C0652D70E002C06FEF7FEFD9
:101E8000C5012C870E9487102C0183012C852F7798
:101E9000222E17C03801F2E06F0E711CF801A080ED
:101EA000B18026FF03C0652D70E002C06FEF7FEFA9
:101EB000C5012C870E947C102C012C852068222EC5
:101EC000830123FC1BC0832D90E048165906B0F413
:101ED000B60180E290E00E9492103A94F4CFF501AE
:101EE00027FC859127FE81915F01B60190E00E9459
:101EF000921031103A94F1E04F1A510841145104F4
:101F000071F7E6C0843611F0893639F5F80127FFFC
:101F100007C060817181828193810C5F1F4F08C06F
:101F200060817181072E000C880B990B0E5F1F4F8B
:101F30002F76722E97FF09C09095809570956195C8
:101F40007F4F8F4F9F4F2068722E2AE030E0A40110
:101F50000E94C210A82EA81844C0853729F42F7EED
:101F6000B22E2AE030E025C0F22FF97FBF2E8F3647
:101F7000C1F018F4883579F0B5C0803719F088378A
:101F800021F0B0C02F2F2061B22EB4FE0DC08B2DDA
:101F90008460B82E09C024FF0AC09F2F9660B92E16
:101FA00006C028E030E005C020E130E002C020E1BA
:101FB00032E0F801B7FE07C06081718182819381B0
:101FC0000C5F1F4F06C06081718180E090E00E5F62
:101FD0001F4FA4010E94C210A82EA818FB2DFF7746
:101FE0007F2E76FE0BC0372D3E7FA51450F474FE75
:101FF0000AC072FC08C0372D3E7E05C0BA2C372DB2
:1020000003C0BA2C01C0B52C34FF0DC0FE01EA0D8F
:10201000F11D8081803311F4397E09C032FF06C082
:10202000B394B39404C0832F867809F0B39433FD3E
:1020300013C030FF06C0B31498F43A0C532C5B184D
:1020400010C0B31470F4B60180E290E03C870E94A7
:102050009210B3943C85F5CFB31418F43B1802C02A
:102060005A2C312C34FF12C0B60180E390E03C873B
:102070000E9492103C8532FF17C031FD03C088E7F3
:1020800090E002C088E590E0B6010CC0832F86780E
:1020900059F031FF02C08BE201C080E237FD8DE2D2
:1020A000B60190E00E949210A51438F4B60180E3C6
:1020B00090E00E9492105A94F7CFAA94F401EA0D8E
:1020C000F11D8081B60190E00E949210A110F5CF21
:1020D000332009F450CEB60180E290E00E949210C5
:1020E0003A94F6CFF6018681978102C08FEF9FEF79
:1020F0002C96E2E10C94870CFC0105906150704035
:102100000110D8F7809590958E0F9F1F0895FC01C0
:102110006150704001900110D8F7809590958E0F16
:102120009F1F08950F931F93CF93DF93182F092FAD
:10213000EB018B8181FD03C08FEF9FEF1EC082FFFB
:102140000FC02E813F818C819D812817390774F43F
:10215000E881F981CF01019699838883108306C0B5
:10216000E885F985812F0995892B31F78E819F812B
:1021700001969F838E83812F902FDF91CF911F91A6
:102180000F910895FA01AA27283051F1203181F1E9
:10219000E8946F936E7F6E5F7F4F8F4F9F4FAF4F6F
:1021A000B1E03ED0B4E03CD0670F781F891F9A1F82
:1021B000A11D680F791F8A1F911DA11D6A0F711D36
:1021C000811D911DA11D20D009F468943F912AE042
:1021D000269F11243019305D3193DEF6CF0108952A
:1021E000462F4770405D4193B3E00FD0C9F7F6CF5B
:1021F000462F4F70405D4A3318F0495D31FD405223
:10220000419302D0A9F7EACFB4E0A69597958795B8
:1022100077956795BA95C9F7009761057105089597
:102220009B01AC010A2E0694579547953795279543
:10223000BA95C9F7620F731F841F951FA01D0895DB
:04224000F894FFCF40
:10224400FFFFFFFFD007FFFF0000000300000000B6
:102254006D09A10900007D4545390010387C38100E
:10226400007D2111217DFEFFFE00FE01FFFEFFFF28
:10227400FF00FF01FF0200FE00FF0001000201FE5B
:1022840001FF01000101010202FF0200020100013D
:1022940000FF0100FF000404000500040000040026
:1022A40004040003040403040004040404040300F9
:1022B400000400000404000000000300000000000B
:1022C40000000404040404040004000403040404DB
:1022D40004040500030503030304040405040504BE
:1022E40000000003030400000004000403000003D2
:1022F40000030004000400000003000404000403BD
:1023040004000400000400000003000004040003AF
:102314000504000404040003000300000004040096
:10232400000400040004000400040000000304048A
:102334000304000300040004000404040400030074
:10234400000000040004050400040000030000046D
:102354000000000400000404030405000400000459
:102364000304000004040000000404040400040046
:102374000000040300040000000300000300030045
:102384000300030000040000000400000300040034
:1023940000030300050401003B00C5000000B20077
:1023A400C50001003B00B1000000B200B100010013
:1023B4003B00B1000000B200B10001002901B100EE
:1023C4000000B200B10001003B00B1000000B20007
:1023D400B10001003B00B1000000B200B1000100F7
:1023E4003B00B1000000B200B10001003B00A800B6
:1023F4000000B200A80001003B00A8000000B200E9
:10240400A80001003B00B1000000B200B1000100CF
:102414003B00B1000000B200B1000100290121011C
:102424000000B200210101003B0003010000B200E2
:10243400030101003B00DC000000B200DC000100ED
:102444003B00C5000000B200C50001003B00B10024
:102454000000B200B10001003B00B1000000B20076
:10246400B10001002901B1000000B200B100010077
:102474003B00B1000000B200B10001003B00B1001C
:102484000000B200B10001003B00B1000000B20046
:10249400B10001003B0097000000B200970001006A
:1024A4003B0097000000B200970001003B0087004A
:1024B4000000B200870001003B0087000000B2006A
:1024C40087000100290121010000B200210101005F
:1024D4003B0003010000B200030101003B00DC00EB
:0624E4000000B200DC0064
:00000001FF
